{
	"data": {
		"bytecode": {
			"linkReferences": {},
			"object": "608060405234801561001057600080fd5b50610ac0806100206000396000f3fe608060405234801561001057600080fd5b506004361061002b5760003560e01c80637fba776914610030575b600080fd5b61004a6004803603810190610045919061053b565b610060565b60405161005791906106e5565b60405180910390f35b6060600061006d85610092565b9050600061007c8286866100c7565b90506100878161016b565b925050509392505050565b600080826040516020016100a691906106ce565b60405160208183030381529060405280519060200120905080915050919050565b60008084905060005b845181101561013157818582815181106100ed576100ec6109eb565b5b60200260200101516040516020016101069291906106a2565b60405160208183030381529060405280519060200120915080806101299061095f565b9150506100d0565b506000818460405160200161014792919061067a565b60405160208183030381529060405280519060200120905080925050509392505050565b60606000604067ffffffffffffffff81111561018a57610189610a1a565b5b6040519080825280601f01601f1916602001820160405280156101bc5781602001600182028036833780820191505090505b50905060005b602081101561040e5760006008826101da919061083d565b8560001c901c60f81b905060007f3000000000000000000000000000000000000000000000000000000000000000905060007f6100000000000000000000000000000000000000000000000000000000000000905060007f660000000000000000000000000000000000000000000000000000000000000090506000601060f81b9050807effffffffffffffffffffffffffffffffffffffffffffffffffffffffffffff1916857effffffffffffffffffffffffffffffffffffffffffffffffffffffffffffff1916106102ae57826102b0565b835b876002886102be919061083d565b815181106102cf576102ce6109eb565b5b60200101907effffffffffffffffffffffffffffffffffffffffffffffffffffffffffffff1916908160001a905350807effffffffffffffffffffffffffffffffffffffffffffffffffffffffffffff1916857effffffffffffffffffffffffffffffffffffffffffffffffffffffffffffff1916106103885760008260f81c8260f81c8760f81c6103619190610897565b61036b9190610806565b60ff166001811061037f5761037e6109eb565b5b1a60f81b61039c565b60308560f81c6103989190610806565b60f81b5b8760016002896103ac919061083d565b6103b691906107b0565b815181106103c7576103c66109eb565b5b60200101907effffffffffffffffffffffffffffffffffffffffffffffffffffffffffffff1916908160001a905350505050505080806104069061095f565b9150506101c2565b5080915050919050565b600061042b6104268461072c565b610707565b9050808382526020820190508285602086028201111561044e5761044d610a4e565b5b60005b8581101561047e57816104648882610526565b845260208401935060208301925050600181019050610451565b5050509392505050565b600061049b61049684610758565b610707565b9050828152602081018484840111156104b7576104b6610a53565b5b6104c28482856108ec565b509392505050565b600082601f8301126104df576104de610a49565b5b81356104ef848260208601610418565b91505092915050565b600082601f83011261050d5761050c610a49565b5b813561051d848260208601610488565b91505092915050565b60008135905061053581610a73565b92915050565b60008060006060848603121561055457610553610a5d565b5b600084013567ffffffffffffffff81111561057257610571610a58565b5b61057e868287016104f8565b935050602084013567ffffffffffffffff81111561059f5761059e610a58565b5b6105ab868287016104ca565b925050604084013567ffffffffffffffff8111156105cc576105cb610a58565b5b6105d8868287016104f8565b9150509250925092565b6105f36105ee826108cb565b6109a8565b82525050565b600061060482610789565b61060e8185610794565b935061061e8185602086016108fb565b61062781610a62565b840191505092915050565b600061063d82610789565b61064781856107a5565b93506106578185602086016108fb565b80840191505092915050565b61067461066f826108d5565b6109b2565b82525050565b600061068682856105e2565b6020820191506106968284610632565b91508190509392505050565b60006106ae82856105e2565b6020820191506106be8284610663565b6020820191508190509392505050565b60006106da8284610632565b915081905092915050565b600060208201905081810360008301526106ff81846105f9565b905092915050565b6000610711610722565b905061071d828261092e565b919050565b6000604051905090565b600067ffffffffffffffff82111561074757610746610a1a565b5b602082029050602081019050919050565b600067ffffffffffffffff82111561077357610772610a1a565b5b61077c82610a62565b9050602081019050919050565b600081519050919050565b600082825260208201905092915050565b600081905092915050565b60006107bb826108d5565b91506107c6836108d5565b9250827fffffffffffffffffffffffffffffffffffffffffffffffffffffffffffffffff038211156107fb576107fa6109bc565b5b828201905092915050565b6000610811826108df565b915061081c836108df565b92508260ff03821115610832576108316109bc565b5b828201905092915050565b6000610848826108d5565b9150610853836108d5565b9250817fffffffffffffffffffffffffffffffffffffffffffffffffffffffffffffffff048311821515161561088c5761088b6109bc565b5b828202905092915050565b60006108a2826108df565b91506108ad836108df565b9250828210156108c0576108bf6109bc565b5b828203905092915050565b6000819050919050565b6000819050919050565b600060ff82169050919050565b82818337600083830152505050565b60005b838110156109195780820151818401526020810190506108fe565b83811115610928576000848401525b50505050565b61093782610a62565b810181811067ffffffffffffffff8211171561095657610955610a1a565b5b80604052505050565b600061096a826108d5565b91507fffffffffffffffffffffffffffffffffffffffffffffffffffffffffffffffff82141561099d5761099c6109bc565b5b600182019050919050565b6000819050919050565b6000819050919050565b7f4e487b7100000000000000000000000000000000000000000000000000000000600052601160045260246000fd5b7f4e487b7100000000000000000000000000000000000000000000000000000000600052603260045260246000fd5b7f4e487b7100000000000000000000000000000000000000000000000000000000600052604160045260246000fd5b600080fd5b600080fd5b600080fd5b600080fd5b600080fd5b6000601f19601f8301169050919050565b610a7c816108d5565b8114610a8757600080fd5b5056fea26469706673582212200117c479a04fc78b82df5ba97d0b8bb1c0449f73a275ce96b012b4d6189869b764736f6c63430008060033",
			"opcodes": "PUSH1 0x80 PUSH1 0x40 MSTORE CALLVALUE DUP1 ISZERO PUSH2 0x10 JUMPI PUSH1 0x0 DUP1 REVERT JUMPDEST POP PUSH2 0xAC0 DUP1 PUSH2 0x20 PUSH1 0x0 CODECOPY PUSH1 0x0 RETURN INVALID PUSH1 0x80 PUSH1 0x40 MSTORE CALLVALUE DUP1 ISZERO PUSH2 0x10 JUMPI PUSH1 0x0 DUP1 REVERT JUMPDEST POP PUSH1 0x4 CALLDATASIZE LT PUSH2 0x2B JUMPI PUSH1 0x0 CALLDATALOAD PUSH1 0xE0 SHR DUP1 PUSH4 0x7FBA7769 EQ PUSH2 0x30 JUMPI JUMPDEST PUSH1 0x0 DUP1 REVERT JUMPDEST PUSH2 0x4A PUSH1 0x4 DUP1 CALLDATASIZE SUB DUP2 ADD SWAP1 PUSH2 0x45 SWAP2 SWAP1 PUSH2 0x53B JUMP JUMPDEST PUSH2 0x60 JUMP JUMPDEST PUSH1 0x40 MLOAD PUSH2 0x57 SWAP2 SWAP1 PUSH2 0x6E5 JUMP JUMPDEST PUSH1 0x40 MLOAD DUP1 SWAP2 SUB SWAP1 RETURN JUMPDEST PUSH1 0x60 PUSH1 0x0 PUSH2 0x6D DUP6 PUSH2 0x92 JUMP JUMPDEST SWAP1 POP PUSH1 0x0 PUSH2 0x7C DUP3 DUP7 DUP7 PUSH2 0xC7 JUMP JUMPDEST SWAP1 POP PUSH2 0x87 DUP2 PUSH2 0x16B JUMP JUMPDEST SWAP3 POP POP POP SWAP4 SWAP3 POP POP POP JUMP JUMPDEST PUSH1 0x0 DUP1 DUP3 PUSH1 0x40 MLOAD PUSH1 0x20 ADD PUSH2 0xA6 SWAP2 SWAP1 PUSH2 0x6CE JUMP JUMPDEST PUSH1 0x40 MLOAD PUSH1 0x20 DUP2 DUP4 SUB SUB DUP2 MSTORE SWAP1 PUSH1 0x40 MSTORE DUP1 MLOAD SWAP1 PUSH1 0x20 ADD KECCAK256 SWAP1 POP DUP1 SWAP2 POP POP SWAP2 SWAP1 POP JUMP JUMPDEST PUSH1 0x0 DUP1 DUP5 SWAP1 POP PUSH1 0x0 JUMPDEST DUP5 MLOAD DUP2 LT ISZERO PUSH2 0x131 JUMPI DUP2 DUP6 DUP3 DUP2 MLOAD DUP2 LT PUSH2 0xED JUMPI PUSH2 0xEC PUSH2 0x9EB JUMP JUMPDEST JUMPDEST PUSH1 0x20 MUL PUSH1 0x20 ADD ADD MLOAD PUSH1 0x40 MLOAD PUSH1 0x20 ADD PUSH2 0x106 SWAP3 SWAP2 SWAP1 PUSH2 0x6A2 JUMP JUMPDEST PUSH1 0x40 MLOAD PUSH1 0x20 DUP2 DUP4 SUB SUB DUP2 MSTORE SWAP1 PUSH1 0x40 MSTORE DUP1 MLOAD SWAP1 PUSH1 0x20 ADD KECCAK256 SWAP2 POP DUP1 DUP1 PUSH2 0x129 SWAP1 PUSH2 0x95F JUMP JUMPDEST SWAP2 POP POP PUSH2 0xD0 JUMP JUMPDEST POP PUSH1 0x0 DUP2 DUP5 PUSH1 0x40 MLOAD PUSH1 0x20 ADD PUSH2 0x147 SWAP3 SWAP2 SWAP1 PUSH2 0x67A JUMP JUMPDEST PUSH1 0x40 MLOAD PUSH1 0x20 DUP2 DUP4 SUB SUB DUP2 MSTORE SWAP1 PUSH1 0x40 MSTORE DUP1 MLOAD SWAP1 PUSH1 0x20 ADD KECCAK256 SWAP1 POP DUP1 SWAP3 POP POP POP SWAP4 SWAP3 POP POP POP JUMP JUMPDEST PUSH1 0x60 PUSH1 0x0 PUSH1 0x40 PUSH8 0xFFFFFFFFFFFFFFFF DUP2 GT ISZERO PUSH2 0x18A JUMPI PUSH2 0x189 PUSH2 0xA1A JUMP JUMPDEST JUMPDEST PUSH1 0x40 MLOAD SWAP1 DUP1 DUP3 MSTORE DUP1 PUSH1 0x1F ADD PUSH1 0x1F NOT AND PUSH1 0x20 ADD DUP3 ADD PUSH1 0x40 MSTORE DUP1 ISZERO PUSH2 0x1BC JUMPI DUP2 PUSH1 0x20 ADD PUSH1 0x1 DUP3 MUL DUP1 CALLDATASIZE DUP4 CALLDATACOPY DUP1 DUP3 ADD SWAP2 POP POP SWAP1 POP JUMPDEST POP SWAP1 POP PUSH1 0x0 JUMPDEST PUSH1 0x20 DUP2 LT ISZERO PUSH2 0x40E JUMPI PUSH1 0x0 PUSH1 0x8 DUP3 PUSH2 0x1DA SWAP2 SWAP1 PUSH2 0x83D JUMP JUMPDEST DUP6 PUSH1 0x0 SHR SWAP1 SHR PUSH1 0xF8 SHL SWAP1 POP PUSH1 0x0 PUSH32 0x3000000000000000000000000000000000000000000000000000000000000000 SWAP1 POP PUSH1 0x0 PUSH32 0x6100000000000000000000000000000000000000000000000000000000000000 SWAP1 POP PUSH1 0x0 PUSH32 0x6600000000000000000000000000000000000000000000000000000000000000 SWAP1 POP PUSH1 0x0 PUSH1 0x10 PUSH1 0xF8 SHL SWAP1 POP DUP1 PUSH31 0xFFFFFFFFFFFFFFFFFFFFFFFFFFFFFFFFFFFFFFFFFFFFFFFFFFFFFFFFFFFFFF NOT AND DUP6 PUSH31 0xFFFFFFFFFFFFFFFFFFFFFFFFFFFFFFFFFFFFFFFFFFFFFFFFFFFFFFFFFFFFFF NOT AND LT PUSH2 0x2AE JUMPI DUP3 PUSH2 0x2B0 JUMP JUMPDEST DUP4 JUMPDEST DUP8 PUSH1 0x2 DUP9 PUSH2 0x2BE SWAP2 SWAP1 PUSH2 0x83D JUMP JUMPDEST DUP2 MLOAD DUP2 LT PUSH2 0x2CF JUMPI PUSH2 0x2CE PUSH2 0x9EB JUMP JUMPDEST JUMPDEST PUSH1 0x20 ADD ADD SWAP1 PUSH31 0xFFFFFFFFFFFFFFFFFFFFFFFFFFFFFFFFFFFFFFFFFFFFFFFFFFFFFFFFFFFFFF NOT AND SWAP1 DUP2 PUSH1 0x0 BYTE SWAP1 MSTORE8 POP DUP1 PUSH31 0xFFFFFFFFFFFFFFFFFFFFFFFFFFFFFFFFFFFFFFFFFFFFFFFFFFFFFFFFFFFFFF NOT AND DUP6 PUSH31 0xFFFFFFFFFFFFFFFFFFFFFFFFFFFFFFFFFFFFFFFFFFFFFFFFFFFFFFFFFFFFFF NOT AND LT PUSH2 0x388 JUMPI PUSH1 0x0 DUP3 PUSH1 0xF8 SHR DUP3 PUSH1 0xF8 SHR DUP8 PUSH1 0xF8 SHR PUSH2 0x361 SWAP2 SWAP1 PUSH2 0x897 JUMP JUMPDEST PUSH2 0x36B SWAP2 SWAP1 PUSH2 0x806 JUMP JUMPDEST PUSH1 0xFF AND PUSH1 0x1 DUP2 LT PUSH2 0x37F JUMPI PUSH2 0x37E PUSH2 0x9EB JUMP JUMPDEST JUMPDEST BYTE PUSH1 0xF8 SHL PUSH2 0x39C JUMP JUMPDEST PUSH1 0x30 DUP6 PUSH1 0xF8 SHR PUSH2 0x398 SWAP2 SWAP1 PUSH2 0x806 JUMP JUMPDEST PUSH1 0xF8 SHL JUMPDEST DUP8 PUSH1 0x1 PUSH1 0x2 DUP10 PUSH2 0x3AC SWAP2 SWAP1 PUSH2 0x83D JUMP JUMPDEST PUSH2 0x3B6 SWAP2 SWAP1 PUSH2 0x7B0 JUMP JUMPDEST DUP2 MLOAD DUP2 LT PUSH2 0x3C7 JUMPI PUSH2 0x3C6 PUSH2 0x9EB JUMP JUMPDEST JUMPDEST PUSH1 0x20 ADD ADD SWAP1 PUSH31 0xFFFFFFFFFFFFFFFFFFFFFFFFFFFFFFFFFFFFFFFFFFFFFFFFFFFFFFFFFFFFFF NOT AND SWAP1 DUP2 PUSH1 0x0 BYTE SWAP1 MSTORE8 POP POP POP POP POP POP DUP1 DUP1 PUSH2 0x406 SWAP1 PUSH2 0x95F JUMP JUMPDEST SWAP2 POP POP PUSH2 0x1C2 JUMP JUMPDEST POP DUP1 SWAP2 POP POP SWAP2 SWAP1 POP JUMP JUMPDEST PUSH1 0x0 PUSH2 0x42B PUSH2 0x426 DUP5 PUSH2 0x72C JUMP JUMPDEST PUSH2 0x707 JUMP JUMPDEST SWAP1 POP DUP1 DUP4 DUP3 MSTORE PUSH1 0x20 DUP3 ADD SWAP1 POP DUP3 DUP6 PUSH1 0x20 DUP7 MUL DUP3 ADD GT ISZERO PUSH2 0x44E JUMPI PUSH2 0x44D PUSH2 0xA4E JUMP JUMPDEST JUMPDEST PUSH1 0x0 JUMPDEST DUP6 DUP2 LT ISZERO PUSH2 0x47E JUMPI DUP2 PUSH2 0x464 DUP9 DUP3 PUSH2 0x526 JUMP JUMPDEST DUP5 MSTORE PUSH1 0x20 DUP5 ADD SWAP4 POP PUSH1 0x20 DUP4 ADD SWAP3 POP POP PUSH1 0x1 DUP2 ADD SWAP1 POP PUSH2 0x451 JUMP JUMPDEST POP POP POP SWAP4 SWAP3 POP POP POP JUMP JUMPDEST PUSH1 0x0 PUSH2 0x49B PUSH2 0x496 DUP5 PUSH2 0x758 JUMP JUMPDEST PUSH2 0x707 JUMP JUMPDEST SWAP1 POP DUP3 DUP2 MSTORE PUSH1 0x20 DUP2 ADD DUP5 DUP5 DUP5 ADD GT ISZERO PUSH2 0x4B7 JUMPI PUSH2 0x4B6 PUSH2 0xA53 JUMP JUMPDEST JUMPDEST PUSH2 0x4C2 DUP5 DUP3 DUP6 PUSH2 0x8EC JUMP JUMPDEST POP SWAP4 SWAP3 POP POP POP JUMP JUMPDEST PUSH1 0x0 DUP3 PUSH1 0x1F DUP4 ADD SLT PUSH2 0x4DF JUMPI PUSH2 0x4DE PUSH2 0xA49 JUMP JUMPDEST JUMPDEST DUP2 CALLDATALOAD PUSH2 0x4EF DUP5 DUP3 PUSH1 0x20 DUP7 ADD PUSH2 0x418 JUMP JUMPDEST SWAP2 POP POP SWAP3 SWAP2 POP POP JUMP JUMPDEST PUSH1 0x0 DUP3 PUSH1 0x1F DUP4 ADD SLT PUSH2 0x50D JUMPI PUSH2 0x50C PUSH2 0xA49 JUMP JUMPDEST JUMPDEST DUP2 CALLDATALOAD PUSH2 0x51D DUP5 DUP3 PUSH1 0x20 DUP7 ADD PUSH2 0x488 JUMP JUMPDEST SWAP2 POP POP SWAP3 SWAP2 POP POP JUMP JUMPDEST PUSH1 0x0 DUP2 CALLDATALOAD SWAP1 POP PUSH2 0x535 DUP2 PUSH2 0xA73 JUMP JUMPDEST SWAP3 SWAP2 POP POP JUMP JUMPDEST PUSH1 0x0 DUP1 PUSH1 0x0 PUSH1 0x60 DUP5 DUP7 SUB SLT ISZERO PUSH2 0x554 JUMPI PUSH2 0x553 PUSH2 0xA5D JUMP JUMPDEST JUMPDEST PUSH1 0x0 DUP5 ADD CALLDATALOAD PUSH8 0xFFFFFFFFFFFFFFFF DUP2 GT ISZERO PUSH2 0x572 JUMPI PUSH2 0x571 PUSH2 0xA58 JUMP JUMPDEST JUMPDEST PUSH2 0x57E DUP7 DUP3 DUP8 ADD PUSH2 0x4F8 JUMP JUMPDEST SWAP4 POP POP PUSH1 0x20 DUP5 ADD CALLDATALOAD PUSH8 0xFFFFFFFFFFFFFFFF DUP2 GT ISZERO PUSH2 0x59F JUMPI PUSH2 0x59E PUSH2 0xA58 JUMP JUMPDEST JUMPDEST PUSH2 0x5AB DUP7 DUP3 DUP8 ADD PUSH2 0x4CA JUMP JUMPDEST SWAP3 POP POP PUSH1 0x40 DUP5 ADD CALLDATALOAD PUSH8 0xFFFFFFFFFFFFFFFF DUP2 GT ISZERO PUSH2 0x5CC JUMPI PUSH2 0x5CB PUSH2 0xA58 JUMP JUMPDEST JUMPDEST PUSH2 0x5D8 DUP7 DUP3 DUP8 ADD PUSH2 0x4F8 JUMP JUMPDEST SWAP2 POP POP SWAP3 POP SWAP3 POP SWAP3 JUMP JUMPDEST PUSH2 0x5F3 PUSH2 0x5EE DUP3 PUSH2 0x8CB JUMP JUMPDEST PUSH2 0x9A8 JUMP JUMPDEST DUP3 MSTORE POP POP JUMP JUMPDEST PUSH1 0x0 PUSH2 0x604 DUP3 PUSH2 0x789 JUMP JUMPDEST PUSH2 0x60E DUP2 DUP6 PUSH2 0x794 JUMP JUMPDEST SWAP4 POP PUSH2 0x61E DUP2 DUP6 PUSH1 0x20 DUP7 ADD PUSH2 0x8FB JUMP JUMPDEST PUSH2 0x627 DUP2 PUSH2 0xA62 JUMP JUMPDEST DUP5 ADD SWAP2 POP POP SWAP3 SWAP2 POP POP JUMP JUMPDEST PUSH1 0x0 PUSH2 0x63D DUP3 PUSH2 0x789 JUMP JUMPDEST PUSH2 0x647 DUP2 DUP6 PUSH2 0x7A5 JUMP JUMPDEST SWAP4 POP PUSH2 0x657 DUP2 DUP6 PUSH1 0x20 DUP7 ADD PUSH2 0x8FB JUMP JUMPDEST DUP1 DUP5 ADD SWAP2 POP POP SWAP3 SWAP2 POP POP JUMP JUMPDEST PUSH2 0x674 PUSH2 0x66F DUP3 PUSH2 0x8D5 JUMP JUMPDEST PUSH2 0x9B2 JUMP JUMPDEST DUP3 MSTORE POP POP JUMP JUMPDEST PUSH1 0x0 PUSH2 0x686 DUP3 DUP6 PUSH2 0x5E2 JUMP JUMPDEST PUSH1 0x20 DUP3 ADD SWAP2 POP PUSH2 0x696 DUP3 DUP5 PUSH2 0x632 JUMP JUMPDEST SWAP2 POP DUP2 SWAP1 POP SWAP4 SWAP3 POP POP POP JUMP JUMPDEST PUSH1 0x0 PUSH2 0x6AE DUP3 DUP6 PUSH2 0x5E2 JUMP JUMPDEST PUSH1 0x20 DUP3 ADD SWAP2 POP PUSH2 0x6BE DUP3 DUP5 PUSH2 0x663 JUMP JUMPDEST PUSH1 0x20 DUP3 ADD SWAP2 POP DUP2 SWAP1 POP SWAP4 SWAP3 POP POP POP JUMP JUMPDEST PUSH1 0x0 PUSH2 0x6DA DUP3 DUP5 PUSH2 0x632 JUMP JUMPDEST SWAP2 POP DUP2 SWAP1 POP SWAP3 SWAP2 POP POP JUMP JUMPDEST PUSH1 0x0 PUSH1 0x20 DUP3 ADD SWAP1 POP DUP2 DUP2 SUB PUSH1 0x0 DUP4 ADD MSTORE PUSH2 0x6FF DUP2 DUP5 PUSH2 0x5F9 JUMP JUMPDEST SWAP1 POP SWAP3 SWAP2 POP POP JUMP JUMPDEST PUSH1 0x0 PUSH2 0x711 PUSH2 0x722 JUMP JUMPDEST SWAP1 POP PUSH2 0x71D DUP3 DUP3 PUSH2 0x92E JUMP JUMPDEST SWAP2 SWAP1 POP JUMP JUMPDEST PUSH1 0x0 PUSH1 0x40 MLOAD SWAP1 POP SWAP1 JUMP JUMPDEST PUSH1 0x0 PUSH8 0xFFFFFFFFFFFFFFFF DUP3 GT ISZERO PUSH2 0x747 JUMPI PUSH2 0x746 PUSH2 0xA1A JUMP JUMPDEST JUMPDEST PUSH1 0x20 DUP3 MUL SWAP1 POP PUSH1 0x20 DUP2 ADD SWAP1 POP SWAP2 SWAP1 POP JUMP JUMPDEST PUSH1 0x0 PUSH8 0xFFFFFFFFFFFFFFFF DUP3 GT ISZERO PUSH2 0x773 JUMPI PUSH2 0x772 PUSH2 0xA1A JUMP JUMPDEST JUMPDEST PUSH2 0x77C DUP3 PUSH2 0xA62 JUMP JUMPDEST SWAP1 POP PUSH1 0x20 DUP2 ADD SWAP1 POP SWAP2 SWAP1 POP JUMP JUMPDEST PUSH1 0x0 DUP2 MLOAD SWAP1 POP SWAP2 SWAP1 POP JUMP JUMPDEST PUSH1 0x0 DUP3 DUP3 MSTORE PUSH1 0x20 DUP3 ADD SWAP1 POP SWAP3 SWAP2 POP POP JUMP JUMPDEST PUSH1 0x0 DUP2 SWAP1 POP SWAP3 SWAP2 POP POP JUMP JUMPDEST PUSH1 0x0 PUSH2 0x7BB DUP3 PUSH2 0x8D5 JUMP JUMPDEST SWAP2 POP PUSH2 0x7C6 DUP4 PUSH2 0x8D5 JUMP JUMPDEST SWAP3 POP DUP3 PUSH32 0xFFFFFFFFFFFFFFFFFFFFFFFFFFFFFFFFFFFFFFFFFFFFFFFFFFFFFFFFFFFFFFFF SUB DUP3 GT ISZERO PUSH2 0x7FB JUMPI PUSH2 0x7FA PUSH2 0x9BC JUMP JUMPDEST JUMPDEST DUP3 DUP3 ADD SWAP1 POP SWAP3 SWAP2 POP POP JUMP JUMPDEST PUSH1 0x0 PUSH2 0x811 DUP3 PUSH2 0x8DF JUMP JUMPDEST SWAP2 POP PUSH2 0x81C DUP4 PUSH2 0x8DF JUMP JUMPDEST SWAP3 POP DUP3 PUSH1 0xFF SUB DUP3 GT ISZERO PUSH2 0x832 JUMPI PUSH2 0x831 PUSH2 0x9BC JUMP JUMPDEST JUMPDEST DUP3 DUP3 ADD SWAP1 POP SWAP3 SWAP2 POP POP JUMP JUMPDEST PUSH1 0x0 PUSH2 0x848 DUP3 PUSH2 0x8D5 JUMP JUMPDEST SWAP2 POP PUSH2 0x853 DUP4 PUSH2 0x8D5 JUMP JUMPDEST SWAP3 POP DUP2 PUSH32 0xFFFFFFFFFFFFFFFFFFFFFFFFFFFFFFFFFFFFFFFFFFFFFFFFFFFFFFFFFFFFFFFF DIV DUP4 GT DUP3 ISZERO ISZERO AND ISZERO PUSH2 0x88C JUMPI PUSH2 0x88B PUSH2 0x9BC JUMP JUMPDEST JUMPDEST DUP3 DUP3 MUL SWAP1 POP SWAP3 SWAP2 POP POP JUMP JUMPDEST PUSH1 0x0 PUSH2 0x8A2 DUP3 PUSH2 0x8DF JUMP JUMPDEST SWAP2 POP PUSH2 0x8AD DUP4 PUSH2 0x8DF JUMP JUMPDEST SWAP3 POP DUP3 DUP3 LT ISZERO PUSH2 0x8C0 JUMPI PUSH2 0x8BF PUSH2 0x9BC JUMP JUMPDEST JUMPDEST DUP3 DUP3 SUB SWAP1 POP SWAP3 SWAP2 POP POP JUMP JUMPDEST PUSH1 0x0 DUP2 SWAP1 POP SWAP2 SWAP1 POP JUMP JUMPDEST PUSH1 0x0 DUP2 SWAP1 POP SWAP2 SWAP1 POP JUMP JUMPDEST PUSH1 0x0 PUSH1 0xFF DUP3 AND SWAP1 POP SWAP2 SWAP1 POP JUMP JUMPDEST DUP3 DUP2 DUP4 CALLDATACOPY PUSH1 0x0 DUP4 DUP4 ADD MSTORE POP POP POP JUMP JUMPDEST PUSH1 0x0 JUMPDEST DUP4 DUP2 LT ISZERO PUSH2 0x919 JUMPI DUP1 DUP3 ADD MLOAD DUP2 DUP5 ADD MSTORE PUSH1 0x20 DUP2 ADD SWAP1 POP PUSH2 0x8FE JUMP JUMPDEST DUP4 DUP2 GT ISZERO PUSH2 0x928 JUMPI PUSH1 0x0 DUP5 DUP5 ADD MSTORE JUMPDEST POP POP POP POP JUMP JUMPDEST PUSH2 0x937 DUP3 PUSH2 0xA62 JUMP JUMPDEST DUP2 ADD DUP2 DUP2 LT PUSH8 0xFFFFFFFFFFFFFFFF DUP3 GT OR ISZERO PUSH2 0x956 JUMPI PUSH2 0x955 PUSH2 0xA1A JUMP JUMPDEST JUMPDEST DUP1 PUSH1 0x40 MSTORE POP POP POP JUMP JUMPDEST PUSH1 0x0 PUSH2 0x96A DUP3 PUSH2 0x8D5 JUMP JUMPDEST SWAP2 POP PUSH32 0xFFFFFFFFFFFFFFFFFFFFFFFFFFFFFFFFFFFFFFFFFFFFFFFFFFFFFFFFFFFFFFFF DUP3 EQ ISZERO PUSH2 0x99D JUMPI PUSH2 0x99C PUSH2 0x9BC JUMP JUMPDEST JUMPDEST PUSH1 0x1 DUP3 ADD SWAP1 POP SWAP2 SWAP1 POP JUMP JUMPDEST PUSH1 0x0 DUP2 SWAP1 POP SWAP2 SWAP1 POP JUMP JUMPDEST PUSH1 0x0 DUP2 SWAP1 POP SWAP2 SWAP1 POP JUMP JUMPDEST PUSH32 0x4E487B7100000000000000000000000000000000000000000000000000000000 PUSH1 0x0 MSTORE PUSH1 0x11 PUSH1 0x4 MSTORE PUSH1 0x24 PUSH1 0x0 REVERT JUMPDEST PUSH32 0x4E487B7100000000000000000000000000000000000000000000000000000000 PUSH1 0x0 MSTORE PUSH1 0x32 PUSH1 0x4 MSTORE PUSH1 0x24 PUSH1 0x0 REVERT JUMPDEST PUSH32 0x4E487B7100000000000000000000000000000000000000000000000000000000 PUSH1 0x0 MSTORE PUSH1 0x41 PUSH1 0x4 MSTORE PUSH1 0x24 PUSH1 0x0 REVERT JUMPDEST PUSH1 0x0 DUP1 REVERT JUMPDEST PUSH1 0x0 DUP1 REVERT JUMPDEST PUSH1 0x0 DUP1 REVERT JUMPDEST PUSH1 0x0 DUP1 REVERT JUMPDEST PUSH1 0x0 DUP1 REVERT JUMPDEST PUSH1 0x0 PUSH1 0x1F NOT PUSH1 0x1F DUP4 ADD AND SWAP1 POP SWAP2 SWAP1 POP JUMP JUMPDEST PUSH2 0xA7C DUP2 PUSH2 0x8D5 JUMP JUMPDEST DUP2 EQ PUSH2 0xA87 JUMPI PUSH1 0x0 DUP1 REVERT JUMPDEST POP JUMP INVALID LOG2 PUSH5 0x6970667358 0x22 SLT KECCAK256 ADD OR 0xC4 PUSH26 0xA04FC78B82DF5BA97D0B8BB1C0449F73A275CE96B012B4D61898 PUSH10 0xB764736F6C6343000806 STOP CALLER "
		},
		"gasEstimates": {
			"creation": {
				"codeDepositCost": "550400",
				"executionCost": "581",
				"totalCost": "550981"
			},
			"external": {
				"generatePrivateKey(string,uint256[],string)": "infinite"
			},
			"internal": {
				"derivePrivateKey(bytes32,uint256[] memory,string memory)": "infinite",
				"generateSeed(string memory)": "infinite",
				"toAsciiString(bytes32)": "infinite"
			}
		},
		"methodIdentifiers": {
			"generatePrivateKey(string,uint256[],string)": "7fba7769"
		}
	},
	"abi": [
		{
			"inputs": [
				{
					"internalType": "string",
					"name": "mnemonic",
					"type": "string"
				},
				{
					"internalType": "uint256[]",
					"name": "indexes",
					"type": "uint256[]"
				},
				{
					"internalType": "string",
					"name": "path",
					"type": "string"
				}
			],
			"name": "generatePrivateKey",
			"outputs": [
				{
					"internalType": "string",
					"name": "",
					"type": "string"
				}
			],
			"stateMutability": "pure",
			"type": "function"
		}
	]
}