{
	"data": {
		"bytecode": {
			"linkReferences": {},
			"object": "608060405234801561001057600080fd5b506119cf806100206000396000f3fe608060405234801561001057600080fd5b50600436106100575760003560e01c8063180f86591461005c5780636cd1a41b1461008c5780637dd77d2b146100bc578063a19927e5146100d8578063b9b14cde14610108575b600080fd5b61007660048036038101906100719190611249565b610138565b60405161008391906115ae565b60405180910390f35b6100a660048036038101906100a19190611339565b610273565b6040516100b391906115ae565b60405180910390f35b6100d660048036038101906100d19190611292565b61045c565b005b6100f260048036038101906100ed9190611249565b6105e4565b6040516100ff919061158c565b60405180910390f35b610122600480360381019061011d9190611339565b610765565b60405161012f919061158c565b60405180910390f35b6060600061014583610940565b90506000815114156101ae57600067ffffffffffffffff81111561016c5761016b61192e565b5b6040519080825280602002602001820160405280156101a557816020015b6101926110f9565b81526020019060019003908161018a5790505b5091505061026e565b6000815167ffffffffffffffff8111156101cb576101ca61192e565b5b60405190808252806020026020018201604052801561020457816020015b6101f16110f9565b8152602001906001900390816101e95790505b50905060005b825181101561026757610236838281518110610229576102286118ff565b5b6020026020010151610c2e565b828281518110610249576102486118ff565b5b6020026020010181905250808061025f90611858565b91505061020a565b5080925050505b919050565b6060818311806102835750600083105b8061028e5750600082105b156102ef57600067ffffffffffffffff8111156102ae576102ad61192e565b5b6040519080825280602002602001820160405280156102e757816020015b6102d46110f9565b8152602001906001900390816102cc5790505b509050610456565b60008060006102fe8686610e5e565b925092509250600083146103fb57600182610319919061171f565b91506000808467ffffffffffffffff8111156103385761033761192e565b5b60405190808252806020026020018201604052801561037157816020015b61035e6110f9565b8152602001906001900390816103565790505b509050600085856103829190611775565b90505b848110156103ed576103b08482815181106103a3576103a26118ff565b5b6020026020010151610c2e565b8284806103bc90611858565b9550815181106103cf576103ce6118ff565b5b602002602001018190525080806103e590611858565b915050610385565b508095505050505050610456565b600067ffffffffffffffff8111156104165761041561192e565b5b60405190808252806020026020018201604052801561044f57816020015b61043c6110f9565b8152602001906001900390816104345790505b5093505050505b92915050565b60004290506000339050604051806080016040528086815260200185815260200184815260200183815250600160008373ffffffffffffffffffffffffffffffffffffffff1673ffffffffffffffffffffffffffffffffffffffff168152602001908152602001600020600084815260200190815260200160002060008201518160000190805190602001906104f3929190611121565b506020820151816001019080519060200190610510929190611121565b50604082015181600201908051906020019061052d929190611121565b50606082015181600301559050506000808273ffffffffffffffffffffffffffffffffffffffff1673ffffffffffffffffffffffffffffffffffffffff1681526020019081526020016000208290806001815401808255809150506001900390600052602060002001600090919091909150557f3eb6203e7481b952e95d0d84928acb339e122bbf1b504171999c91e828d1aca1858585856040516105d594939291906115d0565b60405180910390a15050505050565b606060006105f183610940565b905060008151141561065457600067ffffffffffffffff8111156106185761061761192e565b5b60405190808252806020026020018201604052801561064b57816020015b60608152602001906001900390816106365790505b50915050610760565b6000815167ffffffffffffffff8111156106715761067061192e565b5b6040519080825280602002602001820160405280156106a457816020015b606081526020019060019003908161068f5790505b50905060005b825181101561070b576106d68382815181106106c9576106c86118ff565b5b6020026020010151610c2e565b600001518282815181106106ed576106ec6118ff565b5b6020026020010181905250808061070390611858565b9150506106aa565b50600067ffffffffffffffff8111156107275761072661192e565b5b60405190808252806020026020018201604052801561075a57816020015b60608152602001906001900390816107455790505b50925050505b919050565b6060818311806107755750600083105b806107805750600082105b156107db57600067ffffffffffffffff8111156107a05761079f61192e565b5b6040519080825280602002602001820160405280156107d357816020015b60608152602001906001900390816107be5790505b50905061093a565b60008060006107ea8686610e5e565b925092509250600083146108e557600182610805919061171f565b91506000808467ffffffffffffffff8111156108245761082361192e565b5b60405190808252806020026020018201604052801561085757816020015b60608152602001906001900390816108425790505b509050600085856108689190611775565b90505b848110156108d757610896848281518110610889576108886118ff565b5b6020026020010151610c2e565b600001518284806108a690611858565b9550815181106108b9576108b86118ff565b5b602002602001018190525080806108cf90611858565b91505061086b565b50809550505050505061093a565b600067ffffffffffffffff811115610900576108ff61192e565b5b60405190808252806020026020018201604052801561093357816020015b606081526020019060019003908161091e5790505b5093505050505b92915050565b6060600061094d33610f07565b905060008151905060008114156109b157600067ffffffffffffffff8111156109795761097861192e565b5b6040519080825280602002602001820160405280156109a75781602001602082028036833780820191505090505b5092505050610c29565b6000845114156109c5578192505050610c29565b6000808267ffffffffffffffff8111156109e2576109e161192e565b5b604051908082528060200260200182016040528015610a105781602001602082028036833780820191505090505b50905060005b83811015610b70576000858281518110610a3357610a326118ff565b5b602002602001015190506000610b24600160003373ffffffffffffffffffffffffffffffffffffffff1673ffffffffffffffffffffffffffffffffffffffff16815260200190815260200160002060008481526020019081526020016000206000018054610aa0906117f5565b80601f0160208091040260200160405190810160405280929190818152602001828054610acc906117f5565b8015610b195780601f10610aee57610100808354040283529160200191610b19565b820191906000526020600020905b815481529060010190602001808311610afc57829003601f168201915b50505050508a610f9d565b90508015610b5b5781848681518110610b4057610b3f6118ff565b5b6020026020010181815250508480610b5790611858565b9550505b50508080610b6890611858565b915050610a16565b5060008267ffffffffffffffff811115610b8d57610b8c61192e565b5b604051908082528060200260200182016040528015610bbb5781602001602082028036833780820191505090505b50905060008314610c205760005b83811015610c1e57828181518110610be457610be36118ff565b5b6020026020010151828281518110610bff57610bfe6118ff565b5b6020026020010181815250508080610c1690611858565b915050610bc9565b505b80955050505050505b919050565b610c366110f9565b6000600160003373ffffffffffffffffffffffffffffffffffffffff1673ffffffffffffffffffffffffffffffffffffffff1681526020019081526020016000206000848152602001908152602001600020604051806080016040529081600082018054610ca3906117f5565b80601f0160208091040260200160405190810160405280929190818152602001828054610ccf906117f5565b8015610d1c5780601f10610cf157610100808354040283529160200191610d1c565b820191906000526020600020905b815481529060010190602001808311610cff57829003601f168201915b50505050508152602001600182018054610d35906117f5565b80601f0160208091040260200160405190810160405280929190818152602001828054610d61906117f5565b8015610dae5780601f10610d8357610100808354040283529160200191610dae565b820191906000526020600020905b815481529060010190602001808311610d9157829003601f168201915b50505050508152602001600282018054610dc7906117f5565b80601f0160208091040260200160405190810160405280929190818152602001828054610df3906117f5565b8015610e405780601f10610e1557610100808354040283529160200191610e40565b820191906000526020600020905b815481529060010190602001808311610e2357829003601f168201915b50505050508152602001600382015481525050905080915050919050565b60008060606000806000610e7133610f07565b905060008151905060005b81811015610ef25789838281518110610e9857610e976118ff565b5b602002602001015110158015610ec8575088838281518110610ebd57610ebc6118ff565b5b602002602001015111155b15610edf578480610ed890611858565b9550508093505b8080610eea90611858565b915050610e7c565b50838383965096509650505050509250925092565b60606000808373ffffffffffffffffffffffffffffffffffffffff1673ffffffffffffffffffffffffffffffffffffffff168152602001908152602001600020805480602002602001604051908101604052809291908181526020018280548015610f9157602002820191906000526020600020905b815481526020019060010190808311610f7d575b50505050509050919050565b6000808390506000839050815181511115610fbd576000925050506110f3565b815181511415610fe1578080519060200120828051906020012014925050506110f3565b60005b600182518451610ff49190611775565b610ffe919061171f565b8110156110eb5760006001905060005b83518110156110c35783818151811061102a576110296118ff565b5b602001015160f81c60f81b7effffffffffffffffffffffffffffffffffffffffffffffffffffffffffffff1916858285611064919061171f565b81518110611075576110746118ff565b5b602001015160f81c60f81b7effffffffffffffffffffffffffffffffffffffffffffffffffffffffffffff1916146110b057600091506110c3565b80806110bb90611858565b91505061100e565b5080156110d75760019450505050506110f3565b5080806110e390611858565b915050610fe4565b506000925050505b92915050565b6040518060800160405280606081526020016060815260200160608152602001600081525090565b82805461112d906117f5565b90600052602060002090601f01602090048101928261114f5760008555611196565b82601f1061116857805160ff1916838001178555611196565b82800160010185558215611196579182015b8281111561119557825182559160200191906001019061117a565b5b5090506111a391906111a7565b5090565b5b808211156111c05760008160009055506001016111a8565b5090565b60006111d76111d28461164f565b61162a565b9050828152602081018484840111156111f3576111f2611962565b5b6111fe8482856117b3565b509392505050565b600082601f83011261121b5761121a61195d565b5b813561122b8482602086016111c4565b91505092915050565b60008135905061124381611982565b92915050565b60006020828403121561125f5761125e61196c565b5b600082013567ffffffffffffffff81111561127d5761127c611967565b5b61128984828501611206565b91505092915050565b6000806000606084860312156112ab576112aa61196c565b5b600084013567ffffffffffffffff8111156112c9576112c8611967565b5b6112d586828701611206565b935050602084013567ffffffffffffffff8111156112f6576112f5611967565b5b61130286828701611206565b925050604084013567ffffffffffffffff81111561132357611322611967565b5b61132f86828701611206565b9150509250925092565b600080604083850312156113505761134f61196c565b5b600061135e85828601611234565b925050602061136f85828601611234565b9150509250929050565b6000611385838361148b565b905092915050565b600061139983836114fd565b905092915050565b60006113ac826116a0565b6113b681856116db565b9350836020820285016113c885611680565b8060005b8581101561140457848403895281516113e58582611379565b94506113f0836116c1565b925060208a019950506001810190506113cc565b50829750879550505050505092915050565b6000611421826116ab565b61142b81856116ec565b93508360208202850161143d85611690565b8060005b85811015611479578484038952815161145a858261138d565b9450611465836116ce565b925060208a01995050600181019050611441565b50829750879550505050505092915050565b6000611496826116b6565b6114a081856116fd565b93506114b08185602086016117c2565b6114b981611971565b840191505092915050565b60006114cf826116b6565b6114d9818561170e565b93506114e98185602086016117c2565b6114f281611971565b840191505092915050565b6000608083016000830151848203600086015261151a828261148b565b91505060208301518482036020860152611534828261148b565b9150506040830151848203604086015261154e828261148b565b9150506060830151611563606086018261156e565b508091505092915050565b611577816117a9565b82525050565b611586816117a9565b82525050565b600060208201905081810360008301526115a681846113a1565b905092915050565b600060208201905081810360008301526115c88184611416565b905092915050565b600060808201905081810360008301526115ea81876114c4565b905081810360208301526115fe81866114c4565b9050818103604083015261161281856114c4565b9050611621606083018461157d565b95945050505050565b6000611634611645565b90506116408282611827565b919050565b6000604051905090565b600067ffffffffffffffff82111561166a5761166961192e565b5b61167382611971565b9050602081019050919050565b6000819050602082019050919050565b6000819050602082019050919050565b600081519050919050565b600081519050919050565b600081519050919050565b6000602082019050919050565b6000602082019050919050565b600082825260208201905092915050565b600082825260208201905092915050565b600082825260208201905092915050565b600082825260208201905092915050565b600061172a826117a9565b9150611735836117a9565b9250827fffffffffffffffffffffffffffffffffffffffffffffffffffffffffffffffff0382111561176a576117696118a1565b5b828201905092915050565b6000611780826117a9565b915061178b836117a9565b92508282101561179e5761179d6118a1565b5b828203905092915050565b6000819050919050565b82818337600083830152505050565b60005b838110156117e05780820151818401526020810190506117c5565b838111156117ef576000848401525b50505050565b6000600282049050600182168061180d57607f821691505b60208210811415611821576118206118d0565b5b50919050565b61183082611971565b810181811067ffffffffffffffff8211171561184f5761184e61192e565b5b80604052505050565b6000611863826117a9565b91507fffffffffffffffffffffffffffffffffffffffffffffffffffffffffffffffff821415611896576118956118a1565b5b600182019050919050565b7f4e487b7100000000000000000000000000000000000000000000000000000000600052601160045260246000fd5b7f4e487b7100000000000000000000000000000000000000000000000000000000600052602260045260246000fd5b7f4e487b7100000000000000000000000000000000000000000000000000000000600052603260045260246000fd5b7f4e487b7100000000000000000000000000000000000000000000000000000000600052604160045260246000fd5b600080fd5b600080fd5b600080fd5b600080fd5b6000601f19601f8301169050919050565b61198b816117a9565b811461199657600080fd5b5056fea2646970667358221220d8eb1757b3202054f779d61512e61927b87a367be50cdc1580ca69f37d8955fa64736f6c63430008060033",
			"opcodes": "PUSH1 0x80 PUSH1 0x40 MSTORE CALLVALUE DUP1 ISZERO PUSH2 0x10 JUMPI PUSH1 0x0 DUP1 REVERT JUMPDEST POP PUSH2 0x19CF DUP1 PUSH2 0x20 PUSH1 0x0 CODECOPY PUSH1 0x0 RETURN INVALID PUSH1 0x80 PUSH1 0x40 MSTORE CALLVALUE DUP1 ISZERO PUSH2 0x10 JUMPI PUSH1 0x0 DUP1 REVERT JUMPDEST POP PUSH1 0x4 CALLDATASIZE LT PUSH2 0x57 JUMPI PUSH1 0x0 CALLDATALOAD PUSH1 0xE0 SHR DUP1 PUSH4 0x180F8659 EQ PUSH2 0x5C JUMPI DUP1 PUSH4 0x6CD1A41B EQ PUSH2 0x8C JUMPI DUP1 PUSH4 0x7DD77D2B EQ PUSH2 0xBC JUMPI DUP1 PUSH4 0xA19927E5 EQ PUSH2 0xD8 JUMPI DUP1 PUSH4 0xB9B14CDE EQ PUSH2 0x108 JUMPI JUMPDEST PUSH1 0x0 DUP1 REVERT JUMPDEST PUSH2 0x76 PUSH1 0x4 DUP1 CALLDATASIZE SUB DUP2 ADD SWAP1 PUSH2 0x71 SWAP2 SWAP1 PUSH2 0x1249 JUMP JUMPDEST PUSH2 0x138 JUMP JUMPDEST PUSH1 0x40 MLOAD PUSH2 0x83 SWAP2 SWAP1 PUSH2 0x15AE JUMP JUMPDEST PUSH1 0x40 MLOAD DUP1 SWAP2 SUB SWAP1 RETURN JUMPDEST PUSH2 0xA6 PUSH1 0x4 DUP1 CALLDATASIZE SUB DUP2 ADD SWAP1 PUSH2 0xA1 SWAP2 SWAP1 PUSH2 0x1339 JUMP JUMPDEST PUSH2 0x273 JUMP JUMPDEST PUSH1 0x40 MLOAD PUSH2 0xB3 SWAP2 SWAP1 PUSH2 0x15AE JUMP JUMPDEST PUSH1 0x40 MLOAD DUP1 SWAP2 SUB SWAP1 RETURN JUMPDEST PUSH2 0xD6 PUSH1 0x4 DUP1 CALLDATASIZE SUB DUP2 ADD SWAP1 PUSH2 0xD1 SWAP2 SWAP1 PUSH2 0x1292 JUMP JUMPDEST PUSH2 0x45C JUMP JUMPDEST STOP JUMPDEST PUSH2 0xF2 PUSH1 0x4 DUP1 CALLDATASIZE SUB DUP2 ADD SWAP1 PUSH2 0xED SWAP2 SWAP1 PUSH2 0x1249 JUMP JUMPDEST PUSH2 0x5E4 JUMP JUMPDEST PUSH1 0x40 MLOAD PUSH2 0xFF SWAP2 SWAP1 PUSH2 0x158C JUMP JUMPDEST PUSH1 0x40 MLOAD DUP1 SWAP2 SUB SWAP1 RETURN JUMPDEST PUSH2 0x122 PUSH1 0x4 DUP1 CALLDATASIZE SUB DUP2 ADD SWAP1 PUSH2 0x11D SWAP2 SWAP1 PUSH2 0x1339 JUMP JUMPDEST PUSH2 0x765 JUMP JUMPDEST PUSH1 0x40 MLOAD PUSH2 0x12F SWAP2 SWAP1 PUSH2 0x158C JUMP JUMPDEST PUSH1 0x40 MLOAD DUP1 SWAP2 SUB SWAP1 RETURN JUMPDEST PUSH1 0x60 PUSH1 0x0 PUSH2 0x145 DUP4 PUSH2 0x940 JUMP JUMPDEST SWAP1 POP PUSH1 0x0 DUP2 MLOAD EQ ISZERO PUSH2 0x1AE JUMPI PUSH1 0x0 PUSH8 0xFFFFFFFFFFFFFFFF DUP2 GT ISZERO PUSH2 0x16C JUMPI PUSH2 0x16B PUSH2 0x192E JUMP JUMPDEST JUMPDEST PUSH1 0x40 MLOAD SWAP1 DUP1 DUP3 MSTORE DUP1 PUSH1 0x20 MUL PUSH1 0x20 ADD DUP3 ADD PUSH1 0x40 MSTORE DUP1 ISZERO PUSH2 0x1A5 JUMPI DUP2 PUSH1 0x20 ADD JUMPDEST PUSH2 0x192 PUSH2 0x10F9 JUMP JUMPDEST DUP2 MSTORE PUSH1 0x20 ADD SWAP1 PUSH1 0x1 SWAP1 SUB SWAP1 DUP2 PUSH2 0x18A JUMPI SWAP1 POP JUMPDEST POP SWAP2 POP POP PUSH2 0x26E JUMP JUMPDEST PUSH1 0x0 DUP2 MLOAD PUSH8 0xFFFFFFFFFFFFFFFF DUP2 GT ISZERO PUSH2 0x1CB JUMPI PUSH2 0x1CA PUSH2 0x192E JUMP JUMPDEST JUMPDEST PUSH1 0x40 MLOAD SWAP1 DUP1 DUP3 MSTORE DUP1 PUSH1 0x20 MUL PUSH1 0x20 ADD DUP3 ADD PUSH1 0x40 MSTORE DUP1 ISZERO PUSH2 0x204 JUMPI DUP2 PUSH1 0x20 ADD JUMPDEST PUSH2 0x1F1 PUSH2 0x10F9 JUMP JUMPDEST DUP2 MSTORE PUSH1 0x20 ADD SWAP1 PUSH1 0x1 SWAP1 SUB SWAP1 DUP2 PUSH2 0x1E9 JUMPI SWAP1 POP JUMPDEST POP SWAP1 POP PUSH1 0x0 JUMPDEST DUP3 MLOAD DUP2 LT ISZERO PUSH2 0x267 JUMPI PUSH2 0x236 DUP4 DUP3 DUP2 MLOAD DUP2 LT PUSH2 0x229 JUMPI PUSH2 0x228 PUSH2 0x18FF JUMP JUMPDEST JUMPDEST PUSH1 0x20 MUL PUSH1 0x20 ADD ADD MLOAD PUSH2 0xC2E JUMP JUMPDEST DUP3 DUP3 DUP2 MLOAD DUP2 LT PUSH2 0x249 JUMPI PUSH2 0x248 PUSH2 0x18FF JUMP JUMPDEST JUMPDEST PUSH1 0x20 MUL PUSH1 0x20 ADD ADD DUP2 SWAP1 MSTORE POP DUP1 DUP1 PUSH2 0x25F SWAP1 PUSH2 0x1858 JUMP JUMPDEST SWAP2 POP POP PUSH2 0x20A JUMP JUMPDEST POP DUP1 SWAP3 POP POP POP JUMPDEST SWAP2 SWAP1 POP JUMP JUMPDEST PUSH1 0x60 DUP2 DUP4 GT DUP1 PUSH2 0x283 JUMPI POP PUSH1 0x0 DUP4 LT JUMPDEST DUP1 PUSH2 0x28E JUMPI POP PUSH1 0x0 DUP3 LT JUMPDEST ISZERO PUSH2 0x2EF JUMPI PUSH1 0x0 PUSH8 0xFFFFFFFFFFFFFFFF DUP2 GT ISZERO PUSH2 0x2AE JUMPI PUSH2 0x2AD PUSH2 0x192E JUMP JUMPDEST JUMPDEST PUSH1 0x40 MLOAD SWAP1 DUP1 DUP3 MSTORE DUP1 PUSH1 0x20 MUL PUSH1 0x20 ADD DUP3 ADD PUSH1 0x40 MSTORE DUP1 ISZERO PUSH2 0x2E7 JUMPI DUP2 PUSH1 0x20 ADD JUMPDEST PUSH2 0x2D4 PUSH2 0x10F9 JUMP JUMPDEST DUP2 MSTORE PUSH1 0x20 ADD SWAP1 PUSH1 0x1 SWAP1 SUB SWAP1 DUP2 PUSH2 0x2CC JUMPI SWAP1 POP JUMPDEST POP SWAP1 POP PUSH2 0x456 JUMP JUMPDEST PUSH1 0x0 DUP1 PUSH1 0x0 PUSH2 0x2FE DUP7 DUP7 PUSH2 0xE5E JUMP JUMPDEST SWAP3 POP SWAP3 POP SWAP3 POP PUSH1 0x0 DUP4 EQ PUSH2 0x3FB JUMPI PUSH1 0x1 DUP3 PUSH2 0x319 SWAP2 SWAP1 PUSH2 0x171F JUMP JUMPDEST SWAP2 POP PUSH1 0x0 DUP1 DUP5 PUSH8 0xFFFFFFFFFFFFFFFF DUP2 GT ISZERO PUSH2 0x338 JUMPI PUSH2 0x337 PUSH2 0x192E JUMP JUMPDEST JUMPDEST PUSH1 0x40 MLOAD SWAP1 DUP1 DUP3 MSTORE DUP1 PUSH1 0x20 MUL PUSH1 0x20 ADD DUP3 ADD PUSH1 0x40 MSTORE DUP1 ISZERO PUSH2 0x371 JUMPI DUP2 PUSH1 0x20 ADD JUMPDEST PUSH2 0x35E PUSH2 0x10F9 JUMP JUMPDEST DUP2 MSTORE PUSH1 0x20 ADD SWAP1 PUSH1 0x1 SWAP1 SUB SWAP1 DUP2 PUSH2 0x356 JUMPI SWAP1 POP JUMPDEST POP SWAP1 POP PUSH1 0x0 DUP6 DUP6 PUSH2 0x382 SWAP2 SWAP1 PUSH2 0x1775 JUMP JUMPDEST SWAP1 POP JUMPDEST DUP5 DUP2 LT ISZERO PUSH2 0x3ED JUMPI PUSH2 0x3B0 DUP5 DUP3 DUP2 MLOAD DUP2 LT PUSH2 0x3A3 JUMPI PUSH2 0x3A2 PUSH2 0x18FF JUMP JUMPDEST JUMPDEST PUSH1 0x20 MUL PUSH1 0x20 ADD ADD MLOAD PUSH2 0xC2E JUMP JUMPDEST DUP3 DUP5 DUP1 PUSH2 0x3BC SWAP1 PUSH2 0x1858 JUMP JUMPDEST SWAP6 POP DUP2 MLOAD DUP2 LT PUSH2 0x3CF JUMPI PUSH2 0x3CE PUSH2 0x18FF JUMP JUMPDEST JUMPDEST PUSH1 0x20 MUL PUSH1 0x20 ADD ADD DUP2 SWAP1 MSTORE POP DUP1 DUP1 PUSH2 0x3E5 SWAP1 PUSH2 0x1858 JUMP JUMPDEST SWAP2 POP POP PUSH2 0x385 JUMP JUMPDEST POP DUP1 SWAP6 POP POP POP POP POP POP PUSH2 0x456 JUMP JUMPDEST PUSH1 0x0 PUSH8 0xFFFFFFFFFFFFFFFF DUP2 GT ISZERO PUSH2 0x416 JUMPI PUSH2 0x415 PUSH2 0x192E JUMP JUMPDEST JUMPDEST PUSH1 0x40 MLOAD SWAP1 DUP1 DUP3 MSTORE DUP1 PUSH1 0x20 MUL PUSH1 0x20 ADD DUP3 ADD PUSH1 0x40 MSTORE DUP1 ISZERO PUSH2 0x44F JUMPI DUP2 PUSH1 0x20 ADD JUMPDEST PUSH2 0x43C PUSH2 0x10F9 JUMP JUMPDEST DUP2 MSTORE PUSH1 0x20 ADD SWAP1 PUSH1 0x1 SWAP1 SUB SWAP1 DUP2 PUSH2 0x434 JUMPI SWAP1 POP JUMPDEST POP SWAP4 POP POP POP POP JUMPDEST SWAP3 SWAP2 POP POP JUMP JUMPDEST PUSH1 0x0 TIMESTAMP SWAP1 POP PUSH1 0x0 CALLER SWAP1 POP PUSH1 0x40 MLOAD DUP1 PUSH1 0x80 ADD PUSH1 0x40 MSTORE DUP1 DUP7 DUP2 MSTORE PUSH1 0x20 ADD DUP6 DUP2 MSTORE PUSH1 0x20 ADD DUP5 DUP2 MSTORE PUSH1 0x20 ADD DUP4 DUP2 MSTORE POP PUSH1 0x1 PUSH1 0x0 DUP4 PUSH20 0xFFFFFFFFFFFFFFFFFFFFFFFFFFFFFFFFFFFFFFFF AND PUSH20 0xFFFFFFFFFFFFFFFFFFFFFFFFFFFFFFFFFFFFFFFF AND DUP2 MSTORE PUSH1 0x20 ADD SWAP1 DUP2 MSTORE PUSH1 0x20 ADD PUSH1 0x0 KECCAK256 PUSH1 0x0 DUP5 DUP2 MSTORE PUSH1 0x20 ADD SWAP1 DUP2 MSTORE PUSH1 0x20 ADD PUSH1 0x0 KECCAK256 PUSH1 0x0 DUP3 ADD MLOAD DUP2 PUSH1 0x0 ADD SWAP1 DUP1 MLOAD SWAP1 PUSH1 0x20 ADD SWAP1 PUSH2 0x4F3 SWAP3 SWAP2 SWAP1 PUSH2 0x1121 JUMP JUMPDEST POP PUSH1 0x20 DUP3 ADD MLOAD DUP2 PUSH1 0x1 ADD SWAP1 DUP1 MLOAD SWAP1 PUSH1 0x20 ADD SWAP1 PUSH2 0x510 SWAP3 SWAP2 SWAP1 PUSH2 0x1121 JUMP JUMPDEST POP PUSH1 0x40 DUP3 ADD MLOAD DUP2 PUSH1 0x2 ADD SWAP1 DUP1 MLOAD SWAP1 PUSH1 0x20 ADD SWAP1 PUSH2 0x52D SWAP3 SWAP2 SWAP1 PUSH2 0x1121 JUMP JUMPDEST POP PUSH1 0x60 DUP3 ADD MLOAD DUP2 PUSH1 0x3 ADD SSTORE SWAP1 POP POP PUSH1 0x0 DUP1 DUP3 PUSH20 0xFFFFFFFFFFFFFFFFFFFFFFFFFFFFFFFFFFFFFFFF AND PUSH20 0xFFFFFFFFFFFFFFFFFFFFFFFFFFFFFFFFFFFFFFFF AND DUP2 MSTORE PUSH1 0x20 ADD SWAP1 DUP2 MSTORE PUSH1 0x20 ADD PUSH1 0x0 KECCAK256 DUP3 SWAP1 DUP1 PUSH1 0x1 DUP2 SLOAD ADD DUP1 DUP3 SSTORE DUP1 SWAP2 POP POP PUSH1 0x1 SWAP1 SUB SWAP1 PUSH1 0x0 MSTORE PUSH1 0x20 PUSH1 0x0 KECCAK256 ADD PUSH1 0x0 SWAP1 SWAP2 SWAP1 SWAP2 SWAP1 SWAP2 POP SSTORE PUSH32 0x3EB6203E7481B952E95D0D84928ACB339E122BBF1B504171999C91E828D1ACA1 DUP6 DUP6 DUP6 DUP6 PUSH1 0x40 MLOAD PUSH2 0x5D5 SWAP5 SWAP4 SWAP3 SWAP2 SWAP1 PUSH2 0x15D0 JUMP JUMPDEST PUSH1 0x40 MLOAD DUP1 SWAP2 SUB SWAP1 LOG1 POP POP POP POP POP JUMP JUMPDEST PUSH1 0x60 PUSH1 0x0 PUSH2 0x5F1 DUP4 PUSH2 0x940 JUMP JUMPDEST SWAP1 POP PUSH1 0x0 DUP2 MLOAD EQ ISZERO PUSH2 0x654 JUMPI PUSH1 0x0 PUSH8 0xFFFFFFFFFFFFFFFF DUP2 GT ISZERO PUSH2 0x618 JUMPI PUSH2 0x617 PUSH2 0x192E JUMP JUMPDEST JUMPDEST PUSH1 0x40 MLOAD SWAP1 DUP1 DUP3 MSTORE DUP1 PUSH1 0x20 MUL PUSH1 0x20 ADD DUP3 ADD PUSH1 0x40 MSTORE DUP1 ISZERO PUSH2 0x64B JUMPI DUP2 PUSH1 0x20 ADD JUMPDEST PUSH1 0x60 DUP2 MSTORE PUSH1 0x20 ADD SWAP1 PUSH1 0x1 SWAP1 SUB SWAP1 DUP2 PUSH2 0x636 JUMPI SWAP1 POP JUMPDEST POP SWAP2 POP POP PUSH2 0x760 JUMP JUMPDEST PUSH1 0x0 DUP2 MLOAD PUSH8 0xFFFFFFFFFFFFFFFF DUP2 GT ISZERO PUSH2 0x671 JUMPI PUSH2 0x670 PUSH2 0x192E JUMP JUMPDEST JUMPDEST PUSH1 0x40 MLOAD SWAP1 DUP1 DUP3 MSTORE DUP1 PUSH1 0x20 MUL PUSH1 0x20 ADD DUP3 ADD PUSH1 0x40 MSTORE DUP1 ISZERO PUSH2 0x6A4 JUMPI DUP2 PUSH1 0x20 ADD JUMPDEST PUSH1 0x60 DUP2 MSTORE PUSH1 0x20 ADD SWAP1 PUSH1 0x1 SWAP1 SUB SWAP1 DUP2 PUSH2 0x68F JUMPI SWAP1 POP JUMPDEST POP SWAP1 POP PUSH1 0x0 JUMPDEST DUP3 MLOAD DUP2 LT ISZERO PUSH2 0x70B JUMPI PUSH2 0x6D6 DUP4 DUP3 DUP2 MLOAD DUP2 LT PUSH2 0x6C9 JUMPI PUSH2 0x6C8 PUSH2 0x18FF JUMP JUMPDEST JUMPDEST PUSH1 0x20 MUL PUSH1 0x20 ADD ADD MLOAD PUSH2 0xC2E JUMP JUMPDEST PUSH1 0x0 ADD MLOAD DUP3 DUP3 DUP2 MLOAD DUP2 LT PUSH2 0x6ED JUMPI PUSH2 0x6EC PUSH2 0x18FF JUMP JUMPDEST JUMPDEST PUSH1 0x20 MUL PUSH1 0x20 ADD ADD DUP2 SWAP1 MSTORE POP DUP1 DUP1 PUSH2 0x703 SWAP1 PUSH2 0x1858 JUMP JUMPDEST SWAP2 POP POP PUSH2 0x6AA JUMP JUMPDEST POP PUSH1 0x0 PUSH8 0xFFFFFFFFFFFFFFFF DUP2 GT ISZERO PUSH2 0x727 JUMPI PUSH2 0x726 PUSH2 0x192E JUMP JUMPDEST JUMPDEST PUSH1 0x40 MLOAD SWAP1 DUP1 DUP3 MSTORE DUP1 PUSH1 0x20 MUL PUSH1 0x20 ADD DUP3 ADD PUSH1 0x40 MSTORE DUP1 ISZERO PUSH2 0x75A JUMPI DUP2 PUSH1 0x20 ADD JUMPDEST PUSH1 0x60 DUP2 MSTORE PUSH1 0x20 ADD SWAP1 PUSH1 0x1 SWAP1 SUB SWAP1 DUP2 PUSH2 0x745 JUMPI SWAP1 POP JUMPDEST POP SWAP3 POP POP POP JUMPDEST SWAP2 SWAP1 POP JUMP JUMPDEST PUSH1 0x60 DUP2 DUP4 GT DUP1 PUSH2 0x775 JUMPI POP PUSH1 0x0 DUP4 LT JUMPDEST DUP1 PUSH2 0x780 JUMPI POP PUSH1 0x0 DUP3 LT JUMPDEST ISZERO PUSH2 0x7DB JUMPI PUSH1 0x0 PUSH8 0xFFFFFFFFFFFFFFFF DUP2 GT ISZERO PUSH2 0x7A0 JUMPI PUSH2 0x79F PUSH2 0x192E JUMP JUMPDEST JUMPDEST PUSH1 0x40 MLOAD SWAP1 DUP1 DUP3 MSTORE DUP1 PUSH1 0x20 MUL PUSH1 0x20 ADD DUP3 ADD PUSH1 0x40 MSTORE DUP1 ISZERO PUSH2 0x7D3 JUMPI DUP2 PUSH1 0x20 ADD JUMPDEST PUSH1 0x60 DUP2 MSTORE PUSH1 0x20 ADD SWAP1 PUSH1 0x1 SWAP1 SUB SWAP1 DUP2 PUSH2 0x7BE JUMPI SWAP1 POP JUMPDEST POP SWAP1 POP PUSH2 0x93A JUMP JUMPDEST PUSH1 0x0 DUP1 PUSH1 0x0 PUSH2 0x7EA DUP7 DUP7 PUSH2 0xE5E JUMP JUMPDEST SWAP3 POP SWAP3 POP SWAP3 POP PUSH1 0x0 DUP4 EQ PUSH2 0x8E5 JUMPI PUSH1 0x1 DUP3 PUSH2 0x805 SWAP2 SWAP1 PUSH2 0x171F JUMP JUMPDEST SWAP2 POP PUSH1 0x0 DUP1 DUP5 PUSH8 0xFFFFFFFFFFFFFFFF DUP2 GT ISZERO PUSH2 0x824 JUMPI PUSH2 0x823 PUSH2 0x192E JUMP JUMPDEST JUMPDEST PUSH1 0x40 MLOAD SWAP1 DUP1 DUP3 MSTORE DUP1 PUSH1 0x20 MUL PUSH1 0x20 ADD DUP3 ADD PUSH1 0x40 MSTORE DUP1 ISZERO PUSH2 0x857 JUMPI DUP2 PUSH1 0x20 ADD JUMPDEST PUSH1 0x60 DUP2 MSTORE PUSH1 0x20 ADD SWAP1 PUSH1 0x1 SWAP1 SUB SWAP1 DUP2 PUSH2 0x842 JUMPI SWAP1 POP JUMPDEST POP SWAP1 POP PUSH1 0x0 DUP6 DUP6 PUSH2 0x868 SWAP2 SWAP1 PUSH2 0x1775 JUMP JUMPDEST SWAP1 POP JUMPDEST DUP5 DUP2 LT ISZERO PUSH2 0x8D7 JUMPI PUSH2 0x896 DUP5 DUP3 DUP2 MLOAD DUP2 LT PUSH2 0x889 JUMPI PUSH2 0x888 PUSH2 0x18FF JUMP JUMPDEST JUMPDEST PUSH1 0x20 MUL PUSH1 0x20 ADD ADD MLOAD PUSH2 0xC2E JUMP JUMPDEST PUSH1 0x0 ADD MLOAD DUP3 DUP5 DUP1 PUSH2 0x8A6 SWAP1 PUSH2 0x1858 JUMP JUMPDEST SWAP6 POP DUP2 MLOAD DUP2 LT PUSH2 0x8B9 JUMPI PUSH2 0x8B8 PUSH2 0x18FF JUMP JUMPDEST JUMPDEST PUSH1 0x20 MUL PUSH1 0x20 ADD ADD DUP2 SWAP1 MSTORE POP DUP1 DUP1 PUSH2 0x8CF SWAP1 PUSH2 0x1858 JUMP JUMPDEST SWAP2 POP POP PUSH2 0x86B JUMP JUMPDEST POP DUP1 SWAP6 POP POP POP POP POP POP PUSH2 0x93A JUMP JUMPDEST PUSH1 0x0 PUSH8 0xFFFFFFFFFFFFFFFF DUP2 GT ISZERO PUSH2 0x900 JUMPI PUSH2 0x8FF PUSH2 0x192E JUMP JUMPDEST JUMPDEST PUSH1 0x40 MLOAD SWAP1 DUP1 DUP3 MSTORE DUP1 PUSH1 0x20 MUL PUSH1 0x20 ADD DUP3 ADD PUSH1 0x40 MSTORE DUP1 ISZERO PUSH2 0x933 JUMPI DUP2 PUSH1 0x20 ADD JUMPDEST PUSH1 0x60 DUP2 MSTORE PUSH1 0x20 ADD SWAP1 PUSH1 0x1 SWAP1 SUB SWAP1 DUP2 PUSH2 0x91E JUMPI SWAP1 POP JUMPDEST POP SWAP4 POP POP POP POP JUMPDEST SWAP3 SWAP2 POP POP JUMP JUMPDEST PUSH1 0x60 PUSH1 0x0 PUSH2 0x94D CALLER PUSH2 0xF07 JUMP JUMPDEST SWAP1 POP PUSH1 0x0 DUP2 MLOAD SWAP1 POP PUSH1 0x0 DUP2 EQ ISZERO PUSH2 0x9B1 JUMPI PUSH1 0x0 PUSH8 0xFFFFFFFFFFFFFFFF DUP2 GT ISZERO PUSH2 0x979 JUMPI PUSH2 0x978 PUSH2 0x192E JUMP JUMPDEST JUMPDEST PUSH1 0x40 MLOAD SWAP1 DUP1 DUP3 MSTORE DUP1 PUSH1 0x20 MUL PUSH1 0x20 ADD DUP3 ADD PUSH1 0x40 MSTORE DUP1 ISZERO PUSH2 0x9A7 JUMPI DUP2 PUSH1 0x20 ADD PUSH1 0x20 DUP3 MUL DUP1 CALLDATASIZE DUP4 CALLDATACOPY DUP1 DUP3 ADD SWAP2 POP POP SWAP1 POP JUMPDEST POP SWAP3 POP POP POP PUSH2 0xC29 JUMP JUMPDEST PUSH1 0x0 DUP5 MLOAD EQ ISZERO PUSH2 0x9C5 JUMPI DUP2 SWAP3 POP POP POP PUSH2 0xC29 JUMP JUMPDEST PUSH1 0x0 DUP1 DUP3 PUSH8 0xFFFFFFFFFFFFFFFF DUP2 GT ISZERO PUSH2 0x9E2 JUMPI PUSH2 0x9E1 PUSH2 0x192E JUMP JUMPDEST JUMPDEST PUSH1 0x40 MLOAD SWAP1 DUP1 DUP3 MSTORE DUP1 PUSH1 0x20 MUL PUSH1 0x20 ADD DUP3 ADD PUSH1 0x40 MSTORE DUP1 ISZERO PUSH2 0xA10 JUMPI DUP2 PUSH1 0x20 ADD PUSH1 0x20 DUP3 MUL DUP1 CALLDATASIZE DUP4 CALLDATACOPY DUP1 DUP3 ADD SWAP2 POP POP SWAP1 POP JUMPDEST POP SWAP1 POP PUSH1 0x0 JUMPDEST DUP4 DUP2 LT ISZERO PUSH2 0xB70 JUMPI PUSH1 0x0 DUP6 DUP3 DUP2 MLOAD DUP2 LT PUSH2 0xA33 JUMPI PUSH2 0xA32 PUSH2 0x18FF JUMP JUMPDEST JUMPDEST PUSH1 0x20 MUL PUSH1 0x20 ADD ADD MLOAD SWAP1 POP PUSH1 0x0 PUSH2 0xB24 PUSH1 0x1 PUSH1 0x0 CALLER PUSH20 0xFFFFFFFFFFFFFFFFFFFFFFFFFFFFFFFFFFFFFFFF AND PUSH20 0xFFFFFFFFFFFFFFFFFFFFFFFFFFFFFFFFFFFFFFFF AND DUP2 MSTORE PUSH1 0x20 ADD SWAP1 DUP2 MSTORE PUSH1 0x20 ADD PUSH1 0x0 KECCAK256 PUSH1 0x0 DUP5 DUP2 MSTORE PUSH1 0x20 ADD SWAP1 DUP2 MSTORE PUSH1 0x20 ADD PUSH1 0x0 KECCAK256 PUSH1 0x0 ADD DUP1 SLOAD PUSH2 0xAA0 SWAP1 PUSH2 0x17F5 JUMP JUMPDEST DUP1 PUSH1 0x1F ADD PUSH1 0x20 DUP1 SWAP2 DIV MUL PUSH1 0x20 ADD PUSH1 0x40 MLOAD SWAP1 DUP2 ADD PUSH1 0x40 MSTORE DUP1 SWAP3 SWAP2 SWAP1 DUP2 DUP2 MSTORE PUSH1 0x20 ADD DUP3 DUP1 SLOAD PUSH2 0xACC SWAP1 PUSH2 0x17F5 JUMP JUMPDEST DUP1 ISZERO PUSH2 0xB19 JUMPI DUP1 PUSH1 0x1F LT PUSH2 0xAEE JUMPI PUSH2 0x100 DUP1 DUP4 SLOAD DIV MUL DUP4 MSTORE SWAP2 PUSH1 0x20 ADD SWAP2 PUSH2 0xB19 JUMP JUMPDEST DUP3 ADD SWAP2 SWAP1 PUSH1 0x0 MSTORE PUSH1 0x20 PUSH1 0x0 KECCAK256 SWAP1 JUMPDEST DUP2 SLOAD DUP2 MSTORE SWAP1 PUSH1 0x1 ADD SWAP1 PUSH1 0x20 ADD DUP1 DUP4 GT PUSH2 0xAFC JUMPI DUP3 SWAP1 SUB PUSH1 0x1F AND DUP3 ADD SWAP2 JUMPDEST POP POP POP POP POP DUP11 PUSH2 0xF9D JUMP JUMPDEST SWAP1 POP DUP1 ISZERO PUSH2 0xB5B JUMPI DUP2 DUP5 DUP7 DUP2 MLOAD DUP2 LT PUSH2 0xB40 JUMPI PUSH2 0xB3F PUSH2 0x18FF JUMP JUMPDEST JUMPDEST PUSH1 0x20 MUL PUSH1 0x20 ADD ADD DUP2 DUP2 MSTORE POP POP DUP5 DUP1 PUSH2 0xB57 SWAP1 PUSH2 0x1858 JUMP JUMPDEST SWAP6 POP POP JUMPDEST POP POP DUP1 DUP1 PUSH2 0xB68 SWAP1 PUSH2 0x1858 JUMP JUMPDEST SWAP2 POP POP PUSH2 0xA16 JUMP JUMPDEST POP PUSH1 0x0 DUP3 PUSH8 0xFFFFFFFFFFFFFFFF DUP2 GT ISZERO PUSH2 0xB8D JUMPI PUSH2 0xB8C PUSH2 0x192E JUMP JUMPDEST JUMPDEST PUSH1 0x40 MLOAD SWAP1 DUP1 DUP3 MSTORE DUP1 PUSH1 0x20 MUL PUSH1 0x20 ADD DUP3 ADD PUSH1 0x40 MSTORE DUP1 ISZERO PUSH2 0xBBB JUMPI DUP2 PUSH1 0x20 ADD PUSH1 0x20 DUP3 MUL DUP1 CALLDATASIZE DUP4 CALLDATACOPY DUP1 DUP3 ADD SWAP2 POP POP SWAP1 POP JUMPDEST POP SWAP1 POP PUSH1 0x0 DUP4 EQ PUSH2 0xC20 JUMPI PUSH1 0x0 JUMPDEST DUP4 DUP2 LT ISZERO PUSH2 0xC1E JUMPI DUP3 DUP2 DUP2 MLOAD DUP2 LT PUSH2 0xBE4 JUMPI PUSH2 0xBE3 PUSH2 0x18FF JUMP JUMPDEST JUMPDEST PUSH1 0x20 MUL PUSH1 0x20 ADD ADD MLOAD DUP3 DUP3 DUP2 MLOAD DUP2 LT PUSH2 0xBFF JUMPI PUSH2 0xBFE PUSH2 0x18FF JUMP JUMPDEST JUMPDEST PUSH1 0x20 MUL PUSH1 0x20 ADD ADD DUP2 DUP2 MSTORE POP POP DUP1 DUP1 PUSH2 0xC16 SWAP1 PUSH2 0x1858 JUMP JUMPDEST SWAP2 POP POP PUSH2 0xBC9 JUMP JUMPDEST POP JUMPDEST DUP1 SWAP6 POP POP POP POP POP POP JUMPDEST SWAP2 SWAP1 POP JUMP JUMPDEST PUSH2 0xC36 PUSH2 0x10F9 JUMP JUMPDEST PUSH1 0x0 PUSH1 0x1 PUSH1 0x0 CALLER PUSH20 0xFFFFFFFFFFFFFFFFFFFFFFFFFFFFFFFFFFFFFFFF AND PUSH20 0xFFFFFFFFFFFFFFFFFFFFFFFFFFFFFFFFFFFFFFFF AND DUP2 MSTORE PUSH1 0x20 ADD SWAP1 DUP2 MSTORE PUSH1 0x20 ADD PUSH1 0x0 KECCAK256 PUSH1 0x0 DUP5 DUP2 MSTORE PUSH1 0x20 ADD SWAP1 DUP2 MSTORE PUSH1 0x20 ADD PUSH1 0x0 KECCAK256 PUSH1 0x40 MLOAD DUP1 PUSH1 0x80 ADD PUSH1 0x40 MSTORE SWAP1 DUP2 PUSH1 0x0 DUP3 ADD DUP1 SLOAD PUSH2 0xCA3 SWAP1 PUSH2 0x17F5 JUMP JUMPDEST DUP1 PUSH1 0x1F ADD PUSH1 0x20 DUP1 SWAP2 DIV MUL PUSH1 0x20 ADD PUSH1 0x40 MLOAD SWAP1 DUP2 ADD PUSH1 0x40 MSTORE DUP1 SWAP3 SWAP2 SWAP1 DUP2 DUP2 MSTORE PUSH1 0x20 ADD DUP3 DUP1 SLOAD PUSH2 0xCCF SWAP1 PUSH2 0x17F5 JUMP JUMPDEST DUP1 ISZERO PUSH2 0xD1C JUMPI DUP1 PUSH1 0x1F LT PUSH2 0xCF1 JUMPI PUSH2 0x100 DUP1 DUP4 SLOAD DIV MUL DUP4 MSTORE SWAP2 PUSH1 0x20 ADD SWAP2 PUSH2 0xD1C JUMP JUMPDEST DUP3 ADD SWAP2 SWAP1 PUSH1 0x0 MSTORE PUSH1 0x20 PUSH1 0x0 KECCAK256 SWAP1 JUMPDEST DUP2 SLOAD DUP2 MSTORE SWAP1 PUSH1 0x1 ADD SWAP1 PUSH1 0x20 ADD DUP1 DUP4 GT PUSH2 0xCFF JUMPI DUP3 SWAP1 SUB PUSH1 0x1F AND DUP3 ADD SWAP2 JUMPDEST POP POP POP POP POP DUP2 MSTORE PUSH1 0x20 ADD PUSH1 0x1 DUP3 ADD DUP1 SLOAD PUSH2 0xD35 SWAP1 PUSH2 0x17F5 JUMP JUMPDEST DUP1 PUSH1 0x1F ADD PUSH1 0x20 DUP1 SWAP2 DIV MUL PUSH1 0x20 ADD PUSH1 0x40 MLOAD SWAP1 DUP2 ADD PUSH1 0x40 MSTORE DUP1 SWAP3 SWAP2 SWAP1 DUP2 DUP2 MSTORE PUSH1 0x20 ADD DUP3 DUP1 SLOAD PUSH2 0xD61 SWAP1 PUSH2 0x17F5 JUMP JUMPDEST DUP1 ISZERO PUSH2 0xDAE JUMPI DUP1 PUSH1 0x1F LT PUSH2 0xD83 JUMPI PUSH2 0x100 DUP1 DUP4 SLOAD DIV MUL DUP4 MSTORE SWAP2 PUSH1 0x20 ADD SWAP2 PUSH2 0xDAE JUMP JUMPDEST DUP3 ADD SWAP2 SWAP1 PUSH1 0x0 MSTORE PUSH1 0x20 PUSH1 0x0 KECCAK256 SWAP1 JUMPDEST DUP2 SLOAD DUP2 MSTORE SWAP1 PUSH1 0x1 ADD SWAP1 PUSH1 0x20 ADD DUP1 DUP4 GT PUSH2 0xD91 JUMPI DUP3 SWAP1 SUB PUSH1 0x1F AND DUP3 ADD SWAP2 JUMPDEST POP POP POP POP POP DUP2 MSTORE PUSH1 0x20 ADD PUSH1 0x2 DUP3 ADD DUP1 SLOAD PUSH2 0xDC7 SWAP1 PUSH2 0x17F5 JUMP JUMPDEST DUP1 PUSH1 0x1F ADD PUSH1 0x20 DUP1 SWAP2 DIV MUL PUSH1 0x20 ADD PUSH1 0x40 MLOAD SWAP1 DUP2 ADD PUSH1 0x40 MSTORE DUP1 SWAP3 SWAP2 SWAP1 DUP2 DUP2 MSTORE PUSH1 0x20 ADD DUP3 DUP1 SLOAD PUSH2 0xDF3 SWAP1 PUSH2 0x17F5 JUMP JUMPDEST DUP1 ISZERO PUSH2 0xE40 JUMPI DUP1 PUSH1 0x1F LT PUSH2 0xE15 JUMPI PUSH2 0x100 DUP1 DUP4 SLOAD DIV MUL DUP4 MSTORE SWAP2 PUSH1 0x20 ADD SWAP2 PUSH2 0xE40 JUMP JUMPDEST DUP3 ADD SWAP2 SWAP1 PUSH1 0x0 MSTORE PUSH1 0x20 PUSH1 0x0 KECCAK256 SWAP1 JUMPDEST DUP2 SLOAD DUP2 MSTORE SWAP1 PUSH1 0x1 ADD SWAP1 PUSH1 0x20 ADD DUP1 DUP4 GT PUSH2 0xE23 JUMPI DUP3 SWAP1 SUB PUSH1 0x1F AND DUP3 ADD SWAP2 JUMPDEST POP POP POP POP POP DUP2 MSTORE PUSH1 0x20 ADD PUSH1 0x3 DUP3 ADD SLOAD DUP2 MSTORE POP POP SWAP1 POP DUP1 SWAP2 POP POP SWAP2 SWAP1 POP JUMP JUMPDEST PUSH1 0x0 DUP1 PUSH1 0x60 PUSH1 0x0 DUP1 PUSH1 0x0 PUSH2 0xE71 CALLER PUSH2 0xF07 JUMP JUMPDEST SWAP1 POP PUSH1 0x0 DUP2 MLOAD SWAP1 POP PUSH1 0x0 JUMPDEST DUP2 DUP2 LT ISZERO PUSH2 0xEF2 JUMPI DUP10 DUP4 DUP3 DUP2 MLOAD DUP2 LT PUSH2 0xE98 JUMPI PUSH2 0xE97 PUSH2 0x18FF JUMP JUMPDEST JUMPDEST PUSH1 0x20 MUL PUSH1 0x20 ADD ADD MLOAD LT ISZERO DUP1 ISZERO PUSH2 0xEC8 JUMPI POP DUP9 DUP4 DUP3 DUP2 MLOAD DUP2 LT PUSH2 0xEBD JUMPI PUSH2 0xEBC PUSH2 0x18FF JUMP JUMPDEST JUMPDEST PUSH1 0x20 MUL PUSH1 0x20 ADD ADD MLOAD GT ISZERO JUMPDEST ISZERO PUSH2 0xEDF JUMPI DUP5 DUP1 PUSH2 0xED8 SWAP1 PUSH2 0x1858 JUMP JUMPDEST SWAP6 POP POP DUP1 SWAP4 POP JUMPDEST DUP1 DUP1 PUSH2 0xEEA SWAP1 PUSH2 0x1858 JUMP JUMPDEST SWAP2 POP POP PUSH2 0xE7C JUMP JUMPDEST POP DUP4 DUP4 DUP4 SWAP7 POP SWAP7 POP SWAP7 POP POP POP POP POP SWAP3 POP SWAP3 POP SWAP3 JUMP JUMPDEST PUSH1 0x60 PUSH1 0x0 DUP1 DUP4 PUSH20 0xFFFFFFFFFFFFFFFFFFFFFFFFFFFFFFFFFFFFFFFF AND PUSH20 0xFFFFFFFFFFFFFFFFFFFFFFFFFFFFFFFFFFFFFFFF AND DUP2 MSTORE PUSH1 0x20 ADD SWAP1 DUP2 MSTORE PUSH1 0x20 ADD PUSH1 0x0 KECCAK256 DUP1 SLOAD DUP1 PUSH1 0x20 MUL PUSH1 0x20 ADD PUSH1 0x40 MLOAD SWAP1 DUP2 ADD PUSH1 0x40 MSTORE DUP1 SWAP3 SWAP2 SWAP1 DUP2 DUP2 MSTORE PUSH1 0x20 ADD DUP3 DUP1 SLOAD DUP1 ISZERO PUSH2 0xF91 JUMPI PUSH1 0x20 MUL DUP3 ADD SWAP2 SWAP1 PUSH1 0x0 MSTORE PUSH1 0x20 PUSH1 0x0 KECCAK256 SWAP1 JUMPDEST DUP2 SLOAD DUP2 MSTORE PUSH1 0x20 ADD SWAP1 PUSH1 0x1 ADD SWAP1 DUP1 DUP4 GT PUSH2 0xF7D JUMPI JUMPDEST POP POP POP POP POP SWAP1 POP SWAP2 SWAP1 POP JUMP JUMPDEST PUSH1 0x0 DUP1 DUP4 SWAP1 POP PUSH1 0x0 DUP4 SWAP1 POP DUP2 MLOAD DUP2 MLOAD GT ISZERO PUSH2 0xFBD JUMPI PUSH1 0x0 SWAP3 POP POP POP PUSH2 0x10F3 JUMP JUMPDEST DUP2 MLOAD DUP2 MLOAD EQ ISZERO PUSH2 0xFE1 JUMPI DUP1 DUP1 MLOAD SWAP1 PUSH1 0x20 ADD KECCAK256 DUP3 DUP1 MLOAD SWAP1 PUSH1 0x20 ADD KECCAK256 EQ SWAP3 POP POP POP PUSH2 0x10F3 JUMP JUMPDEST PUSH1 0x0 JUMPDEST PUSH1 0x1 DUP3 MLOAD DUP5 MLOAD PUSH2 0xFF4 SWAP2 SWAP1 PUSH2 0x1775 JUMP JUMPDEST PUSH2 0xFFE SWAP2 SWAP1 PUSH2 0x171F JUMP JUMPDEST DUP2 LT ISZERO PUSH2 0x10EB JUMPI PUSH1 0x0 PUSH1 0x1 SWAP1 POP PUSH1 0x0 JUMPDEST DUP4 MLOAD DUP2 LT ISZERO PUSH2 0x10C3 JUMPI DUP4 DUP2 DUP2 MLOAD DUP2 LT PUSH2 0x102A JUMPI PUSH2 0x1029 PUSH2 0x18FF JUMP JUMPDEST JUMPDEST PUSH1 0x20 ADD ADD MLOAD PUSH1 0xF8 SHR PUSH1 0xF8 SHL PUSH31 0xFFFFFFFFFFFFFFFFFFFFFFFFFFFFFFFFFFFFFFFFFFFFFFFFFFFFFFFFFFFFFF NOT AND DUP6 DUP3 DUP6 PUSH2 0x1064 SWAP2 SWAP1 PUSH2 0x171F JUMP JUMPDEST DUP2 MLOAD DUP2 LT PUSH2 0x1075 JUMPI PUSH2 0x1074 PUSH2 0x18FF JUMP JUMPDEST JUMPDEST PUSH1 0x20 ADD ADD MLOAD PUSH1 0xF8 SHR PUSH1 0xF8 SHL PUSH31 0xFFFFFFFFFFFFFFFFFFFFFFFFFFFFFFFFFFFFFFFFFFFFFFFFFFFFFFFFFFFFFF NOT AND EQ PUSH2 0x10B0 JUMPI PUSH1 0x0 SWAP2 POP PUSH2 0x10C3 JUMP JUMPDEST DUP1 DUP1 PUSH2 0x10BB SWAP1 PUSH2 0x1858 JUMP JUMPDEST SWAP2 POP POP PUSH2 0x100E JUMP JUMPDEST POP DUP1 ISZERO PUSH2 0x10D7 JUMPI PUSH1 0x1 SWAP5 POP POP POP POP POP PUSH2 0x10F3 JUMP JUMPDEST POP DUP1 DUP1 PUSH2 0x10E3 SWAP1 PUSH2 0x1858 JUMP JUMPDEST SWAP2 POP POP PUSH2 0xFE4 JUMP JUMPDEST POP PUSH1 0x0 SWAP3 POP POP POP JUMPDEST SWAP3 SWAP2 POP POP JUMP JUMPDEST PUSH1 0x40 MLOAD DUP1 PUSH1 0x80 ADD PUSH1 0x40 MSTORE DUP1 PUSH1 0x60 DUP2 MSTORE PUSH1 0x20 ADD PUSH1 0x60 DUP2 MSTORE PUSH1 0x20 ADD PUSH1 0x60 DUP2 MSTORE PUSH1 0x20 ADD PUSH1 0x0 DUP2 MSTORE POP SWAP1 JUMP JUMPDEST DUP3 DUP1 SLOAD PUSH2 0x112D SWAP1 PUSH2 0x17F5 JUMP JUMPDEST SWAP1 PUSH1 0x0 MSTORE PUSH1 0x20 PUSH1 0x0 KECCAK256 SWAP1 PUSH1 0x1F ADD PUSH1 0x20 SWAP1 DIV DUP2 ADD SWAP3 DUP3 PUSH2 0x114F JUMPI PUSH1 0x0 DUP6 SSTORE PUSH2 0x1196 JUMP JUMPDEST DUP3 PUSH1 0x1F LT PUSH2 0x1168 JUMPI DUP1 MLOAD PUSH1 0xFF NOT AND DUP4 DUP1 ADD OR DUP6 SSTORE PUSH2 0x1196 JUMP JUMPDEST DUP3 DUP1 ADD PUSH1 0x1 ADD DUP6 SSTORE DUP3 ISZERO PUSH2 0x1196 JUMPI SWAP2 DUP3 ADD JUMPDEST DUP3 DUP2 GT ISZERO PUSH2 0x1195 JUMPI DUP3 MLOAD DUP3 SSTORE SWAP2 PUSH1 0x20 ADD SWAP2 SWAP1 PUSH1 0x1 ADD SWAP1 PUSH2 0x117A JUMP JUMPDEST JUMPDEST POP SWAP1 POP PUSH2 0x11A3 SWAP2 SWAP1 PUSH2 0x11A7 JUMP JUMPDEST POP SWAP1 JUMP JUMPDEST JUMPDEST DUP1 DUP3 GT ISZERO PUSH2 0x11C0 JUMPI PUSH1 0x0 DUP2 PUSH1 0x0 SWAP1 SSTORE POP PUSH1 0x1 ADD PUSH2 0x11A8 JUMP JUMPDEST POP SWAP1 JUMP JUMPDEST PUSH1 0x0 PUSH2 0x11D7 PUSH2 0x11D2 DUP5 PUSH2 0x164F JUMP JUMPDEST PUSH2 0x162A JUMP JUMPDEST SWAP1 POP DUP3 DUP2 MSTORE PUSH1 0x20 DUP2 ADD DUP5 DUP5 DUP5 ADD GT ISZERO PUSH2 0x11F3 JUMPI PUSH2 0x11F2 PUSH2 0x1962 JUMP JUMPDEST JUMPDEST PUSH2 0x11FE DUP5 DUP3 DUP6 PUSH2 0x17B3 JUMP JUMPDEST POP SWAP4 SWAP3 POP POP POP JUMP JUMPDEST PUSH1 0x0 DUP3 PUSH1 0x1F DUP4 ADD SLT PUSH2 0x121B JUMPI PUSH2 0x121A PUSH2 0x195D JUMP JUMPDEST JUMPDEST DUP2 CALLDATALOAD PUSH2 0x122B DUP5 DUP3 PUSH1 0x20 DUP7 ADD PUSH2 0x11C4 JUMP JUMPDEST SWAP2 POP POP SWAP3 SWAP2 POP POP JUMP JUMPDEST PUSH1 0x0 DUP2 CALLDATALOAD SWAP1 POP PUSH2 0x1243 DUP2 PUSH2 0x1982 JUMP JUMPDEST SWAP3 SWAP2 POP POP JUMP JUMPDEST PUSH1 0x0 PUSH1 0x20 DUP3 DUP5 SUB SLT ISZERO PUSH2 0x125F JUMPI PUSH2 0x125E PUSH2 0x196C JUMP JUMPDEST JUMPDEST PUSH1 0x0 DUP3 ADD CALLDATALOAD PUSH8 0xFFFFFFFFFFFFFFFF DUP2 GT ISZERO PUSH2 0x127D JUMPI PUSH2 0x127C PUSH2 0x1967 JUMP JUMPDEST JUMPDEST PUSH2 0x1289 DUP5 DUP3 DUP6 ADD PUSH2 0x1206 JUMP JUMPDEST SWAP2 POP POP SWAP3 SWAP2 POP POP JUMP JUMPDEST PUSH1 0x0 DUP1 PUSH1 0x0 PUSH1 0x60 DUP5 DUP7 SUB SLT ISZERO PUSH2 0x12AB JUMPI PUSH2 0x12AA PUSH2 0x196C JUMP JUMPDEST JUMPDEST PUSH1 0x0 DUP5 ADD CALLDATALOAD PUSH8 0xFFFFFFFFFFFFFFFF DUP2 GT ISZERO PUSH2 0x12C9 JUMPI PUSH2 0x12C8 PUSH2 0x1967 JUMP JUMPDEST JUMPDEST PUSH2 0x12D5 DUP7 DUP3 DUP8 ADD PUSH2 0x1206 JUMP JUMPDEST SWAP4 POP POP PUSH1 0x20 DUP5 ADD CALLDATALOAD PUSH8 0xFFFFFFFFFFFFFFFF DUP2 GT ISZERO PUSH2 0x12F6 JUMPI PUSH2 0x12F5 PUSH2 0x1967 JUMP JUMPDEST JUMPDEST PUSH2 0x1302 DUP7 DUP3 DUP8 ADD PUSH2 0x1206 JUMP JUMPDEST SWAP3 POP POP PUSH1 0x40 DUP5 ADD CALLDATALOAD PUSH8 0xFFFFFFFFFFFFFFFF DUP2 GT ISZERO PUSH2 0x1323 JUMPI PUSH2 0x1322 PUSH2 0x1967 JUMP JUMPDEST JUMPDEST PUSH2 0x132F DUP7 DUP3 DUP8 ADD PUSH2 0x1206 JUMP JUMPDEST SWAP2 POP POP SWAP3 POP SWAP3 POP SWAP3 JUMP JUMPDEST PUSH1 0x0 DUP1 PUSH1 0x40 DUP4 DUP6 SUB SLT ISZERO PUSH2 0x1350 JUMPI PUSH2 0x134F PUSH2 0x196C JUMP JUMPDEST JUMPDEST PUSH1 0x0 PUSH2 0x135E DUP6 DUP3 DUP7 ADD PUSH2 0x1234 JUMP JUMPDEST SWAP3 POP POP PUSH1 0x20 PUSH2 0x136F DUP6 DUP3 DUP7 ADD PUSH2 0x1234 JUMP JUMPDEST SWAP2 POP POP SWAP3 POP SWAP3 SWAP1 POP JUMP JUMPDEST PUSH1 0x0 PUSH2 0x1385 DUP4 DUP4 PUSH2 0x148B JUMP JUMPDEST SWAP1 POP SWAP3 SWAP2 POP POP JUMP JUMPDEST PUSH1 0x0 PUSH2 0x1399 DUP4 DUP4 PUSH2 0x14FD JUMP JUMPDEST SWAP1 POP SWAP3 SWAP2 POP POP JUMP JUMPDEST PUSH1 0x0 PUSH2 0x13AC DUP3 PUSH2 0x16A0 JUMP JUMPDEST PUSH2 0x13B6 DUP2 DUP6 PUSH2 0x16DB JUMP JUMPDEST SWAP4 POP DUP4 PUSH1 0x20 DUP3 MUL DUP6 ADD PUSH2 0x13C8 DUP6 PUSH2 0x1680 JUMP JUMPDEST DUP1 PUSH1 0x0 JUMPDEST DUP6 DUP2 LT ISZERO PUSH2 0x1404 JUMPI DUP5 DUP5 SUB DUP10 MSTORE DUP2 MLOAD PUSH2 0x13E5 DUP6 DUP3 PUSH2 0x1379 JUMP JUMPDEST SWAP5 POP PUSH2 0x13F0 DUP4 PUSH2 0x16C1 JUMP JUMPDEST SWAP3 POP PUSH1 0x20 DUP11 ADD SWAP10 POP POP PUSH1 0x1 DUP2 ADD SWAP1 POP PUSH2 0x13CC JUMP JUMPDEST POP DUP3 SWAP8 POP DUP8 SWAP6 POP POP POP POP POP POP SWAP3 SWAP2 POP POP JUMP JUMPDEST PUSH1 0x0 PUSH2 0x1421 DUP3 PUSH2 0x16AB JUMP JUMPDEST PUSH2 0x142B DUP2 DUP6 PUSH2 0x16EC JUMP JUMPDEST SWAP4 POP DUP4 PUSH1 0x20 DUP3 MUL DUP6 ADD PUSH2 0x143D DUP6 PUSH2 0x1690 JUMP JUMPDEST DUP1 PUSH1 0x0 JUMPDEST DUP6 DUP2 LT ISZERO PUSH2 0x1479 JUMPI DUP5 DUP5 SUB DUP10 MSTORE DUP2 MLOAD PUSH2 0x145A DUP6 DUP3 PUSH2 0x138D JUMP JUMPDEST SWAP5 POP PUSH2 0x1465 DUP4 PUSH2 0x16CE JUMP JUMPDEST SWAP3 POP PUSH1 0x20 DUP11 ADD SWAP10 POP POP PUSH1 0x1 DUP2 ADD SWAP1 POP PUSH2 0x1441 JUMP JUMPDEST POP DUP3 SWAP8 POP DUP8 SWAP6 POP POP POP POP POP POP SWAP3 SWAP2 POP POP JUMP JUMPDEST PUSH1 0x0 PUSH2 0x1496 DUP3 PUSH2 0x16B6 JUMP JUMPDEST PUSH2 0x14A0 DUP2 DUP6 PUSH2 0x16FD JUMP JUMPDEST SWAP4 POP PUSH2 0x14B0 DUP2 DUP6 PUSH1 0x20 DUP7 ADD PUSH2 0x17C2 JUMP JUMPDEST PUSH2 0x14B9 DUP2 PUSH2 0x1971 JUMP JUMPDEST DUP5 ADD SWAP2 POP POP SWAP3 SWAP2 POP POP JUMP JUMPDEST PUSH1 0x0 PUSH2 0x14CF DUP3 PUSH2 0x16B6 JUMP JUMPDEST PUSH2 0x14D9 DUP2 DUP6 PUSH2 0x170E JUMP JUMPDEST SWAP4 POP PUSH2 0x14E9 DUP2 DUP6 PUSH1 0x20 DUP7 ADD PUSH2 0x17C2 JUMP JUMPDEST PUSH2 0x14F2 DUP2 PUSH2 0x1971 JUMP JUMPDEST DUP5 ADD SWAP2 POP POP SWAP3 SWAP2 POP POP JUMP JUMPDEST PUSH1 0x0 PUSH1 0x80 DUP4 ADD PUSH1 0x0 DUP4 ADD MLOAD DUP5 DUP3 SUB PUSH1 0x0 DUP7 ADD MSTORE PUSH2 0x151A DUP3 DUP3 PUSH2 0x148B JUMP JUMPDEST SWAP2 POP POP PUSH1 0x20 DUP4 ADD MLOAD DUP5 DUP3 SUB PUSH1 0x20 DUP7 ADD MSTORE PUSH2 0x1534 DUP3 DUP3 PUSH2 0x148B JUMP JUMPDEST SWAP2 POP POP PUSH1 0x40 DUP4 ADD MLOAD DUP5 DUP3 SUB PUSH1 0x40 DUP7 ADD MSTORE PUSH2 0x154E DUP3 DUP3 PUSH2 0x148B JUMP JUMPDEST SWAP2 POP POP PUSH1 0x60 DUP4 ADD MLOAD PUSH2 0x1563 PUSH1 0x60 DUP7 ADD DUP3 PUSH2 0x156E JUMP JUMPDEST POP DUP1 SWAP2 POP POP SWAP3 SWAP2 POP POP JUMP JUMPDEST PUSH2 0x1577 DUP2 PUSH2 0x17A9 JUMP JUMPDEST DUP3 MSTORE POP POP JUMP JUMPDEST PUSH2 0x1586 DUP2 PUSH2 0x17A9 JUMP JUMPDEST DUP3 MSTORE POP POP JUMP JUMPDEST PUSH1 0x0 PUSH1 0x20 DUP3 ADD SWAP1 POP DUP2 DUP2 SUB PUSH1 0x0 DUP4 ADD MSTORE PUSH2 0x15A6 DUP2 DUP5 PUSH2 0x13A1 JUMP JUMPDEST SWAP1 POP SWAP3 SWAP2 POP POP JUMP JUMPDEST PUSH1 0x0 PUSH1 0x20 DUP3 ADD SWAP1 POP DUP2 DUP2 SUB PUSH1 0x0 DUP4 ADD MSTORE PUSH2 0x15C8 DUP2 DUP5 PUSH2 0x1416 JUMP JUMPDEST SWAP1 POP SWAP3 SWAP2 POP POP JUMP JUMPDEST PUSH1 0x0 PUSH1 0x80 DUP3 ADD SWAP1 POP DUP2 DUP2 SUB PUSH1 0x0 DUP4 ADD MSTORE PUSH2 0x15EA DUP2 DUP8 PUSH2 0x14C4 JUMP JUMPDEST SWAP1 POP DUP2 DUP2 SUB PUSH1 0x20 DUP4 ADD MSTORE PUSH2 0x15FE DUP2 DUP7 PUSH2 0x14C4 JUMP JUMPDEST SWAP1 POP DUP2 DUP2 SUB PUSH1 0x40 DUP4 ADD MSTORE PUSH2 0x1612 DUP2 DUP6 PUSH2 0x14C4 JUMP JUMPDEST SWAP1 POP PUSH2 0x1621 PUSH1 0x60 DUP4 ADD DUP5 PUSH2 0x157D JUMP JUMPDEST SWAP6 SWAP5 POP POP POP POP POP JUMP JUMPDEST PUSH1 0x0 PUSH2 0x1634 PUSH2 0x1645 JUMP JUMPDEST SWAP1 POP PUSH2 0x1640 DUP3 DUP3 PUSH2 0x1827 JUMP JUMPDEST SWAP2 SWAP1 POP JUMP JUMPDEST PUSH1 0x0 PUSH1 0x40 MLOAD SWAP1 POP SWAP1 JUMP JUMPDEST PUSH1 0x0 PUSH8 0xFFFFFFFFFFFFFFFF DUP3 GT ISZERO PUSH2 0x166A JUMPI PUSH2 0x1669 PUSH2 0x192E JUMP JUMPDEST JUMPDEST PUSH2 0x1673 DUP3 PUSH2 0x1971 JUMP JUMPDEST SWAP1 POP PUSH1 0x20 DUP2 ADD SWAP1 POP SWAP2 SWAP1 POP JUMP JUMPDEST PUSH1 0x0 DUP2 SWAP1 POP PUSH1 0x20 DUP3 ADD SWAP1 POP SWAP2 SWAP1 POP JUMP JUMPDEST PUSH1 0x0 DUP2 SWAP1 POP PUSH1 0x20 DUP3 ADD SWAP1 POP SWAP2 SWAP1 POP JUMP JUMPDEST PUSH1 0x0 DUP2 MLOAD SWAP1 POP SWAP2 SWAP1 POP JUMP JUMPDEST PUSH1 0x0 DUP2 MLOAD SWAP1 POP SWAP2 SWAP1 POP JUMP JUMPDEST PUSH1 0x0 DUP2 MLOAD SWAP1 POP SWAP2 SWAP1 POP JUMP JUMPDEST PUSH1 0x0 PUSH1 0x20 DUP3 ADD SWAP1 POP SWAP2 SWAP1 POP JUMP JUMPDEST PUSH1 0x0 PUSH1 0x20 DUP3 ADD SWAP1 POP SWAP2 SWAP1 POP JUMP JUMPDEST PUSH1 0x0 DUP3 DUP3 MSTORE PUSH1 0x20 DUP3 ADD SWAP1 POP SWAP3 SWAP2 POP POP JUMP JUMPDEST PUSH1 0x0 DUP3 DUP3 MSTORE PUSH1 0x20 DUP3 ADD SWAP1 POP SWAP3 SWAP2 POP POP JUMP JUMPDEST PUSH1 0x0 DUP3 DUP3 MSTORE PUSH1 0x20 DUP3 ADD SWAP1 POP SWAP3 SWAP2 POP POP JUMP JUMPDEST PUSH1 0x0 DUP3 DUP3 MSTORE PUSH1 0x20 DUP3 ADD SWAP1 POP SWAP3 SWAP2 POP POP JUMP JUMPDEST PUSH1 0x0 PUSH2 0x172A DUP3 PUSH2 0x17A9 JUMP JUMPDEST SWAP2 POP PUSH2 0x1735 DUP4 PUSH2 0x17A9 JUMP JUMPDEST SWAP3 POP DUP3 PUSH32 0xFFFFFFFFFFFFFFFFFFFFFFFFFFFFFFFFFFFFFFFFFFFFFFFFFFFFFFFFFFFFFFFF SUB DUP3 GT ISZERO PUSH2 0x176A JUMPI PUSH2 0x1769 PUSH2 0x18A1 JUMP JUMPDEST JUMPDEST DUP3 DUP3 ADD SWAP1 POP SWAP3 SWAP2 POP POP JUMP JUMPDEST PUSH1 0x0 PUSH2 0x1780 DUP3 PUSH2 0x17A9 JUMP JUMPDEST SWAP2 POP PUSH2 0x178B DUP4 PUSH2 0x17A9 JUMP JUMPDEST SWAP3 POP DUP3 DUP3 LT ISZERO PUSH2 0x179E JUMPI PUSH2 0x179D PUSH2 0x18A1 JUMP JUMPDEST JUMPDEST DUP3 DUP3 SUB SWAP1 POP SWAP3 SWAP2 POP POP JUMP JUMPDEST PUSH1 0x0 DUP2 SWAP1 POP SWAP2 SWAP1 POP JUMP JUMPDEST DUP3 DUP2 DUP4 CALLDATACOPY PUSH1 0x0 DUP4 DUP4 ADD MSTORE POP POP POP JUMP JUMPDEST PUSH1 0x0 JUMPDEST DUP4 DUP2 LT ISZERO PUSH2 0x17E0 JUMPI DUP1 DUP3 ADD MLOAD DUP2 DUP5 ADD MSTORE PUSH1 0x20 DUP2 ADD SWAP1 POP PUSH2 0x17C5 JUMP JUMPDEST DUP4 DUP2 GT ISZERO PUSH2 0x17EF JUMPI PUSH1 0x0 DUP5 DUP5 ADD MSTORE JUMPDEST POP POP POP POP JUMP JUMPDEST PUSH1 0x0 PUSH1 0x2 DUP3 DIV SWAP1 POP PUSH1 0x1 DUP3 AND DUP1 PUSH2 0x180D JUMPI PUSH1 0x7F DUP3 AND SWAP2 POP JUMPDEST PUSH1 0x20 DUP3 LT DUP2 EQ ISZERO PUSH2 0x1821 JUMPI PUSH2 0x1820 PUSH2 0x18D0 JUMP JUMPDEST JUMPDEST POP SWAP2 SWAP1 POP JUMP JUMPDEST PUSH2 0x1830 DUP3 PUSH2 0x1971 JUMP JUMPDEST DUP2 ADD DUP2 DUP2 LT PUSH8 0xFFFFFFFFFFFFFFFF DUP3 GT OR ISZERO PUSH2 0x184F JUMPI PUSH2 0x184E PUSH2 0x192E JUMP JUMPDEST JUMPDEST DUP1 PUSH1 0x40 MSTORE POP POP POP JUMP JUMPDEST PUSH1 0x0 PUSH2 0x1863 DUP3 PUSH2 0x17A9 JUMP JUMPDEST SWAP2 POP PUSH32 0xFFFFFFFFFFFFFFFFFFFFFFFFFFFFFFFFFFFFFFFFFFFFFFFFFFFFFFFFFFFFFFFF DUP3 EQ ISZERO PUSH2 0x1896 JUMPI PUSH2 0x1895 PUSH2 0x18A1 JUMP JUMPDEST JUMPDEST PUSH1 0x1 DUP3 ADD SWAP1 POP SWAP2 SWAP1 POP JUMP JUMPDEST PUSH32 0x4E487B7100000000000000000000000000000000000000000000000000000000 PUSH1 0x0 MSTORE PUSH1 0x11 PUSH1 0x4 MSTORE PUSH1 0x24 PUSH1 0x0 REVERT JUMPDEST PUSH32 0x4E487B7100000000000000000000000000000000000000000000000000000000 PUSH1 0x0 MSTORE PUSH1 0x22 PUSH1 0x4 MSTORE PUSH1 0x24 PUSH1 0x0 REVERT JUMPDEST PUSH32 0x4E487B7100000000000000000000000000000000000000000000000000000000 PUSH1 0x0 MSTORE PUSH1 0x32 PUSH1 0x4 MSTORE PUSH1 0x24 PUSH1 0x0 REVERT JUMPDEST PUSH32 0x4E487B7100000000000000000000000000000000000000000000000000000000 PUSH1 0x0 MSTORE PUSH1 0x41 PUSH1 0x4 MSTORE PUSH1 0x24 PUSH1 0x0 REVERT JUMPDEST PUSH1 0x0 DUP1 REVERT JUMPDEST PUSH1 0x0 DUP1 REVERT JUMPDEST PUSH1 0x0 DUP1 REVERT JUMPDEST PUSH1 0x0 DUP1 REVERT JUMPDEST PUSH1 0x0 PUSH1 0x1F NOT PUSH1 0x1F DUP4 ADD AND SWAP1 POP SWAP2 SWAP1 POP JUMP JUMPDEST PUSH2 0x198B DUP2 PUSH2 0x17A9 JUMP JUMPDEST DUP2 EQ PUSH2 0x1996 JUMPI PUSH1 0x0 DUP1 REVERT JUMPDEST POP JUMP INVALID LOG2 PUSH5 0x6970667358 0x22 SLT KECCAK256 0xD8 0xEB OR JUMPI 0xB3 KECCAK256 KECCAK256 SLOAD 0xF7 PUSH26 0xD61512E61927B87A367BE50CDC1580CA69F37D8955FA64736F6C PUSH4 0x43000806 STOP CALLER "
		},
		"gasEstimates": {
			"creation": {
				"codeDepositCost": "1321400",
				"executionCost": "1376",
				"totalCost": "1322776"
			},
			"external": {
				"getNameListBySubStr(string)": "infinite",
				"getNameListByTime(uint256,uint256)": "infinite",
				"getStorageByName(string)": "infinite",
				"getStorageByTime(uint256,uint256)": "infinite",
				"storeFile(string,string,string)": "infinite"
			},
			"internal": {
				"contains(string memory,string memory)": "infinite",
				"getListBySubStr(string memory)": "infinite",
				"getListIndex(uint256,uint256)": "infinite",
				"getTimelist(address)": "infinite",
				"newMapFileInfo(uint256)": "infinite"
			}
		},
		"methodIdentifiers": {
			"getNameListBySubStr(string)": "a19927e5",
			"getNameListByTime(uint256,uint256)": "b9b14cde",
			"getStorageByName(string)": "180f8659",
			"getStorageByTime(uint256,uint256)": "6cd1a41b",
			"storeFile(string,string,string)": "7dd77d2b"
		}
	},
	"abi": [
		{
			"inputs": [],
			"stateMutability": "nonpayable",
			"type": "constructor"
		},
		{
			"anonymous": false,
			"inputs": [
				{
					"indexed": false,
					"internalType": "string",
					"name": "fileName",
					"type": "string"
				},
				{
					"indexed": false,
					"internalType": "string",
					"name": "fileType",
					"type": "string"
				},
				{
					"indexed": false,
					"internalType": "string",
					"name": "fileContent",
					"type": "string"
				},
				{
					"indexed": false,
					"internalType": "uint256",
					"name": "timestamp",
					"type": "uint256"
				}
			],
			"name": "FileStored",
			"type": "event"
		},
		{
			"inputs": [
				{
					"internalType": "string",
					"name": "fileName",
					"type": "string"
				}
			],
			"name": "getNameListBySubStr",
			"outputs": [
				{
					"internalType": "string[]",
					"name": "",
					"type": "string[]"
				}
			],
			"stateMutability": "view",
			"type": "function"
		},
		{
			"inputs": [
				{
					"internalType": "uint256",
					"name": "startTime",
					"type": "uint256"
				},
				{
					"internalType": "uint256",
					"name": "endTime",
					"type": "uint256"
				}
			],
			"name": "getNameListByTime",
			"outputs": [
				{
					"internalType": "string[]",
					"name": "",
					"type": "string[]"
				}
			],
			"stateMutability": "view",
			"type": "function"
		},
		{
			"inputs": [
				{
					"internalType": "string",
					"name": "fileName",
					"type": "string"
				}
			],
			"name": "getStorageByName",
			"outputs": [
				{
					"components": [
						{
							"internalType": "string",
							"name": "fileName",
							"type": "string"
						},
						{
							"internalType": "string",
							"name": "fileType",
							"type": "string"
						},
						{
							"internalType": "string",
							"name": "fileContent",
							"type": "string"
						},
						{
							"internalType": "uint256",
							"name": "timestamp",
							"type": "uint256"
						}
					],
					"internalType": "struct FileStorage.FileInfo[]",
					"name": "",
					"type": "tuple[]"
				}
			],
			"stateMutability": "view",
			"type": "function"
		},
		{
			"inputs": [
				{
					"internalType": "uint256",
					"name": "startTime",
					"type": "uint256"
				},
				{
					"internalType": "uint256",
					"name": "endTime",
					"type": "uint256"
				}
			],
			"name": "getStorageByTime",
			"outputs": [
				{
					"components": [
						{
							"internalType": "string",
							"name": "fileName",
							"type": "string"
						},
						{
							"internalType": "string",
							"name": "fileType",
							"type": "string"
						},
						{
							"internalType": "string",
							"name": "fileContent",
							"type": "string"
						},
						{
							"internalType": "uint256",
							"name": "timestamp",
							"type": "uint256"
						}
					],
					"internalType": "struct FileStorage.FileInfo[]",
					"name": "",
					"type": "tuple[]"
				}
			],
			"stateMutability": "view",
			"type": "function"
		},
		{
			"inputs": [
				{
					"internalType": "string",
					"name": "fileName",
					"type": "string"
				},
				{
					"internalType": "string",
					"name": "fileType",
					"type": "string"
				},
				{
					"internalType": "string",
					"name": "fileContent",
					"type": "string"
				}
			],
			"name": "storeFile",
			"outputs": [],
			"stateMutability": "nonpayable",
			"type": "function"
		}
	]
}