{
	"data": {
		"bytecode": {
			"linkReferences": {},
			"object": "608060405234801561001057600080fd5b50612652806100206000396000f3fe608060405234801561001057600080fd5b50600436106100935760003560e01c80633fb18aec116100665780633fb18aec146101585780635b9d136c146101885780637dd77d2b146101a6578063a4ec214a146101c2578063e77d24cc146101f257610093565b8063210ca7be14610098578063233fc2fe146100c857806334dcf137146100f85780633a5b5bde14610128575b600080fd5b6100b260048036038101906100ad919061197a565b610222565b6040516100bf91906120a5565b60405180910390f35b6100e260048036038101906100dd9190611c31565b6104e9565b6040516100ef9190612121565b60405180910390f35b610112600480360381019061010d9190611b2b565b610751565b60405161011f9190612046565b60405180910390f35b610142600480360381019061013d91906119c3565b61095c565b60405161014f9190612083565b60405180910390f35b610172600480360381019061016d9190611a0c565b610b8a565b60405161017f9190612068565b60405180910390f35b610190610ce6565b60405161019d91906120a5565b60405180910390f35b6101c060048036038101906101bb9190611a84565b610e2b565b005b6101dc60048036038101906101d791906119c3565b610fd1565b6040516101e991906120a5565b60405180910390f35b61020c60048036038101906102079190611b9a565b61105a565b6040516102199190612046565b60405180910390f35b60606000801b6000803373ffffffffffffffffffffffffffffffffffffffff1673ffffffffffffffffffffffffffffffffffffffff1681526020019081526020016000205414156102aa576040518060400160405280601381526020017f506c65617365206372656174652061206b65790000000000000000000000000081525090506104e4565b6000601067ffffffffffffffff8111156102c7576102c661257b565b5b6040519080825280601f01601f1916602001820160405280156102f95781602001600182028036833780820191505090505b50905060006010845161030c91906122b8565b67ffffffffffffffff8111156103255761032461257b565b5b6040519080825280601f01601f1916602001820160405280156103575781602001600182028036833780820191505090505b50905060005b60108110156103d9578481815181106103795761037861254c565b5b602001015160f81c60f81b8382815181106103975761039661254c565b5b60200101907effffffffffffffffffffffffffffffffffffffffffffffffffffffffffffff1916908160001a90535080806103d19061240d565b91505061035d565b5060008060003373ffffffffffffffffffffffffffffffffffffffff1673ffffffffffffffffffffffffffffffffffffffff1681526020019081526020016000205490506000601090505b85518110156104dc5781602060108361043d91906122b8565b610447919061248e565b602081106104585761045761254c565b5b1a60f81b86828151811061046f5761046e61254c565b5b602001015160f81c60f81b188360108361048991906122b8565b8151811061049a5761049961254c565b5b60200101907effffffffffffffffffffffffffffffffffffffffffffffffffffffffffffff1916908160001a90535080806104d49061240d565b915050610424565b508193505050505b919050565b6104f16117ba565b6000600260003373ffffffffffffffffffffffffffffffffffffffff1673ffffffffffffffffffffffffffffffffffffffff168152602001908152602001600020600084815260200190815260200160002060405180608001604052908160008201805461055e906123aa565b80601f016020809104026020016040519081016040528092919081815260200182805461058a906123aa565b80156105d75780601f106105ac576101008083540402835291602001916105d7565b820191906000526020600020905b8154815290600101906020018083116105ba57829003601f168201915b505050505081526020016001820180546105f0906123aa565b80601f016020809104026020016040519081016040528092919081815260200182805461061c906123aa565b80156106695780601f1061063e57610100808354040283529160200191610669565b820191906000526020600020905b81548152906001019060200180831161064c57829003601f168201915b50505050508152602001600282018054610682906123aa565b80601f01602080910402602001604051908101604052809291908181526020018280546106ae906123aa565b80156106fb5780601f106106d0576101008083540402835291602001916106fb565b820191906000526020600020905b8154815290600101906020018083116106de57829003601f168201915b5050505050815260200160038201548152505090506040518060800160405280826000015181526020018260200151815260200161073c8360400151610222565b81526020018260600151815250915050919050565b6060600061075e3361130d565b9050828410801561076f5750600083115b156107e85761077e84846113a4565b90506000815114156107e757600067ffffffffffffffff8111156107a5576107a461257b565b5b6040519080825280602002602001820160405280156107de57816020015b6107cb6117ba565b8152602001906001900390816107c35790505b50915050610955565b5b60006107f4868361152b565b905060008151141561085e57600067ffffffffffffffff81111561081b5761081a61257b565b5b60405190808252806020026020018201604052801561085457816020015b6108416117ba565b8152602001906001900390816108395790505b5092505050610955565b600080825167ffffffffffffffff81111561087c5761087b61257b565b5b6040519080825280602002602001820160405280156108b557816020015b6108a26117ba565b81526020019060019003908161089a5790505b5090506000600184516108c891906122b8565b90505b835183101561094c576108f78482815181106108ea576108e961254c565b5b60200260200101516104e9565b82848151811061090a5761090961254c565b5b602002602001018190525082806109209061240d565b9350506000811415610939578195505050505050610955565b808061094490612380565b9150506108cb565b50809450505050505b9392505050565b60606000801b6000803373ffffffffffffffffffffffffffffffffffffffff1673ffffffffffffffffffffffffffffffffffffffff1681526020019081526020016000205414156109e4576040518060400160405280601381526020017f506c65617365206372656174652061206b6579000000000000000000000000008152509050610b85565b60006040518060400160405280601081526020017f3031323334353637383961626364656600000000000000000000000000000000815250905060008390506000815167ffffffffffffffff811115610a4057610a3f61257b565b5b6040519080825280601f01601f191660200182016040528015610a725781602001600182028036833780820191505090505b50905060008060003373ffffffffffffffffffffffffffffffffffffffff1673ffffffffffffffffffffffffffffffffffffffff16815260200190815260200160002054905060005b8351811015610b5b5781602082610ad2919061248e565b60208110610ae357610ae261254c565b5b1a60f81b848281518110610afa57610af961254c565b5b602001015160f81c60f81b18838281518110610b1957610b1861254c565b5b60200101907effffffffffffffffffffffffffffffffffffffffffffffffffffffffffffff1916908160001a9053508080610b539061240d565b915050610abb565b508382604051602001610b6f929190611f97565b6040516020818303038152906040529450505050505b919050565b6000808390506000839050815181511115610baa57600092505050610ce0565b815181511415610bce57808051906020012082805190602001201492505050610ce0565b60005b600182518451610be191906122b8565b610beb9190612262565b811015610cd85760006001905060005b8351811015610cb057838181518110610c1757610c1661254c565b5b602001015160f81c60f81b7effffffffffffffffffffffffffffffffffffffffffffffffffffffffffffff1916858285610c519190612262565b81518110610c6257610c6161254c565b5b602001015160f81c60f81b7effffffffffffffffffffffffffffffffffffffffffffffffffffffffffffff191614610c9d5760009150610cb0565b8080610ca89061240d565b915050610bfb565b508015610cc4576001945050505050610ce0565b508080610cd09061240d565b915050610bd1565b506000925050505b92915050565b60606000801b6000803373ffffffffffffffffffffffffffffffffffffffff1673ffffffffffffffffffffffffffffffffffffffff1681526020019081526020016000205414610d6d576040518060400160405280601381526020017f43616e6e6f7420626520726563726561746564000000000000000000000000008152509050610e28565b60004233600143610d7e91906122b8565b4045604051602001610d939493929190611ff8565b604051602081830303815290604052805190602001209050806000803373ffffffffffffffffffffffffffffffffffffffff1673ffffffffffffffffffffffffffffffffffffffff168152602001908152602001600020819055506040518060400160405280600781526020017f53756363657373000000000000000000000000000000000000000000000000008152509150505b90565b610e33610ce6565b506000610e3f8261095c565b9050600042905060003390506000604051806080016040528088815260200187815260200185815260200184815250905080600260008473ffffffffffffffffffffffffffffffffffffffff1673ffffffffffffffffffffffffffffffffffffffff16815260200190815260200160002060008581526020019081526020016000206000820151816000019080519060200190610edd9291906117e2565b506020820151816001019080519060200190610efa9291906117e2565b506040820151816002019080519060200190610f179291906117e2565b5060608201518160030155905050600160008373ffffffffffffffffffffffffffffffffffffffff1673ffffffffffffffffffffffffffffffffffffffff1681526020019081526020016000208390806001815401808255809150506001900390600052602060002001600090919091909150557f0fb39d8078d13507639d79325f273c978a8239a922e3b1d166b5df17113991fa87878686604051610fc094939291906120c7565b60405180910390a150505050505050565b6060600082604051602001610fe69190611fbb565b60405160208183030381529060405280519060200120905060008133604051602001611013929190611f6b565b60405160208183030381529060405280519060200120905060008160405160200161103e9190611fd2565b6040516020818303038152906040529050809350505050919050565b606060006110673361130d565b905084861080156110785750600085115b156110f15761108786866113a4565b90506000815114156110f057600067ffffffffffffffff8111156110ae576110ad61257b565b5b6040519080825280602002602001820160405280156110e757816020015b6110d46117ba565b8152602001906001900390816110cc5790505b50915050611304565b5b60006110fd888361152b565b905060006060600087845161111291906122b8565b90506000811161117d57600067ffffffffffffffff8111156111375761113661257b565b5b60405190808252806020026020018201604052801561117057816020015b61115d6117ba565b8152602001906001900390816111555790505b5095505050505050611304565b868111801561118c5750600087115b156111ec578667ffffffffffffffff8111156111ab576111aa61257b565b5b6040519080825280602002602001820160405280156111e457816020015b6111d16117ba565b8152602001906001900390816111c95790505b509150611243565b8067ffffffffffffffff8111156112065761120561257b565b5b60405190808252806020026020018201604052801561123f57816020015b61122c6117ba565b8152602001906001900390816112245790505b5091505b600060018261125291906122b8565b90505b84518410156112fa576112818582815181106112745761127361254c565b5b60200260200101516104e9565b8385815181106112945761129361254c565b5b6020026020010181905250600183516112ad91906122b8565b8414156112c257829650505050505050611304565b83806112cd9061240d565b94505060008114156112e757829650505050505050611304565b80806112f290612380565b915050611255565b5081955050505050505b95945050505050565b6060600160008373ffffffffffffffffffffffffffffffffffffffff1673ffffffffffffffffffffffffffffffffffffffff16815260200190815260200160002080548060200260200160405190810160405280929190818152602001828054801561139857602002820191906000526020600020905b815481526020019060010190808311611384575b50505050509050919050565b606060008060006113b43361130d565b905060008151905060005b8181101561143557878382815181106113db576113da61254c565b5b60200260200101511015801561140b575086838281518110611400576113ff61254c565b5b602002602001015111155b1561142257848061141b9061240d565b9550508093505b808061142d9061240d565b9150506113bf565b5060008467ffffffffffffffff8111156114525761145161257b565b5b6040519080825280602002602001820160405280156114805781602001602082028036833780820191505090505b5090506000851461151c576001846114989190612262565b935060008086866114a991906122b8565b90505b8581101561150d578481815181106114c7576114c661254c565b5b60200260200101518383806114db9061240d565b9450815181106114ee576114ed61254c565b5b60200260200101818152505080806115059061240d565b9150506114ac565b50819650505050505050611525565b80955050505050505b92915050565b60606000825190506000845114806115435750600081145b1561155157829150506117b4565b6000808267ffffffffffffffff81111561156e5761156d61257b565b5b60405190808252806020026020018201604052801561159c5781602001602082028036833780820191505090505b50905060005b838110156116fc5760008682815181106115bf576115be61254c565b5b6020026020010151905060006116b0600260003373ffffffffffffffffffffffffffffffffffffffff1673ffffffffffffffffffffffffffffffffffffffff1681526020019081526020016000206000848152602001908152602001600020600001805461162c906123aa565b80601f0160208091040260200160405190810160405280929190818152602001828054611658906123aa565b80156116a55780601f1061167a576101008083540402835291602001916116a5565b820191906000526020600020905b81548152906001019060200180831161168857829003601f168201915b50505050508a610b8a565b905080156116e757818486815181106116cc576116cb61254c565b5b60200260200101818152505084806116e39061240d565b9550505b505080806116f49061240d565b9150506115a2565b5060008267ffffffffffffffff8111156117195761171861257b565b5b6040519080825280602002602001820160405280156117475781602001602082028036833780820191505090505b509050600083146117ac5760005b838110156117aa578281815181106117705761176f61254c565b5b602002602001015182828151811061178b5761178a61254c565b5b60200260200101818152505080806117a29061240d565b915050611755565b505b809450505050505b92915050565b6040518060800160405280606081526020016060815260200160608152602001600081525090565b8280546117ee906123aa565b90600052602060002090601f0160209004810192826118105760008555611857565b82601f1061182957805160ff1916838001178555611857565b82800160010185558215611857579182015b8281111561185657825182559160200191906001019061183b565b5b5090506118649190611868565b5090565b5b80821115611881576000816000905550600101611869565b5090565b600061189861189384612168565b612143565b9050828152602081018484840111156118b4576118b36125af565b5b6118bf84828561233e565b509392505050565b60006118da6118d584612199565b612143565b9050828152602081018484840111156118f6576118f56125af565b5b61190184828561233e565b509392505050565b600082601f83011261191e5761191d6125aa565b5b813561192e848260208601611885565b91505092915050565b600082601f83011261194c5761194b6125aa565b5b813561195c8482602086016118c7565b91505092915050565b60008135905061197481612605565b92915050565b6000602082840312156119905761198f6125b9565b5b600082013567ffffffffffffffff8111156119ae576119ad6125b4565b5b6119ba84828501611909565b91505092915050565b6000602082840312156119d9576119d86125b9565b5b600082013567ffffffffffffffff8111156119f7576119f66125b4565b5b611a0384828501611937565b91505092915050565b60008060408385031215611a2357611a226125b9565b5b600083013567ffffffffffffffff811115611a4157611a406125b4565b5b611a4d85828601611937565b925050602083013567ffffffffffffffff811115611a6e57611a6d6125b4565b5b611a7a85828601611937565b9150509250929050565b600080600060608486031215611a9d57611a9c6125b9565b5b600084013567ffffffffffffffff811115611abb57611aba6125b4565b5b611ac786828701611937565b935050602084013567ffffffffffffffff811115611ae857611ae76125b4565b5b611af486828701611937565b925050604084013567ffffffffffffffff811115611b1557611b146125b4565b5b611b2186828701611937565b9150509250925092565b600080600060608486031215611b4457611b436125b9565b5b600084013567ffffffffffffffff811115611b6257611b616125b4565b5b611b6e86828701611937565b9350506020611b7f86828701611965565b9250506040611b9086828701611965565b9150509250925092565b600080600080600060a08688031215611bb657611bb56125b9565b5b600086013567ffffffffffffffff811115611bd457611bd36125b4565b5b611be088828901611937565b9550506020611bf188828901611965565b9450506040611c0288828901611965565b9350506060611c1388828901611965565b9250506080611c2488828901611965565b9150509295509295909350565b600060208284031215611c4757611c466125b9565b5b6000611c5584828501611965565b91505092915050565b6000611c6a8383611e54565b905092915050565b611c83611c7e826122ec565b612456565b82525050565b6000611c94826121da565b611c9e8185612208565b935083602082028501611cb0856121ca565b8060005b85811015611cec5784840389528151611ccd8582611c5e565b9450611cd8836121fb565b925060208a01995050600181019050611cb4565b50829750879550505050505092915050565b611d07816122fe565b82525050565b611d1e611d198261230a565b612468565b82525050565b6000611d2f826121e5565b611d398185612219565b9350611d4981856020860161234d565b611d52816125be565b840191505092915050565b6000611d68826121e5565b611d72818561222a565b9350611d8281856020860161234d565b80840191505092915050565b6000611d99826121f0565b611da38185612235565b9350611db381856020860161234d565b611dbc816125be565b840191505092915050565b6000611dd2826121f0565b611ddc8185612246565b9350611dec81856020860161234d565b611df5816125be565b840191505092915050565b6000611e0b826121f0565b611e158185612257565b9350611e2581856020860161234d565b80840191505092915050565b6000611e3e600283612257565b9150611e49826125dc565b600282019050919050565b60006080830160008301518482036000860152611e718282611d8e565b91505060208301518482036020860152611e8b8282611d8e565b91505060408301518482036040860152611ea58282611d8e565b9150506060830151611eba6060860182611f36565b508091505092915050565b60006080830160008301518482036000860152611ee28282611d8e565b91505060208301518482036020860152611efc8282611d8e565b91505060408301518482036040860152611f168282611d8e565b9150506060830151611f2b6060860182611f36565b508091505092915050565b611f3f81612334565b82525050565b611f4e81612334565b82525050565b611f65611f6082612334565b612484565b82525050565b6000611f778285611d0d565b602082019150611f878284611c72565b6014820191508190509392505050565b6000611fa38285611d5d565b9150611faf8284611d5d565b91508190509392505050565b6000611fc78284611e00565b915081905092915050565b6000611fdd82611e31565b9150611fe98284611d0d565b60208201915081905092915050565b60006120048287611f54565b6020820191506120148286611c72565b6014820191506120248285611d0d565b6020820191506120348284611f54565b60208201915081905095945050505050565b600060208201905081810360008301526120608184611c89565b905092915050565b600060208201905061207d6000830184611cfe565b92915050565b6000602082019050818103600083015261209d8184611d24565b905092915050565b600060208201905081810360008301526120bf8184611dc7565b905092915050565b600060808201905081810360008301526120e18187611dc7565b905081810360208301526120f58186611dc7565b905081810360408301526121098185611d24565b90506121186060830184611f45565b95945050505050565b6000602082019050818103600083015261213b8184611ec5565b905092915050565b600061214d61215e565b905061215982826123dc565b919050565b6000604051905090565b600067ffffffffffffffff8211156121835761218261257b565b5b61218c826125be565b9050602081019050919050565b600067ffffffffffffffff8211156121b4576121b361257b565b5b6121bd826125be565b9050602081019050919050565b6000819050602082019050919050565b600081519050919050565b600081519050919050565b600081519050919050565b6000602082019050919050565b600082825260208201905092915050565b600082825260208201905092915050565b600081905092915050565b600082825260208201905092915050565b600082825260208201905092915050565b600081905092915050565b600061226d82612334565b915061227883612334565b9250827fffffffffffffffffffffffffffffffffffffffffffffffffffffffffffffffff038211156122ad576122ac6124bf565b5b828201905092915050565b60006122c382612334565b91506122ce83612334565b9250828210156122e1576122e06124bf565b5b828203905092915050565b60006122f782612314565b9050919050565b60008115159050919050565b6000819050919050565b600073ffffffffffffffffffffffffffffffffffffffff82169050919050565b6000819050919050565b82818337600083830152505050565b60005b8381101561236b578082015181840152602081019050612350565b8381111561237a576000848401525b50505050565b600061238b82612334565b9150600082141561239f5761239e6124bf565b5b600182039050919050565b600060028204905060018216806123c257607f821691505b602082108114156123d6576123d561251d565b5b50919050565b6123e5826125be565b810181811067ffffffffffffffff821117156124045761240361257b565b5b80604052505050565b600061241882612334565b91507fffffffffffffffffffffffffffffffffffffffffffffffffffffffffffffffff82141561244b5761244a6124bf565b5b600182019050919050565b600061246182612472565b9050919050565b6000819050919050565b600061247d826125cf565b9050919050565b6000819050919050565b600061249982612334565b91506124a483612334565b9250826124b4576124b36124ee565b5b828206905092915050565b7f4e487b7100000000000000000000000000000000000000000000000000000000600052601160045260246000fd5b7f4e487b7100000000000000000000000000000000000000000000000000000000600052601260045260246000fd5b7f4e487b7100000000000000000000000000000000000000000000000000000000600052602260045260246000fd5b7f4e487b7100000000000000000000000000000000000000000000000000000000600052603260045260246000fd5b7f4e487b7100000000000000000000000000000000000000000000000000000000600052604160045260246000fd5b600080fd5b600080fd5b600080fd5b600080fd5b6000601f19601f8301169050919050565b60008160601b9050919050565b7f3078000000000000000000000000000000000000000000000000000000000000600082015250565b61260e81612334565b811461261957600080fd5b5056fea26469706673582212206a0009468f20321038fbb6f650c04715e79bbaeeb37e2333de842cd94bc2cc6964736f6c63430008060033",
			"opcodes": "PUSH1 0x80 PUSH1 0x40 MSTORE CALLVALUE DUP1 ISZERO PUSH2 0x10 JUMPI PUSH1 0x0 DUP1 REVERT JUMPDEST POP PUSH2 0x2652 DUP1 PUSH2 0x20 PUSH1 0x0 CODECOPY PUSH1 0x0 RETURN INVALID PUSH1 0x80 PUSH1 0x40 MSTORE CALLVALUE DUP1 ISZERO PUSH2 0x10 JUMPI PUSH1 0x0 DUP1 REVERT JUMPDEST POP PUSH1 0x4 CALLDATASIZE LT PUSH2 0x93 JUMPI PUSH1 0x0 CALLDATALOAD PUSH1 0xE0 SHR DUP1 PUSH4 0x3FB18AEC GT PUSH2 0x66 JUMPI DUP1 PUSH4 0x3FB18AEC EQ PUSH2 0x158 JUMPI DUP1 PUSH4 0x5B9D136C EQ PUSH2 0x188 JUMPI DUP1 PUSH4 0x7DD77D2B EQ PUSH2 0x1A6 JUMPI DUP1 PUSH4 0xA4EC214A EQ PUSH2 0x1C2 JUMPI DUP1 PUSH4 0xE77D24CC EQ PUSH2 0x1F2 JUMPI PUSH2 0x93 JUMP JUMPDEST DUP1 PUSH4 0x210CA7BE EQ PUSH2 0x98 JUMPI DUP1 PUSH4 0x233FC2FE EQ PUSH2 0xC8 JUMPI DUP1 PUSH4 0x34DCF137 EQ PUSH2 0xF8 JUMPI DUP1 PUSH4 0x3A5B5BDE EQ PUSH2 0x128 JUMPI JUMPDEST PUSH1 0x0 DUP1 REVERT JUMPDEST PUSH2 0xB2 PUSH1 0x4 DUP1 CALLDATASIZE SUB DUP2 ADD SWAP1 PUSH2 0xAD SWAP2 SWAP1 PUSH2 0x197A JUMP JUMPDEST PUSH2 0x222 JUMP JUMPDEST PUSH1 0x40 MLOAD PUSH2 0xBF SWAP2 SWAP1 PUSH2 0x20A5 JUMP JUMPDEST PUSH1 0x40 MLOAD DUP1 SWAP2 SUB SWAP1 RETURN JUMPDEST PUSH2 0xE2 PUSH1 0x4 DUP1 CALLDATASIZE SUB DUP2 ADD SWAP1 PUSH2 0xDD SWAP2 SWAP1 PUSH2 0x1C31 JUMP JUMPDEST PUSH2 0x4E9 JUMP JUMPDEST PUSH1 0x40 MLOAD PUSH2 0xEF SWAP2 SWAP1 PUSH2 0x2121 JUMP JUMPDEST PUSH1 0x40 MLOAD DUP1 SWAP2 SUB SWAP1 RETURN JUMPDEST PUSH2 0x112 PUSH1 0x4 DUP1 CALLDATASIZE SUB DUP2 ADD SWAP1 PUSH2 0x10D SWAP2 SWAP1 PUSH2 0x1B2B JUMP JUMPDEST PUSH2 0x751 JUMP JUMPDEST PUSH1 0x40 MLOAD PUSH2 0x11F SWAP2 SWAP1 PUSH2 0x2046 JUMP JUMPDEST PUSH1 0x40 MLOAD DUP1 SWAP2 SUB SWAP1 RETURN JUMPDEST PUSH2 0x142 PUSH1 0x4 DUP1 CALLDATASIZE SUB DUP2 ADD SWAP1 PUSH2 0x13D SWAP2 SWAP1 PUSH2 0x19C3 JUMP JUMPDEST PUSH2 0x95C JUMP JUMPDEST PUSH1 0x40 MLOAD PUSH2 0x14F SWAP2 SWAP1 PUSH2 0x2083 JUMP JUMPDEST PUSH1 0x40 MLOAD DUP1 SWAP2 SUB SWAP1 RETURN JUMPDEST PUSH2 0x172 PUSH1 0x4 DUP1 CALLDATASIZE SUB DUP2 ADD SWAP1 PUSH2 0x16D SWAP2 SWAP1 PUSH2 0x1A0C JUMP JUMPDEST PUSH2 0xB8A JUMP JUMPDEST PUSH1 0x40 MLOAD PUSH2 0x17F SWAP2 SWAP1 PUSH2 0x2068 JUMP JUMPDEST PUSH1 0x40 MLOAD DUP1 SWAP2 SUB SWAP1 RETURN JUMPDEST PUSH2 0x190 PUSH2 0xCE6 JUMP JUMPDEST PUSH1 0x40 MLOAD PUSH2 0x19D SWAP2 SWAP1 PUSH2 0x20A5 JUMP JUMPDEST PUSH1 0x40 MLOAD DUP1 SWAP2 SUB SWAP1 RETURN JUMPDEST PUSH2 0x1C0 PUSH1 0x4 DUP1 CALLDATASIZE SUB DUP2 ADD SWAP1 PUSH2 0x1BB SWAP2 SWAP1 PUSH2 0x1A84 JUMP JUMPDEST PUSH2 0xE2B JUMP JUMPDEST STOP JUMPDEST PUSH2 0x1DC PUSH1 0x4 DUP1 CALLDATASIZE SUB DUP2 ADD SWAP1 PUSH2 0x1D7 SWAP2 SWAP1 PUSH2 0x19C3 JUMP JUMPDEST PUSH2 0xFD1 JUMP JUMPDEST PUSH1 0x40 MLOAD PUSH2 0x1E9 SWAP2 SWAP1 PUSH2 0x20A5 JUMP JUMPDEST PUSH1 0x40 MLOAD DUP1 SWAP2 SUB SWAP1 RETURN JUMPDEST PUSH2 0x20C PUSH1 0x4 DUP1 CALLDATASIZE SUB DUP2 ADD SWAP1 PUSH2 0x207 SWAP2 SWAP1 PUSH2 0x1B9A JUMP JUMPDEST PUSH2 0x105A JUMP JUMPDEST PUSH1 0x40 MLOAD PUSH2 0x219 SWAP2 SWAP1 PUSH2 0x2046 JUMP JUMPDEST PUSH1 0x40 MLOAD DUP1 SWAP2 SUB SWAP1 RETURN JUMPDEST PUSH1 0x60 PUSH1 0x0 DUP1 SHL PUSH1 0x0 DUP1 CALLER PUSH20 0xFFFFFFFFFFFFFFFFFFFFFFFFFFFFFFFFFFFFFFFF AND PUSH20 0xFFFFFFFFFFFFFFFFFFFFFFFFFFFFFFFFFFFFFFFF AND DUP2 MSTORE PUSH1 0x20 ADD SWAP1 DUP2 MSTORE PUSH1 0x20 ADD PUSH1 0x0 KECCAK256 SLOAD EQ ISZERO PUSH2 0x2AA JUMPI PUSH1 0x40 MLOAD DUP1 PUSH1 0x40 ADD PUSH1 0x40 MSTORE DUP1 PUSH1 0x13 DUP2 MSTORE PUSH1 0x20 ADD PUSH32 0x506C65617365206372656174652061206B657900000000000000000000000000 DUP2 MSTORE POP SWAP1 POP PUSH2 0x4E4 JUMP JUMPDEST PUSH1 0x0 PUSH1 0x10 PUSH8 0xFFFFFFFFFFFFFFFF DUP2 GT ISZERO PUSH2 0x2C7 JUMPI PUSH2 0x2C6 PUSH2 0x257B JUMP JUMPDEST JUMPDEST PUSH1 0x40 MLOAD SWAP1 DUP1 DUP3 MSTORE DUP1 PUSH1 0x1F ADD PUSH1 0x1F NOT AND PUSH1 0x20 ADD DUP3 ADD PUSH1 0x40 MSTORE DUP1 ISZERO PUSH2 0x2F9 JUMPI DUP2 PUSH1 0x20 ADD PUSH1 0x1 DUP3 MUL DUP1 CALLDATASIZE DUP4 CALLDATACOPY DUP1 DUP3 ADD SWAP2 POP POP SWAP1 POP JUMPDEST POP SWAP1 POP PUSH1 0x0 PUSH1 0x10 DUP5 MLOAD PUSH2 0x30C SWAP2 SWAP1 PUSH2 0x22B8 JUMP JUMPDEST PUSH8 0xFFFFFFFFFFFFFFFF DUP2 GT ISZERO PUSH2 0x325 JUMPI PUSH2 0x324 PUSH2 0x257B JUMP JUMPDEST JUMPDEST PUSH1 0x40 MLOAD SWAP1 DUP1 DUP3 MSTORE DUP1 PUSH1 0x1F ADD PUSH1 0x1F NOT AND PUSH1 0x20 ADD DUP3 ADD PUSH1 0x40 MSTORE DUP1 ISZERO PUSH2 0x357 JUMPI DUP2 PUSH1 0x20 ADD PUSH1 0x1 DUP3 MUL DUP1 CALLDATASIZE DUP4 CALLDATACOPY DUP1 DUP3 ADD SWAP2 POP POP SWAP1 POP JUMPDEST POP SWAP1 POP PUSH1 0x0 JUMPDEST PUSH1 0x10 DUP2 LT ISZERO PUSH2 0x3D9 JUMPI DUP5 DUP2 DUP2 MLOAD DUP2 LT PUSH2 0x379 JUMPI PUSH2 0x378 PUSH2 0x254C JUMP JUMPDEST JUMPDEST PUSH1 0x20 ADD ADD MLOAD PUSH1 0xF8 SHR PUSH1 0xF8 SHL DUP4 DUP3 DUP2 MLOAD DUP2 LT PUSH2 0x397 JUMPI PUSH2 0x396 PUSH2 0x254C JUMP JUMPDEST JUMPDEST PUSH1 0x20 ADD ADD SWAP1 PUSH31 0xFFFFFFFFFFFFFFFFFFFFFFFFFFFFFFFFFFFFFFFFFFFFFFFFFFFFFFFFFFFFFF NOT AND SWAP1 DUP2 PUSH1 0x0 BYTE SWAP1 MSTORE8 POP DUP1 DUP1 PUSH2 0x3D1 SWAP1 PUSH2 0x240D JUMP JUMPDEST SWAP2 POP POP PUSH2 0x35D JUMP JUMPDEST POP PUSH1 0x0 DUP1 PUSH1 0x0 CALLER PUSH20 0xFFFFFFFFFFFFFFFFFFFFFFFFFFFFFFFFFFFFFFFF AND PUSH20 0xFFFFFFFFFFFFFFFFFFFFFFFFFFFFFFFFFFFFFFFF AND DUP2 MSTORE PUSH1 0x20 ADD SWAP1 DUP2 MSTORE PUSH1 0x20 ADD PUSH1 0x0 KECCAK256 SLOAD SWAP1 POP PUSH1 0x0 PUSH1 0x10 SWAP1 POP JUMPDEST DUP6 MLOAD DUP2 LT ISZERO PUSH2 0x4DC JUMPI DUP2 PUSH1 0x20 PUSH1 0x10 DUP4 PUSH2 0x43D SWAP2 SWAP1 PUSH2 0x22B8 JUMP JUMPDEST PUSH2 0x447 SWAP2 SWAP1 PUSH2 0x248E JUMP JUMPDEST PUSH1 0x20 DUP2 LT PUSH2 0x458 JUMPI PUSH2 0x457 PUSH2 0x254C JUMP JUMPDEST JUMPDEST BYTE PUSH1 0xF8 SHL DUP7 DUP3 DUP2 MLOAD DUP2 LT PUSH2 0x46F JUMPI PUSH2 0x46E PUSH2 0x254C JUMP JUMPDEST JUMPDEST PUSH1 0x20 ADD ADD MLOAD PUSH1 0xF8 SHR PUSH1 0xF8 SHL XOR DUP4 PUSH1 0x10 DUP4 PUSH2 0x489 SWAP2 SWAP1 PUSH2 0x22B8 JUMP JUMPDEST DUP2 MLOAD DUP2 LT PUSH2 0x49A JUMPI PUSH2 0x499 PUSH2 0x254C JUMP JUMPDEST JUMPDEST PUSH1 0x20 ADD ADD SWAP1 PUSH31 0xFFFFFFFFFFFFFFFFFFFFFFFFFFFFFFFFFFFFFFFFFFFFFFFFFFFFFFFFFFFFFF NOT AND SWAP1 DUP2 PUSH1 0x0 BYTE SWAP1 MSTORE8 POP DUP1 DUP1 PUSH2 0x4D4 SWAP1 PUSH2 0x240D JUMP JUMPDEST SWAP2 POP POP PUSH2 0x424 JUMP JUMPDEST POP DUP2 SWAP4 POP POP POP POP JUMPDEST SWAP2 SWAP1 POP JUMP JUMPDEST PUSH2 0x4F1 PUSH2 0x17BA JUMP JUMPDEST PUSH1 0x0 PUSH1 0x2 PUSH1 0x0 CALLER PUSH20 0xFFFFFFFFFFFFFFFFFFFFFFFFFFFFFFFFFFFFFFFF AND PUSH20 0xFFFFFFFFFFFFFFFFFFFFFFFFFFFFFFFFFFFFFFFF AND DUP2 MSTORE PUSH1 0x20 ADD SWAP1 DUP2 MSTORE PUSH1 0x20 ADD PUSH1 0x0 KECCAK256 PUSH1 0x0 DUP5 DUP2 MSTORE PUSH1 0x20 ADD SWAP1 DUP2 MSTORE PUSH1 0x20 ADD PUSH1 0x0 KECCAK256 PUSH1 0x40 MLOAD DUP1 PUSH1 0x80 ADD PUSH1 0x40 MSTORE SWAP1 DUP2 PUSH1 0x0 DUP3 ADD DUP1 SLOAD PUSH2 0x55E SWAP1 PUSH2 0x23AA JUMP JUMPDEST DUP1 PUSH1 0x1F ADD PUSH1 0x20 DUP1 SWAP2 DIV MUL PUSH1 0x20 ADD PUSH1 0x40 MLOAD SWAP1 DUP2 ADD PUSH1 0x40 MSTORE DUP1 SWAP3 SWAP2 SWAP1 DUP2 DUP2 MSTORE PUSH1 0x20 ADD DUP3 DUP1 SLOAD PUSH2 0x58A SWAP1 PUSH2 0x23AA JUMP JUMPDEST DUP1 ISZERO PUSH2 0x5D7 JUMPI DUP1 PUSH1 0x1F LT PUSH2 0x5AC JUMPI PUSH2 0x100 DUP1 DUP4 SLOAD DIV MUL DUP4 MSTORE SWAP2 PUSH1 0x20 ADD SWAP2 PUSH2 0x5D7 JUMP JUMPDEST DUP3 ADD SWAP2 SWAP1 PUSH1 0x0 MSTORE PUSH1 0x20 PUSH1 0x0 KECCAK256 SWAP1 JUMPDEST DUP2 SLOAD DUP2 MSTORE SWAP1 PUSH1 0x1 ADD SWAP1 PUSH1 0x20 ADD DUP1 DUP4 GT PUSH2 0x5BA JUMPI DUP3 SWAP1 SUB PUSH1 0x1F AND DUP3 ADD SWAP2 JUMPDEST POP POP POP POP POP DUP2 MSTORE PUSH1 0x20 ADD PUSH1 0x1 DUP3 ADD DUP1 SLOAD PUSH2 0x5F0 SWAP1 PUSH2 0x23AA JUMP JUMPDEST DUP1 PUSH1 0x1F ADD PUSH1 0x20 DUP1 SWAP2 DIV MUL PUSH1 0x20 ADD PUSH1 0x40 MLOAD SWAP1 DUP2 ADD PUSH1 0x40 MSTORE DUP1 SWAP3 SWAP2 SWAP1 DUP2 DUP2 MSTORE PUSH1 0x20 ADD DUP3 DUP1 SLOAD PUSH2 0x61C SWAP1 PUSH2 0x23AA JUMP JUMPDEST DUP1 ISZERO PUSH2 0x669 JUMPI DUP1 PUSH1 0x1F LT PUSH2 0x63E JUMPI PUSH2 0x100 DUP1 DUP4 SLOAD DIV MUL DUP4 MSTORE SWAP2 PUSH1 0x20 ADD SWAP2 PUSH2 0x669 JUMP JUMPDEST DUP3 ADD SWAP2 SWAP1 PUSH1 0x0 MSTORE PUSH1 0x20 PUSH1 0x0 KECCAK256 SWAP1 JUMPDEST DUP2 SLOAD DUP2 MSTORE SWAP1 PUSH1 0x1 ADD SWAP1 PUSH1 0x20 ADD DUP1 DUP4 GT PUSH2 0x64C JUMPI DUP3 SWAP1 SUB PUSH1 0x1F AND DUP3 ADD SWAP2 JUMPDEST POP POP POP POP POP DUP2 MSTORE PUSH1 0x20 ADD PUSH1 0x2 DUP3 ADD DUP1 SLOAD PUSH2 0x682 SWAP1 PUSH2 0x23AA JUMP JUMPDEST DUP1 PUSH1 0x1F ADD PUSH1 0x20 DUP1 SWAP2 DIV MUL PUSH1 0x20 ADD PUSH1 0x40 MLOAD SWAP1 DUP2 ADD PUSH1 0x40 MSTORE DUP1 SWAP3 SWAP2 SWAP1 DUP2 DUP2 MSTORE PUSH1 0x20 ADD DUP3 DUP1 SLOAD PUSH2 0x6AE SWAP1 PUSH2 0x23AA JUMP JUMPDEST DUP1 ISZERO PUSH2 0x6FB JUMPI DUP1 PUSH1 0x1F LT PUSH2 0x6D0 JUMPI PUSH2 0x100 DUP1 DUP4 SLOAD DIV MUL DUP4 MSTORE SWAP2 PUSH1 0x20 ADD SWAP2 PUSH2 0x6FB JUMP JUMPDEST DUP3 ADD SWAP2 SWAP1 PUSH1 0x0 MSTORE PUSH1 0x20 PUSH1 0x0 KECCAK256 SWAP1 JUMPDEST DUP2 SLOAD DUP2 MSTORE SWAP1 PUSH1 0x1 ADD SWAP1 PUSH1 0x20 ADD DUP1 DUP4 GT PUSH2 0x6DE JUMPI DUP3 SWAP1 SUB PUSH1 0x1F AND DUP3 ADD SWAP2 JUMPDEST POP POP POP POP POP DUP2 MSTORE PUSH1 0x20 ADD PUSH1 0x3 DUP3 ADD SLOAD DUP2 MSTORE POP POP SWAP1 POP PUSH1 0x40 MLOAD DUP1 PUSH1 0x80 ADD PUSH1 0x40 MSTORE DUP1 DUP3 PUSH1 0x0 ADD MLOAD DUP2 MSTORE PUSH1 0x20 ADD DUP3 PUSH1 0x20 ADD MLOAD DUP2 MSTORE PUSH1 0x20 ADD PUSH2 0x73C DUP4 PUSH1 0x40 ADD MLOAD PUSH2 0x222 JUMP JUMPDEST DUP2 MSTORE PUSH1 0x20 ADD DUP3 PUSH1 0x60 ADD MLOAD DUP2 MSTORE POP SWAP2 POP POP SWAP2 SWAP1 POP JUMP JUMPDEST PUSH1 0x60 PUSH1 0x0 PUSH2 0x75E CALLER PUSH2 0x130D JUMP JUMPDEST SWAP1 POP DUP3 DUP5 LT DUP1 ISZERO PUSH2 0x76F JUMPI POP PUSH1 0x0 DUP4 GT JUMPDEST ISZERO PUSH2 0x7E8 JUMPI PUSH2 0x77E DUP5 DUP5 PUSH2 0x13A4 JUMP JUMPDEST SWAP1 POP PUSH1 0x0 DUP2 MLOAD EQ ISZERO PUSH2 0x7E7 JUMPI PUSH1 0x0 PUSH8 0xFFFFFFFFFFFFFFFF DUP2 GT ISZERO PUSH2 0x7A5 JUMPI PUSH2 0x7A4 PUSH2 0x257B JUMP JUMPDEST JUMPDEST PUSH1 0x40 MLOAD SWAP1 DUP1 DUP3 MSTORE DUP1 PUSH1 0x20 MUL PUSH1 0x20 ADD DUP3 ADD PUSH1 0x40 MSTORE DUP1 ISZERO PUSH2 0x7DE JUMPI DUP2 PUSH1 0x20 ADD JUMPDEST PUSH2 0x7CB PUSH2 0x17BA JUMP JUMPDEST DUP2 MSTORE PUSH1 0x20 ADD SWAP1 PUSH1 0x1 SWAP1 SUB SWAP1 DUP2 PUSH2 0x7C3 JUMPI SWAP1 POP JUMPDEST POP SWAP2 POP POP PUSH2 0x955 JUMP JUMPDEST JUMPDEST PUSH1 0x0 PUSH2 0x7F4 DUP7 DUP4 PUSH2 0x152B JUMP JUMPDEST SWAP1 POP PUSH1 0x0 DUP2 MLOAD EQ ISZERO PUSH2 0x85E JUMPI PUSH1 0x0 PUSH8 0xFFFFFFFFFFFFFFFF DUP2 GT ISZERO PUSH2 0x81B JUMPI PUSH2 0x81A PUSH2 0x257B JUMP JUMPDEST JUMPDEST PUSH1 0x40 MLOAD SWAP1 DUP1 DUP3 MSTORE DUP1 PUSH1 0x20 MUL PUSH1 0x20 ADD DUP3 ADD PUSH1 0x40 MSTORE DUP1 ISZERO PUSH2 0x854 JUMPI DUP2 PUSH1 0x20 ADD JUMPDEST PUSH2 0x841 PUSH2 0x17BA JUMP JUMPDEST DUP2 MSTORE PUSH1 0x20 ADD SWAP1 PUSH1 0x1 SWAP1 SUB SWAP1 DUP2 PUSH2 0x839 JUMPI SWAP1 POP JUMPDEST POP SWAP3 POP POP POP PUSH2 0x955 JUMP JUMPDEST PUSH1 0x0 DUP1 DUP3 MLOAD PUSH8 0xFFFFFFFFFFFFFFFF DUP2 GT ISZERO PUSH2 0x87C JUMPI PUSH2 0x87B PUSH2 0x257B JUMP JUMPDEST JUMPDEST PUSH1 0x40 MLOAD SWAP1 DUP1 DUP3 MSTORE DUP1 PUSH1 0x20 MUL PUSH1 0x20 ADD DUP3 ADD PUSH1 0x40 MSTORE DUP1 ISZERO PUSH2 0x8B5 JUMPI DUP2 PUSH1 0x20 ADD JUMPDEST PUSH2 0x8A2 PUSH2 0x17BA JUMP JUMPDEST DUP2 MSTORE PUSH1 0x20 ADD SWAP1 PUSH1 0x1 SWAP1 SUB SWAP1 DUP2 PUSH2 0x89A JUMPI SWAP1 POP JUMPDEST POP SWAP1 POP PUSH1 0x0 PUSH1 0x1 DUP5 MLOAD PUSH2 0x8C8 SWAP2 SWAP1 PUSH2 0x22B8 JUMP JUMPDEST SWAP1 POP JUMPDEST DUP4 MLOAD DUP4 LT ISZERO PUSH2 0x94C JUMPI PUSH2 0x8F7 DUP5 DUP3 DUP2 MLOAD DUP2 LT PUSH2 0x8EA JUMPI PUSH2 0x8E9 PUSH2 0x254C JUMP JUMPDEST JUMPDEST PUSH1 0x20 MUL PUSH1 0x20 ADD ADD MLOAD PUSH2 0x4E9 JUMP JUMPDEST DUP3 DUP5 DUP2 MLOAD DUP2 LT PUSH2 0x90A JUMPI PUSH2 0x909 PUSH2 0x254C JUMP JUMPDEST JUMPDEST PUSH1 0x20 MUL PUSH1 0x20 ADD ADD DUP2 SWAP1 MSTORE POP DUP3 DUP1 PUSH2 0x920 SWAP1 PUSH2 0x240D JUMP JUMPDEST SWAP4 POP POP PUSH1 0x0 DUP2 EQ ISZERO PUSH2 0x939 JUMPI DUP2 SWAP6 POP POP POP POP POP POP PUSH2 0x955 JUMP JUMPDEST DUP1 DUP1 PUSH2 0x944 SWAP1 PUSH2 0x2380 JUMP JUMPDEST SWAP2 POP POP PUSH2 0x8CB JUMP JUMPDEST POP DUP1 SWAP5 POP POP POP POP POP JUMPDEST SWAP4 SWAP3 POP POP POP JUMP JUMPDEST PUSH1 0x60 PUSH1 0x0 DUP1 SHL PUSH1 0x0 DUP1 CALLER PUSH20 0xFFFFFFFFFFFFFFFFFFFFFFFFFFFFFFFFFFFFFFFF AND PUSH20 0xFFFFFFFFFFFFFFFFFFFFFFFFFFFFFFFFFFFFFFFF AND DUP2 MSTORE PUSH1 0x20 ADD SWAP1 DUP2 MSTORE PUSH1 0x20 ADD PUSH1 0x0 KECCAK256 SLOAD EQ ISZERO PUSH2 0x9E4 JUMPI PUSH1 0x40 MLOAD DUP1 PUSH1 0x40 ADD PUSH1 0x40 MSTORE DUP1 PUSH1 0x13 DUP2 MSTORE PUSH1 0x20 ADD PUSH32 0x506C65617365206372656174652061206B657900000000000000000000000000 DUP2 MSTORE POP SWAP1 POP PUSH2 0xB85 JUMP JUMPDEST PUSH1 0x0 PUSH1 0x40 MLOAD DUP1 PUSH1 0x40 ADD PUSH1 0x40 MSTORE DUP1 PUSH1 0x10 DUP2 MSTORE PUSH1 0x20 ADD PUSH32 0x3031323334353637383961626364656600000000000000000000000000000000 DUP2 MSTORE POP SWAP1 POP PUSH1 0x0 DUP4 SWAP1 POP PUSH1 0x0 DUP2 MLOAD PUSH8 0xFFFFFFFFFFFFFFFF DUP2 GT ISZERO PUSH2 0xA40 JUMPI PUSH2 0xA3F PUSH2 0x257B JUMP JUMPDEST JUMPDEST PUSH1 0x40 MLOAD SWAP1 DUP1 DUP3 MSTORE DUP1 PUSH1 0x1F ADD PUSH1 0x1F NOT AND PUSH1 0x20 ADD DUP3 ADD PUSH1 0x40 MSTORE DUP1 ISZERO PUSH2 0xA72 JUMPI DUP2 PUSH1 0x20 ADD PUSH1 0x1 DUP3 MUL DUP1 CALLDATASIZE DUP4 CALLDATACOPY DUP1 DUP3 ADD SWAP2 POP POP SWAP1 POP JUMPDEST POP SWAP1 POP PUSH1 0x0 DUP1 PUSH1 0x0 CALLER PUSH20 0xFFFFFFFFFFFFFFFFFFFFFFFFFFFFFFFFFFFFFFFF AND PUSH20 0xFFFFFFFFFFFFFFFFFFFFFFFFFFFFFFFFFFFFFFFF AND DUP2 MSTORE PUSH1 0x20 ADD SWAP1 DUP2 MSTORE PUSH1 0x20 ADD PUSH1 0x0 KECCAK256 SLOAD SWAP1 POP PUSH1 0x0 JUMPDEST DUP4 MLOAD DUP2 LT ISZERO PUSH2 0xB5B JUMPI DUP2 PUSH1 0x20 DUP3 PUSH2 0xAD2 SWAP2 SWAP1 PUSH2 0x248E JUMP JUMPDEST PUSH1 0x20 DUP2 LT PUSH2 0xAE3 JUMPI PUSH2 0xAE2 PUSH2 0x254C JUMP JUMPDEST JUMPDEST BYTE PUSH1 0xF8 SHL DUP5 DUP3 DUP2 MLOAD DUP2 LT PUSH2 0xAFA JUMPI PUSH2 0xAF9 PUSH2 0x254C JUMP JUMPDEST JUMPDEST PUSH1 0x20 ADD ADD MLOAD PUSH1 0xF8 SHR PUSH1 0xF8 SHL XOR DUP4 DUP3 DUP2 MLOAD DUP2 LT PUSH2 0xB19 JUMPI PUSH2 0xB18 PUSH2 0x254C JUMP JUMPDEST JUMPDEST PUSH1 0x20 ADD ADD SWAP1 PUSH31 0xFFFFFFFFFFFFFFFFFFFFFFFFFFFFFFFFFFFFFFFFFFFFFFFFFFFFFFFFFFFFFF NOT AND SWAP1 DUP2 PUSH1 0x0 BYTE SWAP1 MSTORE8 POP DUP1 DUP1 PUSH2 0xB53 SWAP1 PUSH2 0x240D JUMP JUMPDEST SWAP2 POP POP PUSH2 0xABB JUMP JUMPDEST POP DUP4 DUP3 PUSH1 0x40 MLOAD PUSH1 0x20 ADD PUSH2 0xB6F SWAP3 SWAP2 SWAP1 PUSH2 0x1F97 JUMP JUMPDEST PUSH1 0x40 MLOAD PUSH1 0x20 DUP2 DUP4 SUB SUB DUP2 MSTORE SWAP1 PUSH1 0x40 MSTORE SWAP5 POP POP POP POP POP JUMPDEST SWAP2 SWAP1 POP JUMP JUMPDEST PUSH1 0x0 DUP1 DUP4 SWAP1 POP PUSH1 0x0 DUP4 SWAP1 POP DUP2 MLOAD DUP2 MLOAD GT ISZERO PUSH2 0xBAA JUMPI PUSH1 0x0 SWAP3 POP POP POP PUSH2 0xCE0 JUMP JUMPDEST DUP2 MLOAD DUP2 MLOAD EQ ISZERO PUSH2 0xBCE JUMPI DUP1 DUP1 MLOAD SWAP1 PUSH1 0x20 ADD KECCAK256 DUP3 DUP1 MLOAD SWAP1 PUSH1 0x20 ADD KECCAK256 EQ SWAP3 POP POP POP PUSH2 0xCE0 JUMP JUMPDEST PUSH1 0x0 JUMPDEST PUSH1 0x1 DUP3 MLOAD DUP5 MLOAD PUSH2 0xBE1 SWAP2 SWAP1 PUSH2 0x22B8 JUMP JUMPDEST PUSH2 0xBEB SWAP2 SWAP1 PUSH2 0x2262 JUMP JUMPDEST DUP2 LT ISZERO PUSH2 0xCD8 JUMPI PUSH1 0x0 PUSH1 0x1 SWAP1 POP PUSH1 0x0 JUMPDEST DUP4 MLOAD DUP2 LT ISZERO PUSH2 0xCB0 JUMPI DUP4 DUP2 DUP2 MLOAD DUP2 LT PUSH2 0xC17 JUMPI PUSH2 0xC16 PUSH2 0x254C JUMP JUMPDEST JUMPDEST PUSH1 0x20 ADD ADD MLOAD PUSH1 0xF8 SHR PUSH1 0xF8 SHL PUSH31 0xFFFFFFFFFFFFFFFFFFFFFFFFFFFFFFFFFFFFFFFFFFFFFFFFFFFFFFFFFFFFFF NOT AND DUP6 DUP3 DUP6 PUSH2 0xC51 SWAP2 SWAP1 PUSH2 0x2262 JUMP JUMPDEST DUP2 MLOAD DUP2 LT PUSH2 0xC62 JUMPI PUSH2 0xC61 PUSH2 0x254C JUMP JUMPDEST JUMPDEST PUSH1 0x20 ADD ADD MLOAD PUSH1 0xF8 SHR PUSH1 0xF8 SHL PUSH31 0xFFFFFFFFFFFFFFFFFFFFFFFFFFFFFFFFFFFFFFFFFFFFFFFFFFFFFFFFFFFFFF NOT AND EQ PUSH2 0xC9D JUMPI PUSH1 0x0 SWAP2 POP PUSH2 0xCB0 JUMP JUMPDEST DUP1 DUP1 PUSH2 0xCA8 SWAP1 PUSH2 0x240D JUMP JUMPDEST SWAP2 POP POP PUSH2 0xBFB JUMP JUMPDEST POP DUP1 ISZERO PUSH2 0xCC4 JUMPI PUSH1 0x1 SWAP5 POP POP POP POP POP PUSH2 0xCE0 JUMP JUMPDEST POP DUP1 DUP1 PUSH2 0xCD0 SWAP1 PUSH2 0x240D JUMP JUMPDEST SWAP2 POP POP PUSH2 0xBD1 JUMP JUMPDEST POP PUSH1 0x0 SWAP3 POP POP POP JUMPDEST SWAP3 SWAP2 POP POP JUMP JUMPDEST PUSH1 0x60 PUSH1 0x0 DUP1 SHL PUSH1 0x0 DUP1 CALLER PUSH20 0xFFFFFFFFFFFFFFFFFFFFFFFFFFFFFFFFFFFFFFFF AND PUSH20 0xFFFFFFFFFFFFFFFFFFFFFFFFFFFFFFFFFFFFFFFF AND DUP2 MSTORE PUSH1 0x20 ADD SWAP1 DUP2 MSTORE PUSH1 0x20 ADD PUSH1 0x0 KECCAK256 SLOAD EQ PUSH2 0xD6D JUMPI PUSH1 0x40 MLOAD DUP1 PUSH1 0x40 ADD PUSH1 0x40 MSTORE DUP1 PUSH1 0x13 DUP2 MSTORE PUSH1 0x20 ADD PUSH32 0x43616E6E6F742062652072656372656174656400000000000000000000000000 DUP2 MSTORE POP SWAP1 POP PUSH2 0xE28 JUMP JUMPDEST PUSH1 0x0 TIMESTAMP CALLER PUSH1 0x1 NUMBER PUSH2 0xD7E SWAP2 SWAP1 PUSH2 0x22B8 JUMP JUMPDEST BLOCKHASH GASLIMIT PUSH1 0x40 MLOAD PUSH1 0x20 ADD PUSH2 0xD93 SWAP5 SWAP4 SWAP3 SWAP2 SWAP1 PUSH2 0x1FF8 JUMP JUMPDEST PUSH1 0x40 MLOAD PUSH1 0x20 DUP2 DUP4 SUB SUB DUP2 MSTORE SWAP1 PUSH1 0x40 MSTORE DUP1 MLOAD SWAP1 PUSH1 0x20 ADD KECCAK256 SWAP1 POP DUP1 PUSH1 0x0 DUP1 CALLER PUSH20 0xFFFFFFFFFFFFFFFFFFFFFFFFFFFFFFFFFFFFFFFF AND PUSH20 0xFFFFFFFFFFFFFFFFFFFFFFFFFFFFFFFFFFFFFFFF AND DUP2 MSTORE PUSH1 0x20 ADD SWAP1 DUP2 MSTORE PUSH1 0x20 ADD PUSH1 0x0 KECCAK256 DUP2 SWAP1 SSTORE POP PUSH1 0x40 MLOAD DUP1 PUSH1 0x40 ADD PUSH1 0x40 MSTORE DUP1 PUSH1 0x7 DUP2 MSTORE PUSH1 0x20 ADD PUSH32 0x5375636365737300000000000000000000000000000000000000000000000000 DUP2 MSTORE POP SWAP2 POP POP JUMPDEST SWAP1 JUMP JUMPDEST PUSH2 0xE33 PUSH2 0xCE6 JUMP JUMPDEST POP PUSH1 0x0 PUSH2 0xE3F DUP3 PUSH2 0x95C JUMP JUMPDEST SWAP1 POP PUSH1 0x0 TIMESTAMP SWAP1 POP PUSH1 0x0 CALLER SWAP1 POP PUSH1 0x0 PUSH1 0x40 MLOAD DUP1 PUSH1 0x80 ADD PUSH1 0x40 MSTORE DUP1 DUP9 DUP2 MSTORE PUSH1 0x20 ADD DUP8 DUP2 MSTORE PUSH1 0x20 ADD DUP6 DUP2 MSTORE PUSH1 0x20 ADD DUP5 DUP2 MSTORE POP SWAP1 POP DUP1 PUSH1 0x2 PUSH1 0x0 DUP5 PUSH20 0xFFFFFFFFFFFFFFFFFFFFFFFFFFFFFFFFFFFFFFFF AND PUSH20 0xFFFFFFFFFFFFFFFFFFFFFFFFFFFFFFFFFFFFFFFF AND DUP2 MSTORE PUSH1 0x20 ADD SWAP1 DUP2 MSTORE PUSH1 0x20 ADD PUSH1 0x0 KECCAK256 PUSH1 0x0 DUP6 DUP2 MSTORE PUSH1 0x20 ADD SWAP1 DUP2 MSTORE PUSH1 0x20 ADD PUSH1 0x0 KECCAK256 PUSH1 0x0 DUP3 ADD MLOAD DUP2 PUSH1 0x0 ADD SWAP1 DUP1 MLOAD SWAP1 PUSH1 0x20 ADD SWAP1 PUSH2 0xEDD SWAP3 SWAP2 SWAP1 PUSH2 0x17E2 JUMP JUMPDEST POP PUSH1 0x20 DUP3 ADD MLOAD DUP2 PUSH1 0x1 ADD SWAP1 DUP1 MLOAD SWAP1 PUSH1 0x20 ADD SWAP1 PUSH2 0xEFA SWAP3 SWAP2 SWAP1 PUSH2 0x17E2 JUMP JUMPDEST POP PUSH1 0x40 DUP3 ADD MLOAD DUP2 PUSH1 0x2 ADD SWAP1 DUP1 MLOAD SWAP1 PUSH1 0x20 ADD SWAP1 PUSH2 0xF17 SWAP3 SWAP2 SWAP1 PUSH2 0x17E2 JUMP JUMPDEST POP PUSH1 0x60 DUP3 ADD MLOAD DUP2 PUSH1 0x3 ADD SSTORE SWAP1 POP POP PUSH1 0x1 PUSH1 0x0 DUP4 PUSH20 0xFFFFFFFFFFFFFFFFFFFFFFFFFFFFFFFFFFFFFFFF AND PUSH20 0xFFFFFFFFFFFFFFFFFFFFFFFFFFFFFFFFFFFFFFFF AND DUP2 MSTORE PUSH1 0x20 ADD SWAP1 DUP2 MSTORE PUSH1 0x20 ADD PUSH1 0x0 KECCAK256 DUP4 SWAP1 DUP1 PUSH1 0x1 DUP2 SLOAD ADD DUP1 DUP3 SSTORE DUP1 SWAP2 POP POP PUSH1 0x1 SWAP1 SUB SWAP1 PUSH1 0x0 MSTORE PUSH1 0x20 PUSH1 0x0 KECCAK256 ADD PUSH1 0x0 SWAP1 SWAP2 SWAP1 SWAP2 SWAP1 SWAP2 POP SSTORE PUSH32 0xFB39D8078D13507639D79325F273C978A8239A922E3B1D166B5DF17113991FA DUP8 DUP8 DUP7 DUP7 PUSH1 0x40 MLOAD PUSH2 0xFC0 SWAP5 SWAP4 SWAP3 SWAP2 SWAP1 PUSH2 0x20C7 JUMP JUMPDEST PUSH1 0x40 MLOAD DUP1 SWAP2 SUB SWAP1 LOG1 POP POP POP POP POP POP POP JUMP JUMPDEST PUSH1 0x60 PUSH1 0x0 DUP3 PUSH1 0x40 MLOAD PUSH1 0x20 ADD PUSH2 0xFE6 SWAP2 SWAP1 PUSH2 0x1FBB JUMP JUMPDEST PUSH1 0x40 MLOAD PUSH1 0x20 DUP2 DUP4 SUB SUB DUP2 MSTORE SWAP1 PUSH1 0x40 MSTORE DUP1 MLOAD SWAP1 PUSH1 0x20 ADD KECCAK256 SWAP1 POP PUSH1 0x0 DUP2 CALLER PUSH1 0x40 MLOAD PUSH1 0x20 ADD PUSH2 0x1013 SWAP3 SWAP2 SWAP1 PUSH2 0x1F6B JUMP JUMPDEST PUSH1 0x40 MLOAD PUSH1 0x20 DUP2 DUP4 SUB SUB DUP2 MSTORE SWAP1 PUSH1 0x40 MSTORE DUP1 MLOAD SWAP1 PUSH1 0x20 ADD KECCAK256 SWAP1 POP PUSH1 0x0 DUP2 PUSH1 0x40 MLOAD PUSH1 0x20 ADD PUSH2 0x103E SWAP2 SWAP1 PUSH2 0x1FD2 JUMP JUMPDEST PUSH1 0x40 MLOAD PUSH1 0x20 DUP2 DUP4 SUB SUB DUP2 MSTORE SWAP1 PUSH1 0x40 MSTORE SWAP1 POP DUP1 SWAP4 POP POP POP POP SWAP2 SWAP1 POP JUMP JUMPDEST PUSH1 0x60 PUSH1 0x0 PUSH2 0x1067 CALLER PUSH2 0x130D JUMP JUMPDEST SWAP1 POP DUP5 DUP7 LT DUP1 ISZERO PUSH2 0x1078 JUMPI POP PUSH1 0x0 DUP6 GT JUMPDEST ISZERO PUSH2 0x10F1 JUMPI PUSH2 0x1087 DUP7 DUP7 PUSH2 0x13A4 JUMP JUMPDEST SWAP1 POP PUSH1 0x0 DUP2 MLOAD EQ ISZERO PUSH2 0x10F0 JUMPI PUSH1 0x0 PUSH8 0xFFFFFFFFFFFFFFFF DUP2 GT ISZERO PUSH2 0x10AE JUMPI PUSH2 0x10AD PUSH2 0x257B JUMP JUMPDEST JUMPDEST PUSH1 0x40 MLOAD SWAP1 DUP1 DUP3 MSTORE DUP1 PUSH1 0x20 MUL PUSH1 0x20 ADD DUP3 ADD PUSH1 0x40 MSTORE DUP1 ISZERO PUSH2 0x10E7 JUMPI DUP2 PUSH1 0x20 ADD JUMPDEST PUSH2 0x10D4 PUSH2 0x17BA JUMP JUMPDEST DUP2 MSTORE PUSH1 0x20 ADD SWAP1 PUSH1 0x1 SWAP1 SUB SWAP1 DUP2 PUSH2 0x10CC JUMPI SWAP1 POP JUMPDEST POP SWAP2 POP POP PUSH2 0x1304 JUMP JUMPDEST JUMPDEST PUSH1 0x0 PUSH2 0x10FD DUP9 DUP4 PUSH2 0x152B JUMP JUMPDEST SWAP1 POP PUSH1 0x0 PUSH1 0x60 PUSH1 0x0 DUP8 DUP5 MLOAD PUSH2 0x1112 SWAP2 SWAP1 PUSH2 0x22B8 JUMP JUMPDEST SWAP1 POP PUSH1 0x0 DUP2 GT PUSH2 0x117D JUMPI PUSH1 0x0 PUSH8 0xFFFFFFFFFFFFFFFF DUP2 GT ISZERO PUSH2 0x1137 JUMPI PUSH2 0x1136 PUSH2 0x257B JUMP JUMPDEST JUMPDEST PUSH1 0x40 MLOAD SWAP1 DUP1 DUP3 MSTORE DUP1 PUSH1 0x20 MUL PUSH1 0x20 ADD DUP3 ADD PUSH1 0x40 MSTORE DUP1 ISZERO PUSH2 0x1170 JUMPI DUP2 PUSH1 0x20 ADD JUMPDEST PUSH2 0x115D PUSH2 0x17BA JUMP JUMPDEST DUP2 MSTORE PUSH1 0x20 ADD SWAP1 PUSH1 0x1 SWAP1 SUB SWAP1 DUP2 PUSH2 0x1155 JUMPI SWAP1 POP JUMPDEST POP SWAP6 POP POP POP POP POP POP PUSH2 0x1304 JUMP JUMPDEST DUP7 DUP2 GT DUP1 ISZERO PUSH2 0x118C JUMPI POP PUSH1 0x0 DUP8 GT JUMPDEST ISZERO PUSH2 0x11EC JUMPI DUP7 PUSH8 0xFFFFFFFFFFFFFFFF DUP2 GT ISZERO PUSH2 0x11AB JUMPI PUSH2 0x11AA PUSH2 0x257B JUMP JUMPDEST JUMPDEST PUSH1 0x40 MLOAD SWAP1 DUP1 DUP3 MSTORE DUP1 PUSH1 0x20 MUL PUSH1 0x20 ADD DUP3 ADD PUSH1 0x40 MSTORE DUP1 ISZERO PUSH2 0x11E4 JUMPI DUP2 PUSH1 0x20 ADD JUMPDEST PUSH2 0x11D1 PUSH2 0x17BA JUMP JUMPDEST DUP2 MSTORE PUSH1 0x20 ADD SWAP1 PUSH1 0x1 SWAP1 SUB SWAP1 DUP2 PUSH2 0x11C9 JUMPI SWAP1 POP JUMPDEST POP SWAP2 POP PUSH2 0x1243 JUMP JUMPDEST DUP1 PUSH8 0xFFFFFFFFFFFFFFFF DUP2 GT ISZERO PUSH2 0x1206 JUMPI PUSH2 0x1205 PUSH2 0x257B JUMP JUMPDEST JUMPDEST PUSH1 0x40 MLOAD SWAP1 DUP1 DUP3 MSTORE DUP1 PUSH1 0x20 MUL PUSH1 0x20 ADD DUP3 ADD PUSH1 0x40 MSTORE DUP1 ISZERO PUSH2 0x123F JUMPI DUP2 PUSH1 0x20 ADD JUMPDEST PUSH2 0x122C PUSH2 0x17BA JUMP JUMPDEST DUP2 MSTORE PUSH1 0x20 ADD SWAP1 PUSH1 0x1 SWAP1 SUB SWAP1 DUP2 PUSH2 0x1224 JUMPI SWAP1 POP JUMPDEST POP SWAP2 POP JUMPDEST PUSH1 0x0 PUSH1 0x1 DUP3 PUSH2 0x1252 SWAP2 SWAP1 PUSH2 0x22B8 JUMP JUMPDEST SWAP1 POP JUMPDEST DUP5 MLOAD DUP5 LT ISZERO PUSH2 0x12FA JUMPI PUSH2 0x1281 DUP6 DUP3 DUP2 MLOAD DUP2 LT PUSH2 0x1274 JUMPI PUSH2 0x1273 PUSH2 0x254C JUMP JUMPDEST JUMPDEST PUSH1 0x20 MUL PUSH1 0x20 ADD ADD MLOAD PUSH2 0x4E9 JUMP JUMPDEST DUP4 DUP6 DUP2 MLOAD DUP2 LT PUSH2 0x1294 JUMPI PUSH2 0x1293 PUSH2 0x254C JUMP JUMPDEST JUMPDEST PUSH1 0x20 MUL PUSH1 0x20 ADD ADD DUP2 SWAP1 MSTORE POP PUSH1 0x1 DUP4 MLOAD PUSH2 0x12AD SWAP2 SWAP1 PUSH2 0x22B8 JUMP JUMPDEST DUP5 EQ ISZERO PUSH2 0x12C2 JUMPI DUP3 SWAP7 POP POP POP POP POP POP POP PUSH2 0x1304 JUMP JUMPDEST DUP4 DUP1 PUSH2 0x12CD SWAP1 PUSH2 0x240D JUMP JUMPDEST SWAP5 POP POP PUSH1 0x0 DUP2 EQ ISZERO PUSH2 0x12E7 JUMPI DUP3 SWAP7 POP POP POP POP POP POP POP PUSH2 0x1304 JUMP JUMPDEST DUP1 DUP1 PUSH2 0x12F2 SWAP1 PUSH2 0x2380 JUMP JUMPDEST SWAP2 POP POP PUSH2 0x1255 JUMP JUMPDEST POP DUP2 SWAP6 POP POP POP POP POP POP JUMPDEST SWAP6 SWAP5 POP POP POP POP POP JUMP JUMPDEST PUSH1 0x60 PUSH1 0x1 PUSH1 0x0 DUP4 PUSH20 0xFFFFFFFFFFFFFFFFFFFFFFFFFFFFFFFFFFFFFFFF AND PUSH20 0xFFFFFFFFFFFFFFFFFFFFFFFFFFFFFFFFFFFFFFFF AND DUP2 MSTORE PUSH1 0x20 ADD SWAP1 DUP2 MSTORE PUSH1 0x20 ADD PUSH1 0x0 KECCAK256 DUP1 SLOAD DUP1 PUSH1 0x20 MUL PUSH1 0x20 ADD PUSH1 0x40 MLOAD SWAP1 DUP2 ADD PUSH1 0x40 MSTORE DUP1 SWAP3 SWAP2 SWAP1 DUP2 DUP2 MSTORE PUSH1 0x20 ADD DUP3 DUP1 SLOAD DUP1 ISZERO PUSH2 0x1398 JUMPI PUSH1 0x20 MUL DUP3 ADD SWAP2 SWAP1 PUSH1 0x0 MSTORE PUSH1 0x20 PUSH1 0x0 KECCAK256 SWAP1 JUMPDEST DUP2 SLOAD DUP2 MSTORE PUSH1 0x20 ADD SWAP1 PUSH1 0x1 ADD SWAP1 DUP1 DUP4 GT PUSH2 0x1384 JUMPI JUMPDEST POP POP POP POP POP SWAP1 POP SWAP2 SWAP1 POP JUMP JUMPDEST PUSH1 0x60 PUSH1 0x0 DUP1 PUSH1 0x0 PUSH2 0x13B4 CALLER PUSH2 0x130D JUMP JUMPDEST SWAP1 POP PUSH1 0x0 DUP2 MLOAD SWAP1 POP PUSH1 0x0 JUMPDEST DUP2 DUP2 LT ISZERO PUSH2 0x1435 JUMPI DUP8 DUP4 DUP3 DUP2 MLOAD DUP2 LT PUSH2 0x13DB JUMPI PUSH2 0x13DA PUSH2 0x254C JUMP JUMPDEST JUMPDEST PUSH1 0x20 MUL PUSH1 0x20 ADD ADD MLOAD LT ISZERO DUP1 ISZERO PUSH2 0x140B JUMPI POP DUP7 DUP4 DUP3 DUP2 MLOAD DUP2 LT PUSH2 0x1400 JUMPI PUSH2 0x13FF PUSH2 0x254C JUMP JUMPDEST JUMPDEST PUSH1 0x20 MUL PUSH1 0x20 ADD ADD MLOAD GT ISZERO JUMPDEST ISZERO PUSH2 0x1422 JUMPI DUP5 DUP1 PUSH2 0x141B SWAP1 PUSH2 0x240D JUMP JUMPDEST SWAP6 POP POP DUP1 SWAP4 POP JUMPDEST DUP1 DUP1 PUSH2 0x142D SWAP1 PUSH2 0x240D JUMP JUMPDEST SWAP2 POP POP PUSH2 0x13BF JUMP JUMPDEST POP PUSH1 0x0 DUP5 PUSH8 0xFFFFFFFFFFFFFFFF DUP2 GT ISZERO PUSH2 0x1452 JUMPI PUSH2 0x1451 PUSH2 0x257B JUMP JUMPDEST JUMPDEST PUSH1 0x40 MLOAD SWAP1 DUP1 DUP3 MSTORE DUP1 PUSH1 0x20 MUL PUSH1 0x20 ADD DUP3 ADD PUSH1 0x40 MSTORE DUP1 ISZERO PUSH2 0x1480 JUMPI DUP2 PUSH1 0x20 ADD PUSH1 0x20 DUP3 MUL DUP1 CALLDATASIZE DUP4 CALLDATACOPY DUP1 DUP3 ADD SWAP2 POP POP SWAP1 POP JUMPDEST POP SWAP1 POP PUSH1 0x0 DUP6 EQ PUSH2 0x151C JUMPI PUSH1 0x1 DUP5 PUSH2 0x1498 SWAP2 SWAP1 PUSH2 0x2262 JUMP JUMPDEST SWAP4 POP PUSH1 0x0 DUP1 DUP7 DUP7 PUSH2 0x14A9 SWAP2 SWAP1 PUSH2 0x22B8 JUMP JUMPDEST SWAP1 POP JUMPDEST DUP6 DUP2 LT ISZERO PUSH2 0x150D JUMPI DUP5 DUP2 DUP2 MLOAD DUP2 LT PUSH2 0x14C7 JUMPI PUSH2 0x14C6 PUSH2 0x254C JUMP JUMPDEST JUMPDEST PUSH1 0x20 MUL PUSH1 0x20 ADD ADD MLOAD DUP4 DUP4 DUP1 PUSH2 0x14DB SWAP1 PUSH2 0x240D JUMP JUMPDEST SWAP5 POP DUP2 MLOAD DUP2 LT PUSH2 0x14EE JUMPI PUSH2 0x14ED PUSH2 0x254C JUMP JUMPDEST JUMPDEST PUSH1 0x20 MUL PUSH1 0x20 ADD ADD DUP2 DUP2 MSTORE POP POP DUP1 DUP1 PUSH2 0x1505 SWAP1 PUSH2 0x240D JUMP JUMPDEST SWAP2 POP POP PUSH2 0x14AC JUMP JUMPDEST POP DUP2 SWAP7 POP POP POP POP POP POP POP PUSH2 0x1525 JUMP JUMPDEST DUP1 SWAP6 POP POP POP POP POP POP JUMPDEST SWAP3 SWAP2 POP POP JUMP JUMPDEST PUSH1 0x60 PUSH1 0x0 DUP3 MLOAD SWAP1 POP PUSH1 0x0 DUP5 MLOAD EQ DUP1 PUSH2 0x1543 JUMPI POP PUSH1 0x0 DUP2 EQ JUMPDEST ISZERO PUSH2 0x1551 JUMPI DUP3 SWAP2 POP POP PUSH2 0x17B4 JUMP JUMPDEST PUSH1 0x0 DUP1 DUP3 PUSH8 0xFFFFFFFFFFFFFFFF DUP2 GT ISZERO PUSH2 0x156E JUMPI PUSH2 0x156D PUSH2 0x257B JUMP JUMPDEST JUMPDEST PUSH1 0x40 MLOAD SWAP1 DUP1 DUP3 MSTORE DUP1 PUSH1 0x20 MUL PUSH1 0x20 ADD DUP3 ADD PUSH1 0x40 MSTORE DUP1 ISZERO PUSH2 0x159C JUMPI DUP2 PUSH1 0x20 ADD PUSH1 0x20 DUP3 MUL DUP1 CALLDATASIZE DUP4 CALLDATACOPY DUP1 DUP3 ADD SWAP2 POP POP SWAP1 POP JUMPDEST POP SWAP1 POP PUSH1 0x0 JUMPDEST DUP4 DUP2 LT ISZERO PUSH2 0x16FC JUMPI PUSH1 0x0 DUP7 DUP3 DUP2 MLOAD DUP2 LT PUSH2 0x15BF JUMPI PUSH2 0x15BE PUSH2 0x254C JUMP JUMPDEST JUMPDEST PUSH1 0x20 MUL PUSH1 0x20 ADD ADD MLOAD SWAP1 POP PUSH1 0x0 PUSH2 0x16B0 PUSH1 0x2 PUSH1 0x0 CALLER PUSH20 0xFFFFFFFFFFFFFFFFFFFFFFFFFFFFFFFFFFFFFFFF AND PUSH20 0xFFFFFFFFFFFFFFFFFFFFFFFFFFFFFFFFFFFFFFFF AND DUP2 MSTORE PUSH1 0x20 ADD SWAP1 DUP2 MSTORE PUSH1 0x20 ADD PUSH1 0x0 KECCAK256 PUSH1 0x0 DUP5 DUP2 MSTORE PUSH1 0x20 ADD SWAP1 DUP2 MSTORE PUSH1 0x20 ADD PUSH1 0x0 KECCAK256 PUSH1 0x0 ADD DUP1 SLOAD PUSH2 0x162C SWAP1 PUSH2 0x23AA JUMP JUMPDEST DUP1 PUSH1 0x1F ADD PUSH1 0x20 DUP1 SWAP2 DIV MUL PUSH1 0x20 ADD PUSH1 0x40 MLOAD SWAP1 DUP2 ADD PUSH1 0x40 MSTORE DUP1 SWAP3 SWAP2 SWAP1 DUP2 DUP2 MSTORE PUSH1 0x20 ADD DUP3 DUP1 SLOAD PUSH2 0x1658 SWAP1 PUSH2 0x23AA JUMP JUMPDEST DUP1 ISZERO PUSH2 0x16A5 JUMPI DUP1 PUSH1 0x1F LT PUSH2 0x167A JUMPI PUSH2 0x100 DUP1 DUP4 SLOAD DIV MUL DUP4 MSTORE SWAP2 PUSH1 0x20 ADD SWAP2 PUSH2 0x16A5 JUMP JUMPDEST DUP3 ADD SWAP2 SWAP1 PUSH1 0x0 MSTORE PUSH1 0x20 PUSH1 0x0 KECCAK256 SWAP1 JUMPDEST DUP2 SLOAD DUP2 MSTORE SWAP1 PUSH1 0x1 ADD SWAP1 PUSH1 0x20 ADD DUP1 DUP4 GT PUSH2 0x1688 JUMPI DUP3 SWAP1 SUB PUSH1 0x1F AND DUP3 ADD SWAP2 JUMPDEST POP POP POP POP POP DUP11 PUSH2 0xB8A JUMP JUMPDEST SWAP1 POP DUP1 ISZERO PUSH2 0x16E7 JUMPI DUP2 DUP5 DUP7 DUP2 MLOAD DUP2 LT PUSH2 0x16CC JUMPI PUSH2 0x16CB PUSH2 0x254C JUMP JUMPDEST JUMPDEST PUSH1 0x20 MUL PUSH1 0x20 ADD ADD DUP2 DUP2 MSTORE POP POP DUP5 DUP1 PUSH2 0x16E3 SWAP1 PUSH2 0x240D JUMP JUMPDEST SWAP6 POP POP JUMPDEST POP POP DUP1 DUP1 PUSH2 0x16F4 SWAP1 PUSH2 0x240D JUMP JUMPDEST SWAP2 POP POP PUSH2 0x15A2 JUMP JUMPDEST POP PUSH1 0x0 DUP3 PUSH8 0xFFFFFFFFFFFFFFFF DUP2 GT ISZERO PUSH2 0x1719 JUMPI PUSH2 0x1718 PUSH2 0x257B JUMP JUMPDEST JUMPDEST PUSH1 0x40 MLOAD SWAP1 DUP1 DUP3 MSTORE DUP1 PUSH1 0x20 MUL PUSH1 0x20 ADD DUP3 ADD PUSH1 0x40 MSTORE DUP1 ISZERO PUSH2 0x1747 JUMPI DUP2 PUSH1 0x20 ADD PUSH1 0x20 DUP3 MUL DUP1 CALLDATASIZE DUP4 CALLDATACOPY DUP1 DUP3 ADD SWAP2 POP POP SWAP1 POP JUMPDEST POP SWAP1 POP PUSH1 0x0 DUP4 EQ PUSH2 0x17AC JUMPI PUSH1 0x0 JUMPDEST DUP4 DUP2 LT ISZERO PUSH2 0x17AA JUMPI DUP3 DUP2 DUP2 MLOAD DUP2 LT PUSH2 0x1770 JUMPI PUSH2 0x176F PUSH2 0x254C JUMP JUMPDEST JUMPDEST PUSH1 0x20 MUL PUSH1 0x20 ADD ADD MLOAD DUP3 DUP3 DUP2 MLOAD DUP2 LT PUSH2 0x178B JUMPI PUSH2 0x178A PUSH2 0x254C JUMP JUMPDEST JUMPDEST PUSH1 0x20 MUL PUSH1 0x20 ADD ADD DUP2 DUP2 MSTORE POP POP DUP1 DUP1 PUSH2 0x17A2 SWAP1 PUSH2 0x240D JUMP JUMPDEST SWAP2 POP POP PUSH2 0x1755 JUMP JUMPDEST POP JUMPDEST DUP1 SWAP5 POP POP POP POP POP JUMPDEST SWAP3 SWAP2 POP POP JUMP JUMPDEST PUSH1 0x40 MLOAD DUP1 PUSH1 0x80 ADD PUSH1 0x40 MSTORE DUP1 PUSH1 0x60 DUP2 MSTORE PUSH1 0x20 ADD PUSH1 0x60 DUP2 MSTORE PUSH1 0x20 ADD PUSH1 0x60 DUP2 MSTORE PUSH1 0x20 ADD PUSH1 0x0 DUP2 MSTORE POP SWAP1 JUMP JUMPDEST DUP3 DUP1 SLOAD PUSH2 0x17EE SWAP1 PUSH2 0x23AA JUMP JUMPDEST SWAP1 PUSH1 0x0 MSTORE PUSH1 0x20 PUSH1 0x0 KECCAK256 SWAP1 PUSH1 0x1F ADD PUSH1 0x20 SWAP1 DIV DUP2 ADD SWAP3 DUP3 PUSH2 0x1810 JUMPI PUSH1 0x0 DUP6 SSTORE PUSH2 0x1857 JUMP JUMPDEST DUP3 PUSH1 0x1F LT PUSH2 0x1829 JUMPI DUP1 MLOAD PUSH1 0xFF NOT AND DUP4 DUP1 ADD OR DUP6 SSTORE PUSH2 0x1857 JUMP JUMPDEST DUP3 DUP1 ADD PUSH1 0x1 ADD DUP6 SSTORE DUP3 ISZERO PUSH2 0x1857 JUMPI SWAP2 DUP3 ADD JUMPDEST DUP3 DUP2 GT ISZERO PUSH2 0x1856 JUMPI DUP3 MLOAD DUP3 SSTORE SWAP2 PUSH1 0x20 ADD SWAP2 SWAP1 PUSH1 0x1 ADD SWAP1 PUSH2 0x183B JUMP JUMPDEST JUMPDEST POP SWAP1 POP PUSH2 0x1864 SWAP2 SWAP1 PUSH2 0x1868 JUMP JUMPDEST POP SWAP1 JUMP JUMPDEST JUMPDEST DUP1 DUP3 GT ISZERO PUSH2 0x1881 JUMPI PUSH1 0x0 DUP2 PUSH1 0x0 SWAP1 SSTORE POP PUSH1 0x1 ADD PUSH2 0x1869 JUMP JUMPDEST POP SWAP1 JUMP JUMPDEST PUSH1 0x0 PUSH2 0x1898 PUSH2 0x1893 DUP5 PUSH2 0x2168 JUMP JUMPDEST PUSH2 0x2143 JUMP JUMPDEST SWAP1 POP DUP3 DUP2 MSTORE PUSH1 0x20 DUP2 ADD DUP5 DUP5 DUP5 ADD GT ISZERO PUSH2 0x18B4 JUMPI PUSH2 0x18B3 PUSH2 0x25AF JUMP JUMPDEST JUMPDEST PUSH2 0x18BF DUP5 DUP3 DUP6 PUSH2 0x233E JUMP JUMPDEST POP SWAP4 SWAP3 POP POP POP JUMP JUMPDEST PUSH1 0x0 PUSH2 0x18DA PUSH2 0x18D5 DUP5 PUSH2 0x2199 JUMP JUMPDEST PUSH2 0x2143 JUMP JUMPDEST SWAP1 POP DUP3 DUP2 MSTORE PUSH1 0x20 DUP2 ADD DUP5 DUP5 DUP5 ADD GT ISZERO PUSH2 0x18F6 JUMPI PUSH2 0x18F5 PUSH2 0x25AF JUMP JUMPDEST JUMPDEST PUSH2 0x1901 DUP5 DUP3 DUP6 PUSH2 0x233E JUMP JUMPDEST POP SWAP4 SWAP3 POP POP POP JUMP JUMPDEST PUSH1 0x0 DUP3 PUSH1 0x1F DUP4 ADD SLT PUSH2 0x191E JUMPI PUSH2 0x191D PUSH2 0x25AA JUMP JUMPDEST JUMPDEST DUP2 CALLDATALOAD PUSH2 0x192E DUP5 DUP3 PUSH1 0x20 DUP7 ADD PUSH2 0x1885 JUMP JUMPDEST SWAP2 POP POP SWAP3 SWAP2 POP POP JUMP JUMPDEST PUSH1 0x0 DUP3 PUSH1 0x1F DUP4 ADD SLT PUSH2 0x194C JUMPI PUSH2 0x194B PUSH2 0x25AA JUMP JUMPDEST JUMPDEST DUP2 CALLDATALOAD PUSH2 0x195C DUP5 DUP3 PUSH1 0x20 DUP7 ADD PUSH2 0x18C7 JUMP JUMPDEST SWAP2 POP POP SWAP3 SWAP2 POP POP JUMP JUMPDEST PUSH1 0x0 DUP2 CALLDATALOAD SWAP1 POP PUSH2 0x1974 DUP2 PUSH2 0x2605 JUMP JUMPDEST SWAP3 SWAP2 POP POP JUMP JUMPDEST PUSH1 0x0 PUSH1 0x20 DUP3 DUP5 SUB SLT ISZERO PUSH2 0x1990 JUMPI PUSH2 0x198F PUSH2 0x25B9 JUMP JUMPDEST JUMPDEST PUSH1 0x0 DUP3 ADD CALLDATALOAD PUSH8 0xFFFFFFFFFFFFFFFF DUP2 GT ISZERO PUSH2 0x19AE JUMPI PUSH2 0x19AD PUSH2 0x25B4 JUMP JUMPDEST JUMPDEST PUSH2 0x19BA DUP5 DUP3 DUP6 ADD PUSH2 0x1909 JUMP JUMPDEST SWAP2 POP POP SWAP3 SWAP2 POP POP JUMP JUMPDEST PUSH1 0x0 PUSH1 0x20 DUP3 DUP5 SUB SLT ISZERO PUSH2 0x19D9 JUMPI PUSH2 0x19D8 PUSH2 0x25B9 JUMP JUMPDEST JUMPDEST PUSH1 0x0 DUP3 ADD CALLDATALOAD PUSH8 0xFFFFFFFFFFFFFFFF DUP2 GT ISZERO PUSH2 0x19F7 JUMPI PUSH2 0x19F6 PUSH2 0x25B4 JUMP JUMPDEST JUMPDEST PUSH2 0x1A03 DUP5 DUP3 DUP6 ADD PUSH2 0x1937 JUMP JUMPDEST SWAP2 POP POP SWAP3 SWAP2 POP POP JUMP JUMPDEST PUSH1 0x0 DUP1 PUSH1 0x40 DUP4 DUP6 SUB SLT ISZERO PUSH2 0x1A23 JUMPI PUSH2 0x1A22 PUSH2 0x25B9 JUMP JUMPDEST JUMPDEST PUSH1 0x0 DUP4 ADD CALLDATALOAD PUSH8 0xFFFFFFFFFFFFFFFF DUP2 GT ISZERO PUSH2 0x1A41 JUMPI PUSH2 0x1A40 PUSH2 0x25B4 JUMP JUMPDEST JUMPDEST PUSH2 0x1A4D DUP6 DUP3 DUP7 ADD PUSH2 0x1937 JUMP JUMPDEST SWAP3 POP POP PUSH1 0x20 DUP4 ADD CALLDATALOAD PUSH8 0xFFFFFFFFFFFFFFFF DUP2 GT ISZERO PUSH2 0x1A6E JUMPI PUSH2 0x1A6D PUSH2 0x25B4 JUMP JUMPDEST JUMPDEST PUSH2 0x1A7A DUP6 DUP3 DUP7 ADD PUSH2 0x1937 JUMP JUMPDEST SWAP2 POP POP SWAP3 POP SWAP3 SWAP1 POP JUMP JUMPDEST PUSH1 0x0 DUP1 PUSH1 0x0 PUSH1 0x60 DUP5 DUP7 SUB SLT ISZERO PUSH2 0x1A9D JUMPI PUSH2 0x1A9C PUSH2 0x25B9 JUMP JUMPDEST JUMPDEST PUSH1 0x0 DUP5 ADD CALLDATALOAD PUSH8 0xFFFFFFFFFFFFFFFF DUP2 GT ISZERO PUSH2 0x1ABB JUMPI PUSH2 0x1ABA PUSH2 0x25B4 JUMP JUMPDEST JUMPDEST PUSH2 0x1AC7 DUP7 DUP3 DUP8 ADD PUSH2 0x1937 JUMP JUMPDEST SWAP4 POP POP PUSH1 0x20 DUP5 ADD CALLDATALOAD PUSH8 0xFFFFFFFFFFFFFFFF DUP2 GT ISZERO PUSH2 0x1AE8 JUMPI PUSH2 0x1AE7 PUSH2 0x25B4 JUMP JUMPDEST JUMPDEST PUSH2 0x1AF4 DUP7 DUP3 DUP8 ADD PUSH2 0x1937 JUMP JUMPDEST SWAP3 POP POP PUSH1 0x40 DUP5 ADD CALLDATALOAD PUSH8 0xFFFFFFFFFFFFFFFF DUP2 GT ISZERO PUSH2 0x1B15 JUMPI PUSH2 0x1B14 PUSH2 0x25B4 JUMP JUMPDEST JUMPDEST PUSH2 0x1B21 DUP7 DUP3 DUP8 ADD PUSH2 0x1937 JUMP JUMPDEST SWAP2 POP POP SWAP3 POP SWAP3 POP SWAP3 JUMP JUMPDEST PUSH1 0x0 DUP1 PUSH1 0x0 PUSH1 0x60 DUP5 DUP7 SUB SLT ISZERO PUSH2 0x1B44 JUMPI PUSH2 0x1B43 PUSH2 0x25B9 JUMP JUMPDEST JUMPDEST PUSH1 0x0 DUP5 ADD CALLDATALOAD PUSH8 0xFFFFFFFFFFFFFFFF DUP2 GT ISZERO PUSH2 0x1B62 JUMPI PUSH2 0x1B61 PUSH2 0x25B4 JUMP JUMPDEST JUMPDEST PUSH2 0x1B6E DUP7 DUP3 DUP8 ADD PUSH2 0x1937 JUMP JUMPDEST SWAP4 POP POP PUSH1 0x20 PUSH2 0x1B7F DUP7 DUP3 DUP8 ADD PUSH2 0x1965 JUMP JUMPDEST SWAP3 POP POP PUSH1 0x40 PUSH2 0x1B90 DUP7 DUP3 DUP8 ADD PUSH2 0x1965 JUMP JUMPDEST SWAP2 POP POP SWAP3 POP SWAP3 POP SWAP3 JUMP JUMPDEST PUSH1 0x0 DUP1 PUSH1 0x0 DUP1 PUSH1 0x0 PUSH1 0xA0 DUP7 DUP9 SUB SLT ISZERO PUSH2 0x1BB6 JUMPI PUSH2 0x1BB5 PUSH2 0x25B9 JUMP JUMPDEST JUMPDEST PUSH1 0x0 DUP7 ADD CALLDATALOAD PUSH8 0xFFFFFFFFFFFFFFFF DUP2 GT ISZERO PUSH2 0x1BD4 JUMPI PUSH2 0x1BD3 PUSH2 0x25B4 JUMP JUMPDEST JUMPDEST PUSH2 0x1BE0 DUP9 DUP3 DUP10 ADD PUSH2 0x1937 JUMP JUMPDEST SWAP6 POP POP PUSH1 0x20 PUSH2 0x1BF1 DUP9 DUP3 DUP10 ADD PUSH2 0x1965 JUMP JUMPDEST SWAP5 POP POP PUSH1 0x40 PUSH2 0x1C02 DUP9 DUP3 DUP10 ADD PUSH2 0x1965 JUMP JUMPDEST SWAP4 POP POP PUSH1 0x60 PUSH2 0x1C13 DUP9 DUP3 DUP10 ADD PUSH2 0x1965 JUMP JUMPDEST SWAP3 POP POP PUSH1 0x80 PUSH2 0x1C24 DUP9 DUP3 DUP10 ADD PUSH2 0x1965 JUMP JUMPDEST SWAP2 POP POP SWAP3 SWAP6 POP SWAP3 SWAP6 SWAP1 SWAP4 POP JUMP JUMPDEST PUSH1 0x0 PUSH1 0x20 DUP3 DUP5 SUB SLT ISZERO PUSH2 0x1C47 JUMPI PUSH2 0x1C46 PUSH2 0x25B9 JUMP JUMPDEST JUMPDEST PUSH1 0x0 PUSH2 0x1C55 DUP5 DUP3 DUP6 ADD PUSH2 0x1965 JUMP JUMPDEST SWAP2 POP POP SWAP3 SWAP2 POP POP JUMP JUMPDEST PUSH1 0x0 PUSH2 0x1C6A DUP4 DUP4 PUSH2 0x1E54 JUMP JUMPDEST SWAP1 POP SWAP3 SWAP2 POP POP JUMP JUMPDEST PUSH2 0x1C83 PUSH2 0x1C7E DUP3 PUSH2 0x22EC JUMP JUMPDEST PUSH2 0x2456 JUMP JUMPDEST DUP3 MSTORE POP POP JUMP JUMPDEST PUSH1 0x0 PUSH2 0x1C94 DUP3 PUSH2 0x21DA JUMP JUMPDEST PUSH2 0x1C9E DUP2 DUP6 PUSH2 0x2208 JUMP JUMPDEST SWAP4 POP DUP4 PUSH1 0x20 DUP3 MUL DUP6 ADD PUSH2 0x1CB0 DUP6 PUSH2 0x21CA JUMP JUMPDEST DUP1 PUSH1 0x0 JUMPDEST DUP6 DUP2 LT ISZERO PUSH2 0x1CEC JUMPI DUP5 DUP5 SUB DUP10 MSTORE DUP2 MLOAD PUSH2 0x1CCD DUP6 DUP3 PUSH2 0x1C5E JUMP JUMPDEST SWAP5 POP PUSH2 0x1CD8 DUP4 PUSH2 0x21FB JUMP JUMPDEST SWAP3 POP PUSH1 0x20 DUP11 ADD SWAP10 POP POP PUSH1 0x1 DUP2 ADD SWAP1 POP PUSH2 0x1CB4 JUMP JUMPDEST POP DUP3 SWAP8 POP DUP8 SWAP6 POP POP POP POP POP POP SWAP3 SWAP2 POP POP JUMP JUMPDEST PUSH2 0x1D07 DUP2 PUSH2 0x22FE JUMP JUMPDEST DUP3 MSTORE POP POP JUMP JUMPDEST PUSH2 0x1D1E PUSH2 0x1D19 DUP3 PUSH2 0x230A JUMP JUMPDEST PUSH2 0x2468 JUMP JUMPDEST DUP3 MSTORE POP POP JUMP JUMPDEST PUSH1 0x0 PUSH2 0x1D2F DUP3 PUSH2 0x21E5 JUMP JUMPDEST PUSH2 0x1D39 DUP2 DUP6 PUSH2 0x2219 JUMP JUMPDEST SWAP4 POP PUSH2 0x1D49 DUP2 DUP6 PUSH1 0x20 DUP7 ADD PUSH2 0x234D JUMP JUMPDEST PUSH2 0x1D52 DUP2 PUSH2 0x25BE JUMP JUMPDEST DUP5 ADD SWAP2 POP POP SWAP3 SWAP2 POP POP JUMP JUMPDEST PUSH1 0x0 PUSH2 0x1D68 DUP3 PUSH2 0x21E5 JUMP JUMPDEST PUSH2 0x1D72 DUP2 DUP6 PUSH2 0x222A JUMP JUMPDEST SWAP4 POP PUSH2 0x1D82 DUP2 DUP6 PUSH1 0x20 DUP7 ADD PUSH2 0x234D JUMP JUMPDEST DUP1 DUP5 ADD SWAP2 POP POP SWAP3 SWAP2 POP POP JUMP JUMPDEST PUSH1 0x0 PUSH2 0x1D99 DUP3 PUSH2 0x21F0 JUMP JUMPDEST PUSH2 0x1DA3 DUP2 DUP6 PUSH2 0x2235 JUMP JUMPDEST SWAP4 POP PUSH2 0x1DB3 DUP2 DUP6 PUSH1 0x20 DUP7 ADD PUSH2 0x234D JUMP JUMPDEST PUSH2 0x1DBC DUP2 PUSH2 0x25BE JUMP JUMPDEST DUP5 ADD SWAP2 POP POP SWAP3 SWAP2 POP POP JUMP JUMPDEST PUSH1 0x0 PUSH2 0x1DD2 DUP3 PUSH2 0x21F0 JUMP JUMPDEST PUSH2 0x1DDC DUP2 DUP6 PUSH2 0x2246 JUMP JUMPDEST SWAP4 POP PUSH2 0x1DEC DUP2 DUP6 PUSH1 0x20 DUP7 ADD PUSH2 0x234D JUMP JUMPDEST PUSH2 0x1DF5 DUP2 PUSH2 0x25BE JUMP JUMPDEST DUP5 ADD SWAP2 POP POP SWAP3 SWAP2 POP POP JUMP JUMPDEST PUSH1 0x0 PUSH2 0x1E0B DUP3 PUSH2 0x21F0 JUMP JUMPDEST PUSH2 0x1E15 DUP2 DUP6 PUSH2 0x2257 JUMP JUMPDEST SWAP4 POP PUSH2 0x1E25 DUP2 DUP6 PUSH1 0x20 DUP7 ADD PUSH2 0x234D JUMP JUMPDEST DUP1 DUP5 ADD SWAP2 POP POP SWAP3 SWAP2 POP POP JUMP JUMPDEST PUSH1 0x0 PUSH2 0x1E3E PUSH1 0x2 DUP4 PUSH2 0x2257 JUMP JUMPDEST SWAP2 POP PUSH2 0x1E49 DUP3 PUSH2 0x25DC JUMP JUMPDEST PUSH1 0x2 DUP3 ADD SWAP1 POP SWAP2 SWAP1 POP JUMP JUMPDEST PUSH1 0x0 PUSH1 0x80 DUP4 ADD PUSH1 0x0 DUP4 ADD MLOAD DUP5 DUP3 SUB PUSH1 0x0 DUP7 ADD MSTORE PUSH2 0x1E71 DUP3 DUP3 PUSH2 0x1D8E JUMP JUMPDEST SWAP2 POP POP PUSH1 0x20 DUP4 ADD MLOAD DUP5 DUP3 SUB PUSH1 0x20 DUP7 ADD MSTORE PUSH2 0x1E8B DUP3 DUP3 PUSH2 0x1D8E JUMP JUMPDEST SWAP2 POP POP PUSH1 0x40 DUP4 ADD MLOAD DUP5 DUP3 SUB PUSH1 0x40 DUP7 ADD MSTORE PUSH2 0x1EA5 DUP3 DUP3 PUSH2 0x1D8E JUMP JUMPDEST SWAP2 POP POP PUSH1 0x60 DUP4 ADD MLOAD PUSH2 0x1EBA PUSH1 0x60 DUP7 ADD DUP3 PUSH2 0x1F36 JUMP JUMPDEST POP DUP1 SWAP2 POP POP SWAP3 SWAP2 POP POP JUMP JUMPDEST PUSH1 0x0 PUSH1 0x80 DUP4 ADD PUSH1 0x0 DUP4 ADD MLOAD DUP5 DUP3 SUB PUSH1 0x0 DUP7 ADD MSTORE PUSH2 0x1EE2 DUP3 DUP3 PUSH2 0x1D8E JUMP JUMPDEST SWAP2 POP POP PUSH1 0x20 DUP4 ADD MLOAD DUP5 DUP3 SUB PUSH1 0x20 DUP7 ADD MSTORE PUSH2 0x1EFC DUP3 DUP3 PUSH2 0x1D8E JUMP JUMPDEST SWAP2 POP POP PUSH1 0x40 DUP4 ADD MLOAD DUP5 DUP3 SUB PUSH1 0x40 DUP7 ADD MSTORE PUSH2 0x1F16 DUP3 DUP3 PUSH2 0x1D8E JUMP JUMPDEST SWAP2 POP POP PUSH1 0x60 DUP4 ADD MLOAD PUSH2 0x1F2B PUSH1 0x60 DUP7 ADD DUP3 PUSH2 0x1F36 JUMP JUMPDEST POP DUP1 SWAP2 POP POP SWAP3 SWAP2 POP POP JUMP JUMPDEST PUSH2 0x1F3F DUP2 PUSH2 0x2334 JUMP JUMPDEST DUP3 MSTORE POP POP JUMP JUMPDEST PUSH2 0x1F4E DUP2 PUSH2 0x2334 JUMP JUMPDEST DUP3 MSTORE POP POP JUMP JUMPDEST PUSH2 0x1F65 PUSH2 0x1F60 DUP3 PUSH2 0x2334 JUMP JUMPDEST PUSH2 0x2484 JUMP JUMPDEST DUP3 MSTORE POP POP JUMP JUMPDEST PUSH1 0x0 PUSH2 0x1F77 DUP3 DUP6 PUSH2 0x1D0D JUMP JUMPDEST PUSH1 0x20 DUP3 ADD SWAP2 POP PUSH2 0x1F87 DUP3 DUP5 PUSH2 0x1C72 JUMP JUMPDEST PUSH1 0x14 DUP3 ADD SWAP2 POP DUP2 SWAP1 POP SWAP4 SWAP3 POP POP POP JUMP JUMPDEST PUSH1 0x0 PUSH2 0x1FA3 DUP3 DUP6 PUSH2 0x1D5D JUMP JUMPDEST SWAP2 POP PUSH2 0x1FAF DUP3 DUP5 PUSH2 0x1D5D JUMP JUMPDEST SWAP2 POP DUP2 SWAP1 POP SWAP4 SWAP3 POP POP POP JUMP JUMPDEST PUSH1 0x0 PUSH2 0x1FC7 DUP3 DUP5 PUSH2 0x1E00 JUMP JUMPDEST SWAP2 POP DUP2 SWAP1 POP SWAP3 SWAP2 POP POP JUMP JUMPDEST PUSH1 0x0 PUSH2 0x1FDD DUP3 PUSH2 0x1E31 JUMP JUMPDEST SWAP2 POP PUSH2 0x1FE9 DUP3 DUP5 PUSH2 0x1D0D JUMP JUMPDEST PUSH1 0x20 DUP3 ADD SWAP2 POP DUP2 SWAP1 POP SWAP3 SWAP2 POP POP JUMP JUMPDEST PUSH1 0x0 PUSH2 0x2004 DUP3 DUP8 PUSH2 0x1F54 JUMP JUMPDEST PUSH1 0x20 DUP3 ADD SWAP2 POP PUSH2 0x2014 DUP3 DUP7 PUSH2 0x1C72 JUMP JUMPDEST PUSH1 0x14 DUP3 ADD SWAP2 POP PUSH2 0x2024 DUP3 DUP6 PUSH2 0x1D0D JUMP JUMPDEST PUSH1 0x20 DUP3 ADD SWAP2 POP PUSH2 0x2034 DUP3 DUP5 PUSH2 0x1F54 JUMP JUMPDEST PUSH1 0x20 DUP3 ADD SWAP2 POP DUP2 SWAP1 POP SWAP6 SWAP5 POP POP POP POP POP JUMP JUMPDEST PUSH1 0x0 PUSH1 0x20 DUP3 ADD SWAP1 POP DUP2 DUP2 SUB PUSH1 0x0 DUP4 ADD MSTORE PUSH2 0x2060 DUP2 DUP5 PUSH2 0x1C89 JUMP JUMPDEST SWAP1 POP SWAP3 SWAP2 POP POP JUMP JUMPDEST PUSH1 0x0 PUSH1 0x20 DUP3 ADD SWAP1 POP PUSH2 0x207D PUSH1 0x0 DUP4 ADD DUP5 PUSH2 0x1CFE JUMP JUMPDEST SWAP3 SWAP2 POP POP JUMP JUMPDEST PUSH1 0x0 PUSH1 0x20 DUP3 ADD SWAP1 POP DUP2 DUP2 SUB PUSH1 0x0 DUP4 ADD MSTORE PUSH2 0x209D DUP2 DUP5 PUSH2 0x1D24 JUMP JUMPDEST SWAP1 POP SWAP3 SWAP2 POP POP JUMP JUMPDEST PUSH1 0x0 PUSH1 0x20 DUP3 ADD SWAP1 POP DUP2 DUP2 SUB PUSH1 0x0 DUP4 ADD MSTORE PUSH2 0x20BF DUP2 DUP5 PUSH2 0x1DC7 JUMP JUMPDEST SWAP1 POP SWAP3 SWAP2 POP POP JUMP JUMPDEST PUSH1 0x0 PUSH1 0x80 DUP3 ADD SWAP1 POP DUP2 DUP2 SUB PUSH1 0x0 DUP4 ADD MSTORE PUSH2 0x20E1 DUP2 DUP8 PUSH2 0x1DC7 JUMP JUMPDEST SWAP1 POP DUP2 DUP2 SUB PUSH1 0x20 DUP4 ADD MSTORE PUSH2 0x20F5 DUP2 DUP7 PUSH2 0x1DC7 JUMP JUMPDEST SWAP1 POP DUP2 DUP2 SUB PUSH1 0x40 DUP4 ADD MSTORE PUSH2 0x2109 DUP2 DUP6 PUSH2 0x1D24 JUMP JUMPDEST SWAP1 POP PUSH2 0x2118 PUSH1 0x60 DUP4 ADD DUP5 PUSH2 0x1F45 JUMP JUMPDEST SWAP6 SWAP5 POP POP POP POP POP JUMP JUMPDEST PUSH1 0x0 PUSH1 0x20 DUP3 ADD SWAP1 POP DUP2 DUP2 SUB PUSH1 0x0 DUP4 ADD MSTORE PUSH2 0x213B DUP2 DUP5 PUSH2 0x1EC5 JUMP JUMPDEST SWAP1 POP SWAP3 SWAP2 POP POP JUMP JUMPDEST PUSH1 0x0 PUSH2 0x214D PUSH2 0x215E JUMP JUMPDEST SWAP1 POP PUSH2 0x2159 DUP3 DUP3 PUSH2 0x23DC JUMP JUMPDEST SWAP2 SWAP1 POP JUMP JUMPDEST PUSH1 0x0 PUSH1 0x40 MLOAD SWAP1 POP SWAP1 JUMP JUMPDEST PUSH1 0x0 PUSH8 0xFFFFFFFFFFFFFFFF DUP3 GT ISZERO PUSH2 0x2183 JUMPI PUSH2 0x2182 PUSH2 0x257B JUMP JUMPDEST JUMPDEST PUSH2 0x218C DUP3 PUSH2 0x25BE JUMP JUMPDEST SWAP1 POP PUSH1 0x20 DUP2 ADD SWAP1 POP SWAP2 SWAP1 POP JUMP JUMPDEST PUSH1 0x0 PUSH8 0xFFFFFFFFFFFFFFFF DUP3 GT ISZERO PUSH2 0x21B4 JUMPI PUSH2 0x21B3 PUSH2 0x257B JUMP JUMPDEST JUMPDEST PUSH2 0x21BD DUP3 PUSH2 0x25BE JUMP JUMPDEST SWAP1 POP PUSH1 0x20 DUP2 ADD SWAP1 POP SWAP2 SWAP1 POP JUMP JUMPDEST PUSH1 0x0 DUP2 SWAP1 POP PUSH1 0x20 DUP3 ADD SWAP1 POP SWAP2 SWAP1 POP JUMP JUMPDEST PUSH1 0x0 DUP2 MLOAD SWAP1 POP SWAP2 SWAP1 POP JUMP JUMPDEST PUSH1 0x0 DUP2 MLOAD SWAP1 POP SWAP2 SWAP1 POP JUMP JUMPDEST PUSH1 0x0 DUP2 MLOAD SWAP1 POP SWAP2 SWAP1 POP JUMP JUMPDEST PUSH1 0x0 PUSH1 0x20 DUP3 ADD SWAP1 POP SWAP2 SWAP1 POP JUMP JUMPDEST PUSH1 0x0 DUP3 DUP3 MSTORE PUSH1 0x20 DUP3 ADD SWAP1 POP SWAP3 SWAP2 POP POP JUMP JUMPDEST PUSH1 0x0 DUP3 DUP3 MSTORE PUSH1 0x20 DUP3 ADD SWAP1 POP SWAP3 SWAP2 POP POP JUMP JUMPDEST PUSH1 0x0 DUP2 SWAP1 POP SWAP3 SWAP2 POP POP JUMP JUMPDEST PUSH1 0x0 DUP3 DUP3 MSTORE PUSH1 0x20 DUP3 ADD SWAP1 POP SWAP3 SWAP2 POP POP JUMP JUMPDEST PUSH1 0x0 DUP3 DUP3 MSTORE PUSH1 0x20 DUP3 ADD SWAP1 POP SWAP3 SWAP2 POP POP JUMP JUMPDEST PUSH1 0x0 DUP2 SWAP1 POP SWAP3 SWAP2 POP POP JUMP JUMPDEST PUSH1 0x0 PUSH2 0x226D DUP3 PUSH2 0x2334 JUMP JUMPDEST SWAP2 POP PUSH2 0x2278 DUP4 PUSH2 0x2334 JUMP JUMPDEST SWAP3 POP DUP3 PUSH32 0xFFFFFFFFFFFFFFFFFFFFFFFFFFFFFFFFFFFFFFFFFFFFFFFFFFFFFFFFFFFFFFFF SUB DUP3 GT ISZERO PUSH2 0x22AD JUMPI PUSH2 0x22AC PUSH2 0x24BF JUMP JUMPDEST JUMPDEST DUP3 DUP3 ADD SWAP1 POP SWAP3 SWAP2 POP POP JUMP JUMPDEST PUSH1 0x0 PUSH2 0x22C3 DUP3 PUSH2 0x2334 JUMP JUMPDEST SWAP2 POP PUSH2 0x22CE DUP4 PUSH2 0x2334 JUMP JUMPDEST SWAP3 POP DUP3 DUP3 LT ISZERO PUSH2 0x22E1 JUMPI PUSH2 0x22E0 PUSH2 0x24BF JUMP JUMPDEST JUMPDEST DUP3 DUP3 SUB SWAP1 POP SWAP3 SWAP2 POP POP JUMP JUMPDEST PUSH1 0x0 PUSH2 0x22F7 DUP3 PUSH2 0x2314 JUMP JUMPDEST SWAP1 POP SWAP2 SWAP1 POP JUMP JUMPDEST PUSH1 0x0 DUP2 ISZERO ISZERO SWAP1 POP SWAP2 SWAP1 POP JUMP JUMPDEST PUSH1 0x0 DUP2 SWAP1 POP SWAP2 SWAP1 POP JUMP JUMPDEST PUSH1 0x0 PUSH20 0xFFFFFFFFFFFFFFFFFFFFFFFFFFFFFFFFFFFFFFFF DUP3 AND SWAP1 POP SWAP2 SWAP1 POP JUMP JUMPDEST PUSH1 0x0 DUP2 SWAP1 POP SWAP2 SWAP1 POP JUMP JUMPDEST DUP3 DUP2 DUP4 CALLDATACOPY PUSH1 0x0 DUP4 DUP4 ADD MSTORE POP POP POP JUMP JUMPDEST PUSH1 0x0 JUMPDEST DUP4 DUP2 LT ISZERO PUSH2 0x236B JUMPI DUP1 DUP3 ADD MLOAD DUP2 DUP5 ADD MSTORE PUSH1 0x20 DUP2 ADD SWAP1 POP PUSH2 0x2350 JUMP JUMPDEST DUP4 DUP2 GT ISZERO PUSH2 0x237A JUMPI PUSH1 0x0 DUP5 DUP5 ADD MSTORE JUMPDEST POP POP POP POP JUMP JUMPDEST PUSH1 0x0 PUSH2 0x238B DUP3 PUSH2 0x2334 JUMP JUMPDEST SWAP2 POP PUSH1 0x0 DUP3 EQ ISZERO PUSH2 0x239F JUMPI PUSH2 0x239E PUSH2 0x24BF JUMP JUMPDEST JUMPDEST PUSH1 0x1 DUP3 SUB SWAP1 POP SWAP2 SWAP1 POP JUMP JUMPDEST PUSH1 0x0 PUSH1 0x2 DUP3 DIV SWAP1 POP PUSH1 0x1 DUP3 AND DUP1 PUSH2 0x23C2 JUMPI PUSH1 0x7F DUP3 AND SWAP2 POP JUMPDEST PUSH1 0x20 DUP3 LT DUP2 EQ ISZERO PUSH2 0x23D6 JUMPI PUSH2 0x23D5 PUSH2 0x251D JUMP JUMPDEST JUMPDEST POP SWAP2 SWAP1 POP JUMP JUMPDEST PUSH2 0x23E5 DUP3 PUSH2 0x25BE JUMP JUMPDEST DUP2 ADD DUP2 DUP2 LT PUSH8 0xFFFFFFFFFFFFFFFF DUP3 GT OR ISZERO PUSH2 0x2404 JUMPI PUSH2 0x2403 PUSH2 0x257B JUMP JUMPDEST JUMPDEST DUP1 PUSH1 0x40 MSTORE POP POP POP JUMP JUMPDEST PUSH1 0x0 PUSH2 0x2418 DUP3 PUSH2 0x2334 JUMP JUMPDEST SWAP2 POP PUSH32 0xFFFFFFFFFFFFFFFFFFFFFFFFFFFFFFFFFFFFFFFFFFFFFFFFFFFFFFFFFFFFFFFF DUP3 EQ ISZERO PUSH2 0x244B JUMPI PUSH2 0x244A PUSH2 0x24BF JUMP JUMPDEST JUMPDEST PUSH1 0x1 DUP3 ADD SWAP1 POP SWAP2 SWAP1 POP JUMP JUMPDEST PUSH1 0x0 PUSH2 0x2461 DUP3 PUSH2 0x2472 JUMP JUMPDEST SWAP1 POP SWAP2 SWAP1 POP JUMP JUMPDEST PUSH1 0x0 DUP2 SWAP1 POP SWAP2 SWAP1 POP JUMP JUMPDEST PUSH1 0x0 PUSH2 0x247D DUP3 PUSH2 0x25CF JUMP JUMPDEST SWAP1 POP SWAP2 SWAP1 POP JUMP JUMPDEST PUSH1 0x0 DUP2 SWAP1 POP SWAP2 SWAP1 POP JUMP JUMPDEST PUSH1 0x0 PUSH2 0x2499 DUP3 PUSH2 0x2334 JUMP JUMPDEST SWAP2 POP PUSH2 0x24A4 DUP4 PUSH2 0x2334 JUMP JUMPDEST SWAP3 POP DUP3 PUSH2 0x24B4 JUMPI PUSH2 0x24B3 PUSH2 0x24EE JUMP JUMPDEST JUMPDEST DUP3 DUP3 MOD SWAP1 POP SWAP3 SWAP2 POP POP JUMP JUMPDEST PUSH32 0x4E487B7100000000000000000000000000000000000000000000000000000000 PUSH1 0x0 MSTORE PUSH1 0x11 PUSH1 0x4 MSTORE PUSH1 0x24 PUSH1 0x0 REVERT JUMPDEST PUSH32 0x4E487B7100000000000000000000000000000000000000000000000000000000 PUSH1 0x0 MSTORE PUSH1 0x12 PUSH1 0x4 MSTORE PUSH1 0x24 PUSH1 0x0 REVERT JUMPDEST PUSH32 0x4E487B7100000000000000000000000000000000000000000000000000000000 PUSH1 0x0 MSTORE PUSH1 0x22 PUSH1 0x4 MSTORE PUSH1 0x24 PUSH1 0x0 REVERT JUMPDEST PUSH32 0x4E487B7100000000000000000000000000000000000000000000000000000000 PUSH1 0x0 MSTORE PUSH1 0x32 PUSH1 0x4 MSTORE PUSH1 0x24 PUSH1 0x0 REVERT JUMPDEST PUSH32 0x4E487B7100000000000000000000000000000000000000000000000000000000 PUSH1 0x0 MSTORE PUSH1 0x41 PUSH1 0x4 MSTORE PUSH1 0x24 PUSH1 0x0 REVERT JUMPDEST PUSH1 0x0 DUP1 REVERT JUMPDEST PUSH1 0x0 DUP1 REVERT JUMPDEST PUSH1 0x0 DUP1 REVERT JUMPDEST PUSH1 0x0 DUP1 REVERT JUMPDEST PUSH1 0x0 PUSH1 0x1F NOT PUSH1 0x1F DUP4 ADD AND SWAP1 POP SWAP2 SWAP1 POP JUMP JUMPDEST PUSH1 0x0 DUP2 PUSH1 0x60 SHL SWAP1 POP SWAP2 SWAP1 POP JUMP JUMPDEST PUSH32 0x3078000000000000000000000000000000000000000000000000000000000000 PUSH1 0x0 DUP3 ADD MSTORE POP JUMP JUMPDEST PUSH2 0x260E DUP2 PUSH2 0x2334 JUMP JUMPDEST DUP2 EQ PUSH2 0x2619 JUMPI PUSH1 0x0 DUP1 REVERT JUMPDEST POP JUMP INVALID LOG2 PUSH5 0x6970667358 0x22 SLT KECCAK256 PUSH11 0x9468F20321038FBB6F6 POP 0xC0 SELFBALANCE ISZERO 0xE7 SWAP12 0xBA 0xEE 0xB3 PUSH31 0x2333DE842CD94BC2CC6964736F6C6343000806003300000000000000000000 "
		},
		"gasEstimates": {
			"creation": {
				"codeDepositCost": "1962000",
				"executionCost": "2077",
				"totalCost": "1964077"
			},
			"external": {
				"FindFileHistory(string,uint256,uint256,uint256,uint256)": "infinite",
				"FindFileStorage(string,uint256,uint256)": "infinite",
				"contains(string,string)": "infinite",
				"decrypt(bytes)": "infinite",
				"encrypt(string)": "infinite",
				"generateKeys()": "infinite",
				"generatePrivateKey(string)": "infinite",
				"newMapFileInfo(uint256)": "infinite",
				"storeFile(string,string,string)": "infinite"
			},
			"internal": {
				"filterListBySubStr(string memory,uint256[] memory)": "infinite",
				"getListIndex(uint256,uint256)": "infinite",
				"getTimelist(address)": "infinite"
			}
		},
		"methodIdentifiers": {
			"FindFileHistory(string,uint256,uint256,uint256,uint256)": "e77d24cc",
			"FindFileStorage(string,uint256,uint256)": "34dcf137",
			"contains(string,string)": "3fb18aec",
			"decrypt(bytes)": "210ca7be",
			"encrypt(string)": "3a5b5bde",
			"generateKeys()": "5b9d136c",
			"generatePrivateKey(string)": "a4ec214a",
			"newMapFileInfo(uint256)": "233fc2fe",
			"storeFile(string,string,string)": "7dd77d2b"
		}
	},
	"abi": [
		{
			"inputs": [],
			"stateMutability": "nonpayable",
			"type": "constructor"
		},
		{
			"anonymous": false,
			"inputs": [
				{
					"indexed": false,
					"internalType": "string",
					"name": "fileName",
					"type": "string"
				},
				{
					"indexed": false,
					"internalType": "string",
					"name": "fileType",
					"type": "string"
				},
				{
					"indexed": false,
					"internalType": "bytes",
					"name": "fileContent",
					"type": "bytes"
				},
				{
					"indexed": false,
					"internalType": "uint256",
					"name": "timestamp",
					"type": "uint256"
				}
			],
			"name": "FileStored",
			"type": "event"
		},
		{
			"inputs": [
				{
					"internalType": "string",
					"name": "fileName",
					"type": "string"
				},
				{
					"internalType": "uint256",
					"name": "startTime",
					"type": "uint256"
				},
				{
					"internalType": "uint256",
					"name": "endTime",
					"type": "uint256"
				},
				{
					"internalType": "uint256",
					"name": "startIndex",
					"type": "uint256"
				},
				{
					"internalType": "uint256",
					"name": "size",
					"type": "uint256"
				}
			],
			"name": "FindFileHistory",
			"outputs": [
				{
					"components": [
						{
							"internalType": "string",
							"name": "fileName",
							"type": "string"
						},
						{
							"internalType": "string",
							"name": "fileType",
							"type": "string"
						},
						{
							"internalType": "string",
							"name": "fileContent",
							"type": "string"
						},
						{
							"internalType": "uint256",
							"name": "timestamp",
							"type": "uint256"
						}
					],
					"internalType": "struct FileStorage.FileInfo[]",
					"name": "",
					"type": "tuple[]"
				}
			],
			"stateMutability": "view",
			"type": "function"
		},
		{
			"inputs": [
				{
					"internalType": "string",
					"name": "fileName",
					"type": "string"
				},
				{
					"internalType": "uint256",
					"name": "startTime",
					"type": "uint256"
				},
				{
					"internalType": "uint256",
					"name": "endTime",
					"type": "uint256"
				}
			],
			"name": "FindFileStorage",
			"outputs": [
				{
					"components": [
						{
							"internalType": "string",
							"name": "fileName",
							"type": "string"
						},
						{
							"internalType": "string",
							"name": "fileType",
							"type": "string"
						},
						{
							"internalType": "string",
							"name": "fileContent",
							"type": "string"
						},
						{
							"internalType": "uint256",
							"name": "timestamp",
							"type": "uint256"
						}
					],
					"internalType": "struct FileStorage.FileInfo[]",
					"name": "",
					"type": "tuple[]"
				}
			],
			"stateMutability": "view",
			"type": "function"
		},
		{
			"inputs": [
				{
					"internalType": "string",
					"name": "str",
					"type": "string"
				},
				{
					"internalType": "string",
					"name": "substr",
					"type": "string"
				}
			],
			"name": "contains",
			"outputs": [
				{
					"internalType": "bool",
					"name": "",
					"type": "bool"
				}
			],
			"stateMutability": "pure",
			"type": "function"
		},
		{
			"inputs": [
				{
					"internalType": "bytes",
					"name": "data",
					"type": "bytes"
				}
			],
			"name": "decrypt",
			"outputs": [
				{
					"internalType": "string",
					"name": "",
					"type": "string"
				}
			],
			"stateMutability": "view",
			"type": "function"
		},
		{
			"inputs": [
				{
					"internalType": "string",
					"name": "str",
					"type": "string"
				}
			],
			"name": "encrypt",
			"outputs": [
				{
					"internalType": "bytes",
					"name": "",
					"type": "bytes"
				}
			],
			"stateMutability": "view",
			"type": "function"
		},
		{
			"inputs": [],
			"name": "generateKeys",
			"outputs": [
				{
					"internalType": "string",
					"name": "",
					"type": "string"
				}
			],
			"stateMutability": "nonpayable",
			"type": "function"
		},
		{
			"inputs": [
				{
					"internalType": "string",
					"name": "mnemonic",
					"type": "string"
				}
			],
			"name": "generatePrivateKey",
			"outputs": [
				{
					"internalType": "string",
					"name": "",
					"type": "string"
				}
			],
			"stateMutability": "view",
			"type": "function"
		},
		{
			"inputs": [
				{
					"internalType": "uint256",
					"name": "tsp",
					"type": "uint256"
				}
			],
			"name": "newMapFileInfo",
			"outputs": [
				{
					"components": [
						{
							"internalType": "string",
							"name": "fileName",
							"type": "string"
						},
						{
							"internalType": "string",
							"name": "fileType",
							"type": "string"
						},
						{
							"internalType": "string",
							"name": "fileContent",
							"type": "string"
						},
						{
							"internalType": "uint256",
							"name": "timestamp",
							"type": "uint256"
						}
					],
					"internalType": "struct FileStorage.FileInfo",
					"name": "",
					"type": "tuple"
				}
			],
			"stateMutability": "view",
			"type": "function"
		},
		{
			"inputs": [
				{
					"internalType": "string",
					"name": "fileName",
					"type": "string"
				},
				{
					"internalType": "string",
					"name": "fileType",
					"type": "string"
				},
				{
					"internalType": "string",
					"name": "fileContent",
					"type": "string"
				}
			],
			"name": "storeFile",
			"outputs": [],
			"stateMutability": "nonpayable",
			"type": "function"
		}
	]
}